:020000040800F2
:20000000E8170020191E00086D1C00087B1C00087D1C00087F1C0008811C00080000000069
:20002000000000000000000000000000831C0008851C000800000000871C0008891C000818
:20004000351E0008391E00083D1E0008411E0008451E00089B1C0008491E00084D1E000810
:20006000511E0008551E0008591E0008DB1C00085D1E0008611E0008651E0008691E0008EC
:200080006D1E0008711E0008751E0008791E00087D1E0008811E0008851E0008891E000858
:2000A0008D1E0008911E0008951E0008991E00089D1E0008A11E0008A51E0008A91E000838
:2000C000AD1E0008B11E0008B51E0008B91E0008BD1E0008C11E0008C51E0008C91E000818
:2000E000CD1E0008D11E0008D51E0008D91E0008DD1E0008E11E0008E51E0008E91E0008F8
:20010000000000000000000000000000ED1E0008F11E0008F51E0008F91E0008FD1E000858
:20012000011F0008051F0008091F00080D1F0008111F0008151F0008000000000000000093
:20014000191F00081D1F0008211F00080000000000000000000000000000000000000000D3
:200160000000000000000000251F0008291F00082D1F00080000000000000000000000008F
:2001800000000000311F00082DE9F84FDFF87848DFF878782088DFF87858DFF878A8DFF82F
:2001A0007888DFF8786847F230518842BCBF64302080387800284FF4805947D03088C0F3DF
:2001C000C010F8B9A8F8189040F23F37B8F80000400504D53946504600F0DDFC48B10020E9
:2001E0002080394650460162C046504600F0CFFC7DE02088B0F5FA6F79DD308840F08000BF
:20020000308074E0C8F80890002040212080504600F0C1FCDFF8084810B92078002866D137
:200220002078397888420BD20146802908DA401C2070DFF8F007095C504600F0A4FC56E081
:20024000002038702070A8F8189050E02021504600F0A1FCDFF8D077DFF8D0B708B330887B
:20026000C0F3C001E9B921804FF67F7108403080504600F08CFC9BF8001080290A460DDA09
:20028000521CD2B2C855012A02D13878502803E0022A03D17878522818BF00228BF8002040
:2002A00025E02088B0F5FA6F23DD9BF80000082809DBF978884206D1DFF874170870308838
:2002C00040F008003080A8F8189000208BF80000208041F28831308840F0800030802888F7
:2002E000401C288080B2884203DB00F020FD00202880BDE8F18F2DE9F041DFF83867DFF892
:2003000038573088DFF83447DFF8107747F230518842BCBF64303080287840F23F3888B31F
:200320003888C0F3801068B9DFF8EC060088000751D500F073F800284DD13088B0F5FA6FB4
:200340006ADD65E000204021308000F068F8DFF8F06610B9307800285ED130782978884288
:200360000CD20146802909DA401C3070DFF8D406095C2046BDE8F04100F005BC0020287015
:20038000307049E0202100F04AF8DFF8BC56F8B13888C0F30011D9B931804FF6BF7108400B
:2003A0003880204600F0F3FB2978802934DADFF89C36C854481C28701978512905D1C0B2D5
:2003C000022829D15878202826D00020287023E000F024F850B10020308041462046016203
:2003E000C0462046BDE8F04100F0D1BB308841F28931884210DB2878202806D1DFF85016E9
:200400000870388840F010003880002028703080388840F040003880BDE8F0814146204659
:2004200000F0B9BB70B5DFF82806DFF8206605784FF6FF74A81E2246314680B200F0CEFA0D
:20044000A919C3B211F8022D9A4202BF49780004B1EB106F37D1DFF8FC15DFF8FC05DFF811
:20046000E45508608021284600F0A2FC5220287022465120687029460020A870E8702871EB
:2004800068710820A8711520E871DFF8D00500882872000A6872DFF8C8050088A872000AB2
:2004A000E872DFF8C00500882873000A68730020A8730F2000F092FAE873000A2874112026
:2004C000DFF87415087070BD2DE9F84FDFF86005DFF854650478A01E314680B200F060FAC1
:2004E000A019801EDFF8802541781278914201BF0078DFF878150978884240F03182DFF872
:2005000024458021204600F053FC52202070002550206070B778B179707A337A96F807C080
:20052000A52F0A4625D1572A08BFBCF1130F35D1682B08BF242831D1C520A0701225572039
:20054000A0711320E0716820207224206072DFF80C050088A072000AE072DFF80405008890
:200560002073000A6073DFF8FC040088A073000A13E0A62F13D1C620A07012250020A07185
:20058000E07120726072DFF8E8040088A072000AE072002020736073A073E073CAE1A42F83
:2005A0001BD1CD2A08BFBCF1AB0FF7D1BA2B08BFDC28F3D1C420A0700C25CD20A071AB2000
:2005C000E071BA202072DC206072DFF8A8040188002901D119210180ACE1C327A770102907
:2005E000DFF89474DFF89484B7F800E0DFF89074DFF89094DFF890B44FF6FF7A0AD01229DA
:2006000000F0C880132900F0F880142900F05B812029E1D15FEACE70DED542F20C001EEA78
:20062000000FDFF8681428D1DFF86474384600F0A7FC83460821DFF8DC030162C046BBF1E2
:20064000040F15D100F095F940F024000880DFF84414DFF84404A0F800A00D60DFF83C043D
:200660000760012089F80000B07989F803008AE0DFF80414082008805CE142F2240000EA3C
:200680000E002428F8D189F802503D6087F800C07B70707ADFF80834B870B07AF870386846
:2006A0001860DFF8F8331B68984238BF89F8015007D3834206D2012089F800000A2089F8D6
:2006C000010037E11B0ADFF8DCC389F801501B02CCF80030102A96F803C0DFF8CCA30CD1D5
:2006E000ACF10D01AAF800100B23B8F800218A18A8F8002110FA81F215E0ACF11102AAF877
:2007000000200F23B8F800C16244A8F800213D60F27A3A70327B7A70727BBA70B27BFA70B7
:200720003A688A4201D389F80050DFF870130A60C0B2BAF8002000EB08071AB199193846A9
:2007400000F0D6FCD4480288BAF80000394600F045F9D1490880D149D24809680068090A10
:200760000902814215D0CB49B8F80021096811FA82F1C84A1160A8F80051CC49CC4A00F063
:2007800002F900F007F9FF224FF48071404600F0EBFCCFE00021002B08BF282889F8001019
:2007A0001DD1B07A002804BFF07A082817D100F0D9F80120B0490880122000F0DEF82572C2
:2007C0000820E072A57201208BF800000E250020ABF808A0CBF80400CBF80C00AAE0922074
:2007E00000F0CBF821720820E072A17202200E258BF80000CBF80C109CE042F2240000EAB1
:200800000E00242889F8005014D1B8F8000188B1A048B8F800110068A54A10FA81F09D497D
:200820000860A8F800519F48A049006800F0ABF800F0B0F83D60307A3870707A7870B07A11
:20084000B870F07AF8701320A071F079E071924800886072010A21728E493A6809688A4218
:2008600018D100291FBF844B1B88C3F34015002D10D043F08002804B1A80ABF80800032214
:200880000020CBF80C008BF80020CBF8041000F069F816E09BF80000032804BFDBF8040050
:2008A000824206D128B1BBF808006072010A217207E09320A07104208BF800000020CBF864
:2008C0000C000C2536E0CEF3C01000B34FF67F70694900EA0E00088076495F4800F076FB54
:2008E00080B100F046F840F0400008801420A071F079E071ABF808A005208BF80000CBF8EC
:20090000045014E09420A071F079E07111E09BF80000052804D11420A07184F807C008E01A
:200920009420A07184F807C006208BF80000CBF80C500A25E570504800882071000A6071D7
:2009400075B1A81E214680B200F02AF847490978281900F8021D4449097841702B480570F0
:20096000BDE8F18F4C484B49A0F800A00020086070474148404900887047A07184F807C00E
:20098000282060727047086000F1FF011160424600F031BB18B938494FF400500880704734
:2009A000F0B5314A314B444D444EFF2414701C7000240FE0177811F801CB8CEA070793F8BF
:2009C00000C017F806E08EEA0C0C82F800C0641C7F5D1F70A4B28442ECD3F0BDF0B5130A63
:2009E0000024354D354E07E011F8017B5F40641CBB5D53407A5DDBB2A4B28442F4D3D2B2CD
:200A000042EA0320F0BD0000C4130020DD130020C213002000380140100000489413002046
:200A2000DE1300204C110020CC110020DF130020DC130020C6130020E0130020004400407A
:200A4000E11300204C120020E2130020CC120020E313002088130020EC290008CE13002002
:200A6000D0130020D2130020E4130020E5130020F01F0008D61300209813002048100020DC
:200A800090130020A0130020781300200080000800280008B4130020D8130020AC1300208C
:200AA000A8130020B0130020DA130020B8130020BC130020AA55FFFF741A00087419000869
:200AC00030B5044697B020684008400020600D466068A96820F44050084360602449206840
:200AE000084069680843E9680843296908432060A068696920F440700843A06000A800F018
:200B0000CEFB1748844208BF0E980ED01548844208BF0F9809D01448844208BF109804D0CD
:200B2000124884420CBF1198129829682268120448BF4000B0FBF1F201FB1200B0EB510F68
:200B4000206828BF521C000406D54FF6F0701040C2F3420141EA0002A28117B030BD0000E8
:200B6000003801400044004000480040004C0040F3E9FFFF0029016812BF41F001014908A3
:200B8000490001607047C905C90D01857047808CC005C00D7047C0690022084218BF01222F
:200BA0001046704780B500F010F800214FF0006000F02CFDBDE8014051E080B500F0B7F837
:200BC00000F0A1F8BDE80140E0E000B597B000F0E9FA012000F00AFB00F00EFB0028FBD015
:200BE000012827D1002000F045FB4FF4806000F047FB002000F04AFB022000F011FD4FF477
:200C0000E0114FF4803000F014FB012000F01CFB192000F0B2FC0028FAD0022000F01CFBD7
:200C200000F022FB0828FBD100A800F038FB012000F00EFB0121012000F084FC01214FF4AE
:200C4000602000F07FFC01214FF4003000F08CFC01214FF4804000F07EFC17B000BD00B5D4
:200C600083B001214FF4003000F06CFC072209214FF0904000F087FD07220A214FF090401B
:200C800000F081FD4FF4007000F02BF84FF4806000F027F84FF4805000F017F802208DF835
:200CA00007004FF0904000F039FD01214FF4802000F048FC4FF4E24000F007F800208DF8C6
:200CC00007002C4800F02AFD07BD009000A901208DF8040000208DF8060003208DF8050083
:200CE0007047009000A902208DF8040000208DF8060003208DF8050000208DF807004FF016
:200D0000904000F00BBD1C48006842F21071B0FBF1F0401EB0F1807F08D21849184A4860FB
:200D2000F02010700020886007200860704730B587B0002001900290039005904FF4964431
:200D40000C200490009400A90E4D2846FFF7B8FE01212846FFF70EFF009400A90A4C204695
:200D6000FFF7AEFE01212046FFF704FF07B030BD00000000000400484400002010E000E02C
:200D800023ED00E0003801400044004080B545F2555000F00BFD032000F00BFD40F6A66006
:200DA00000F00AFD00F00BFDBDE8014000F00CBD002200F015BD50F8041B61B150F8042BD1
:200DC000D30744BFA9F101039A180023091F42F8043BFAD1EFE77047AC48AD49002201E0DD
:200DE00020F8022B8142FBD2704710B5A94CAA48206045F2AA51008888420ED1A748008861
:200E0000884204D15A2000F0B8FB012805D100F0C8FBA348606000688047A248016841F006
:200E20000101016000F002F8002010BD38B59B499D4C9E4D0020086001209D4908700320A9
:200E400091490880FFF7C8FFFFF7ACFEFFF7B5FE00F034F8974902200880042096490880F9
:200E60004FF0FF319548C160002101709448017041702888B0F5FA6F06DB2088C0F340102B
:200E800010B9288000F09BFC00F0DAFC2088C0F3C00030B1FFF718FB20884FF6F7710840F2
:200EA00020802088C0F300100028E2D0FFF7BAFA20884FF6EF7108402080DAE7F0B581483F
:200EC000744C4FF48071018000227F490A8000237E4A138045F2AA556F4B23601C88AC42A6
:200EE00004BF1C7A4C2C47D15C7A702C04BF9C7AF02C41D1DC7A7C2C04BF1C7B0F2C3BD1F1
:200F00005C7BC02C04BF9C7B3F2C35D1704C2578632D04BF6578C12D2ED1A578F82D04BF48
:200F2000E5780F2D28D12579F02D01BF6579072DA579FE2D20D1674E002737800725664FE4
:200F4000B6F800C015F807E06D1CF444202DA6F800C0F5DB1B8D1FFA8CF59D420CD10025D0
:200F60005E4BEE5DEE546D1C292DFADBDD890580188A088060891080FF2059490880F0BD03
:200F80007CB5044604208DF8000000250E46019500F04EFB342000F093FB301BC00A01906D
:200FA0000AE004EBC526304600F04EFB304600F04BFB8DF800006D1C0198854203D29DF83A
:200FC00000000428EDD09DF8000076BD38B504460D4600F02DFB352000F072FB2946204637
:200FE00000F04AFB2168A94208BF042801D0002032BD012032BD2DE9F84F044604208DF815
:2010000000008A463748384F8442934633D33748824530D2254600264FF0FF38DFF8789027
:2010200000E02D1D55450CD2F6B25BF82610761C4D4508BF4146284600F01EFB0428F0D008
:20104000FEE70121002039800CE0C0B25BF820102268401C4C4508BF41468A421CBF002142
:201060003980241D544506D29DF80010042904BF39880129E9D09DF80000042806BF388886
:2010800001280020BDE8F28F052004E000010020E613002088130020EC29000800000020A6
:2010A000042800089C13002094130020CA130020480000204A110020C013002078130020E8
:2010C000A0130020D2130020CE130020D0130020162A0008C8130020F42900084C1300204D
:2010E000D413002000280008CC1300200080000862B38B0708D0521E11F8013B00F8013BCA
:2011000000F024808B07F6D1830740F0208000BF103A07D330B4B1E83810103AA0E83810C6
:20112000F9D230BC530724BFB1E80810A0E8081044BF51F8043B40F8043BD20724BF31F883
:20114000022B20F8022B44BF0B7803707047083A07D3B1E80810083A40F8043B40F804CBE0
:20116000F7D25307E4E7000062F30F2262F31F4200B500BF130096469446103928BFA0E850
:201180000C50FAD85FEA417C28BF0CC048BF40F8042BC90728BF20F8022B48BF00F8012BD3
:2011A00000BD0000DFF82004DFF82024016841F001010160416811404160DFF8142401684C
:2011C00011400160DFF80C24016821F480210160416821F4FE014160C16A890B8903C1620A
:2011E000016B11400163002181607047DFF8E81300220A700870704710B582B000200090D1
:201200000024112000F0B9F90099491C00910099B1F5A04F01D00028F3D0112000F0ADF997
:2012200000B10124204616BD0A600A68104308607047DFF8A823136823F4741313600843D8
:201240001368184310607047DFF8941308607047DFF8901308607047DFF880130A689208E5
:2012600040EA820008607047DFF87003006800F00C007047DFF864130A6822F0F002D5E7BE
:20128000DFF858130A6822F4E062CFE7DFF84C130A6822F4605242EAC00008607047F0B56C
:2012A000DFF83813DFF840230C68002304F00C04082C13D10B680C68C3F383439B1CE4031E
:2012C00003D4DFF82843634306E08C6A04F00F04641CB2FBF4F463431C4600E014460460B1
:2012E0000D68DFF80C43C5F303152D5D076827FA05FCC0F804C00E68C6F30226365D2CFADC
:2013000006F686600E68C6F3C226365D2CFA06FEC0F80CE0D1F828C0CCF3041C0CF00F0ECA
:2013200004EB4E0E5FEACC6CBEF810E004D5BEF1000F18BFB3FBFEF707618F6AC7F34427A4
:2013400007F00F0C04EB4C04FF06248A03D514B1B3FBF4F400E004684461CC6AE40654BF32
:20136000144604688461CC6AA40654BF14460468C461CC6A640654BF1446046804625C00A9
:20138000CF6AFF0505D507689F4204BFAE42274600D0C7684762CF6AFF0405D507689F42B8
:2013A00004BFAE42274600D0C7688762CF6ABF0505D507689F4204BFAE42274600D0C768DF
:2013C000C762CF6A7F0505D507689F4204BFAE42274600D0C768C764CF6A3F0505D50768ED
:2013E0009F4204BFAE42274600D0C7680765CF6ABF0405D507689F4204BFAE42446501D02E
:20140000C7680765CF6A3F0404D507689F4208BFAE4200D0C46884654FF40043CC6A14F030
:20142000030F08BF846805D0CC6A04F00304012C02D1046884630CE0CC6A04F00304022C43
:2014400008BF836305D0CC6A04F00304032C08BF8263CC6A14F4403F08BF846806D0CC6A82
:2014600004F44034B4F5803F02D10468C4630EE0CC6A04F44034B4F5003F08BFC36306D0F7
:20148000CC6A04F44034B4F5403F08BFC263CC6A14F4402F08BF846806D0CC6A04F44024CE
:2014A000B4F5802F02D1046804640EE0CC6A04F44024B4F5002F08BF036406D0CC6A04F4A3
:2014C0004024B4F5402F08BF0264CC6A14F4401F08BF846806D0CC6A04F44014B4F5801F73
:2014E00002D1046844640EE0CC6A04F44014B4F5001F08BF436406D0CC6A04F44014B4F55E
:20150000401F08BF4264CC6A14F4400F08BF816806D0CC6A04F44004B4F5800F02D1016806
:201520008164F0BDCC6A04F44004B4F5000F01D18364F0BDC96A01F44001B1F5400F08BF64
:201540008264F0BD2B4A0029116814BF084321EA000010607047284A0029116814BF08435F
:2015600021EA000010607047244A0029116814BF084321EA0000106070474109124A08BF6C
:20158000116807D0012908BF116A03D004290CBF5168516A00F01F0021FA00F202F0010041
:2015A00070471748016841F0807101607047154A12680021024218BF0121084670471249DB
:2015C00008707047000000000010024000C0FFF8FFFFF6FECCEC000F021002400410024070
:2015E000600042424C00424200127A0000093D000400002014100240181002401C10024003
:2016000024100240081002400A100240024A1140084302490860704780FFFF1F08ED00E0DA
:20162000DFF8C4100A68920840EA820008607047DFF8B800C168090605D5DFF8B41001608B
:20164000DFF8B0100160704738B5044600F035F8042810D1DFF8A050286840F00200286069
:201660006C60286840F04000286000F026F8296821F00201296032BD70B582B00646002028
:2016800000900C4600F019F8042814D11A4D286840F001002860348000F00FF8042806D1F8
:2016A000B01C0090200C0099088000F006F8296849084900296076BD20604FF430201FE09A
:2016C0000E49086070470D490A680420D20701D5012070470A68D20601D5022070470968B7
:2016E000490748BF03207047002002400420024023016745AB89EFCD102002400C20024051
:2017000010B50446FFF7DFFF03E02CB1FFF7DBFF641E0128F9D004B9052010BDF0B500226C
:2017200001230C6893401C409C4228D154000325A5400E79ED43012E18BF022E10D18668EE
:201740002E40866086684F79A7403E438660868826EA0303838083888E79964033438380A9
:2017600003682B40036003680E79A64033430360C3682B40CD7905FA04F42343C360521CB5
:20178000102ACDD3F0BD10B5CB0800EB830001F007018900036A0F248C40A343036202FA87
:2017A00001F1036A1943016210BD000009490860704709490860704708490860704705499E
:2017C0004AF6AA200860704702494CF6CC40086070470000003000400430004008300040CC
:2017E000401810F0030308D0C91A1FD3DB0748BF00F8012D28BF20F8022D130030B4144650
:201800001546103928BF20E93C00FAD8490728BF20E90C0048BF40F8042D890028BF20F8E2
:20182000022D48BF00F8012D30BC7047C91818BF00F8012DCB0728BF00F8012D7047000035
:2018400010B5414C2078C00706D500F011F820884FF6FE71084020802088C0F3400030B143
:2018600000F01AF820884FF6FD710840208010BD3648016811F1010F1CBF491C0160344840
:20188000018841B1491E018089B221B92E48018841F020010180704738B52E48C16864292E
:2018A00002D2491CC16006E0002101704FF6FF7101810021416042F225022748274900889B
:2018C0000240252A3BD10A78012A36D1244C2278002A38D18A780A2A35DA4B785B1C4B7040
:2018E000DBB20A2B2FDB521C8A7000231D4D4B7052222A70287150226A70000AC322AA7070
:2019000068710D22EA70C87840F08000A87116480068E871010A2972010C000E6972A87287
:2019200029460B20FFF73CF810480078E8721048007828730D20207031BD002001E0002082
:2019400008704870887031BD94130020A4130020D61300207813002098130020A013002081
:20196000DD1300204C110020AC130020E5130020E413002000C1814001C0804101C0804146
:2019800000C1814001C0804100C1814000C1814001C0804101C0804100C1814000C1814037
:2019A00001C0804100C1814001C0804101C0804100C1814001C0804100C1814000C1814017
:2019C00001C0804100C1814001C0804101C0804100C1814000C1814001C0804101C08041F7
:2019E00000C1814001C0804100C1814000C1814001C0804101C0804100C1814000C18140D7
:201A000001C0804100C1814001C0804101C0804100C1814000C1814001C0804101C08041B6
:201A200000C1814001C0804100C1814000C1814001C0804100C1814001C0804101C0804196
:201A400000C1814001C0804100C1814000C1814001C0804101C0804100C1814000C1814076
:201A600001C0804100C1814001C0804101C0804100C1814000C0C101C30302C2C60607C736
:201A800005C5C404CC0C0DCD0FCFCE0E0ACACB0BC90908C8D81819D91BDBDA1A1EDEDF1F36
:201AA000DD1D1CDC14D4D515D71716D6D21213D311D1D010F03031F133F3F23236F6F73716
:201AC000F53534F43CFCFD3DFF3F3EFEFA3A3BFB39F9F83828E8E929EB2B2AEAEE2E2FEF76
:201AE0002DEDEC2CE42425E527E7E62622E2E323E12120E0A06061A163A3A26266A6A76756
:201B0000A56564A46CACAD6DAF6F6EAEAA6A6BAB69A9A86878B8B979BB7B7ABABE7E7FBFB5
:201B20007DBDBC7CB47475B577B7B67672B2B373B17170B050909151935352929656579795
:201B4000559594549C5C5D9D5F9F9E5E5A9A9B5B99595898884849894B8B8A4A4E8E8F4FF5
:201B60008D4D4C8C448485458747468682424383418180403648374A82B0016841F470013B
:201B800001603548016841F001010160416811404160324A016811400160314A016821F43F
:201BA00080210160416821F4FE014160C16A09090901C162016B11400163002181600191A6
:201BC0000091016841F480310160016801F4003100910199491C0191009919B90199B1F568
:201BE000A04FF2D10168490C01F0010100910099012926D11B4A122111604168416041683B
:201C00004160416841F480614160416821F47C114160416841F4E8114160016841F08071D4
:201C2000016001688901FCD54168890889004160416841F002014160416801F00C010829C5
:201C4000FAD14FF000600849086002B07047000088ED00E00CC07FF800100240FFFFF6FE1C
:201C6000CCFC00FF0020024008ED00E080B58020FFF79DFC00B1FEE701BDFEE7FEE7FEE7FF
:201C8000FEE770477047704780B500F027F8FEF77BFABDE80140FEF72EBB80B50820FFF775
:201CA00086FC48B10820FFF78AFC1120FFF765FC10B10120FFF7C8FA1020FFF778FC58B140
:201CC0001020FFF77CFC1920FFF757FC20B1BDE802400220FFF7C0BA01BD704730B51348E5
:201CE000134A0188134C6431018013480188643101801248018813882588491C5B1C6D1CFF
:201D000089B2258064290E4C04DB258845F00105002125809BB2B3F57A7F018004DB208879
:201D200040F0020000232080138030BDC4130020C0130020CA130020C61300204A110020D3
:201D40009413002010B450F8041B79B10268436812180830DC0744BFA9F10104E31852F826
:201D6000044B43F8044B091FF9D1ECE710BC704710B5074979441831064C7C44163404E0E7
:201D80000A68081D511888470146A142F8D110BD2C0000004C0000004EF68851CEF200015E
:201DA000086840F470000860BFF34F8FBFF36F8F4FF00070E1EE100A70470000FBEFFFFF30
:201DC000A0130000480000200000000079FFFFFF44000000600100000400002000000000A9
:201DE0000120C046002801D0FFF7C2FF0020C046C046FEF7FAFF00F000F800F001B8000061
:201E00000746384600F002F8FBE700002021090326311820ABBEF9E7014880470148004766
:201E2000751B0008291E0008C046C046FFF7B4FFFFF7D6FFFFF7FEBFFFF7FEBFFFF7FEBF22
:201E4000FFF7FEBFFFF7FEBFFFF7FEBFFFF7FEBFFFF7FEBFFFF7FEBFFFF7FEBFFFF7FEBFEA
:201E6000FFF7FEBFFFF7FEBFFFF7FEBFFFF7FEBFFFF7FEBFFFF7FEBFFFF7FEBFFFF7FEBFCA
:201E8000FFF7FEBFFFF7FEBFFFF7FEBFFFF7FEBFFFF7FEBFFFF7FEBFFFF7FEBFFFF7FEBFAA
:201EA000FFF7FEBFFFF7FEBFFFF7FEBFFFF7FEBFFFF7FEBFFFF7FEBFFFF7FEBFFFF7FEBF8A
:201EC000FFF7FEBFFFF7FEBFFFF7FEBFFFF7FEBFFFF7FEBFFFF7FEBFFFF7FEBFFFF7FEBF6A
:201EE000FFF7FEBFFFF7FEBFFFF7FEBFFFF7FEBFFFF7FEBFFFF7FEBFFFF7FEBFFFF7FEBF4A
:201F0000FFF7FEBFFFF7FEBFFFF7FEBFFFF7FEBFFFF7FEBFFFF7FEBFFFF7FEBFFFF7FEBF29
:201F2000FFF7FEBFFFF7FEBFFFF7FEBFFFF7FEBFFFF7FEBF0000000001020304010203040E
:201F400006070809010002000400060008000A000C00100020004000800000010000000047
:201F6000000000000000000000000000010203040607080900A24A04FFFFFFFFFFFFFFFF51
:201F8000FFFFFFFFFFFFFFFFFFFFFFFFFFFFFFFFFFFFFFFFFFFFFFFFFFFFFFFFFFFFFFFF61
:201FA000FFFFFFFFFFFFFFFFFFFFFFFFFFFFFFFFFFFFFFFFFFFFFFFFFFFFFFFFFFFFFFFF41
:201FC000FFFFFFFFFFFFFFFFFFFFFFFFFFFFFFFFFFFFFFFFFFFFFFFFFFFFFFFFFFFFFFFF21
:201FE000FFFFFFFFFFFFFFFFFFFFFFFFFFFFFFFF0300000000000000000000000001FDFEF2
:20200000FFFFFFFFFFFFFFFFFFFFFFFFFFFFFFFFFFFFFFFFFFFFFFFFFFFFFFFFFFFFFFFFE0
:20202000FFFFFFFFFFFFFFFFFFFFFFFFFFFFFFFFFFFFFFFFFFFFFFFFFFFFFFFFFFFFFFFFC0
:20204000FFFFFFFFFFFFFFFFFFFFFFFFFFFFFFFFFFFFFFFFFFFFFFFFFFFFFFFFFFFFFFFFA0
:20206000FFFFFFFFFFFFFFFFFFFFFFFFFFFFFFFFFFFFFFFFFFFFFFFFFFFFFFFFFFFFFFFF80
:202800002011002055780008C96D0008DF6D0008E16D0008E36D0008E56D000800000000F8
:20282000000000000000000000000000E76D0008E96D000800000000EB6D0008ED6D00081C
:202840007178000875780008797800087D78000881780008F16D0008857800088978000827
:202860008D7800089178000895780008316E0008997800089D780008A1780008A578000802
:20288000A9780008AD780008B1780008B5780008B9780008BD780008C1780008C578000880
:2028A000C9780008CD780008D1780008196F0008F56F0008D5780008D9780008DD7800082A
:2028C000E1780008E5780008E9780008ED780008F1780008F5780008F9780008FD78000880
:2028E0000179000805790008097900080D7900081179000815790008197900081D79000858
:202900000000000000000000000000002179000825790008297900082D7900083179000865
:2029200035790008397900083D790008417900084579000849790008000000000000000017
:202940004D7900085179000855790008000000000000000000000000000000000000000001
:202960000000000000000000597900085D79000861790008000000000000000000000000BD
:20298000000000006579000850F8041B61B150F8042BD30744BFA9F101039A180023091FE9
:2029A00042F8043BFAD1EFE77047000004494AF6AA200860704702494CF6CC400860704718
:2029C00000300040044A0029116814BF084321EA0000106070470000000001407047FFFF51
:2029E000FFFFFFFFFFFFFFFFFFFFFFFFAA55FFFFFFFFFFFF4C70F07C0FC03F010022761902
:202A0000030200010F01802500280008FF7F0008082014FF5E0463C1F80FF007FE00000088
:202A20002014FFFFFFFFFFFFDFF8D0124FF4005008804021DFF8C802016080210160DFF858
:202A4000C402417801F0FE014170017801F0F90101707047DFF8B402007F81B0ADF80000E8
:202A6000BDF80000012805D1DFF8A4124FF40050086011E0BDF80020DFF884024FF4006153
:202A8000022A08BF016007D0BDF80020DFF880324FF400521A820182DFF878020168491CDA
:202AA00001600168B1F57A7F05D295494FF48070086001B070470168B1F5FA6F05D29049CD
:202AC0004FF48070088201B070470021016001B07047F0B49148924A008892490006400FD6
:202AE00000F001005070137854788F48A34205D05378002B1ABF00230B80038053781370EF
:202B000056788A4B0A8805881C88FEB15DB1072D09DA0B2C05DB7C4EB76847F00107B76025
:202B200007E0641C05E0784EB46864086400B460002441F28936B24206DB734E756845F4C1
:202B40008005756000251EE0521C1CE05AB1072A09DA0B2C05DB6C4EB76847F00107B76029
:202B600007E0641C05E0684EB46864086400B4600024654E776827F48007B5F5FA7F776001
:202B8000B4BF6D1C00221C8005800A80F0BC704738B5DFF8C808DFF8C85801885A4C491CEA
:202BA000018063482A8801881143018041F270722878DFF8B01800F0FE002870606820F423
:202BC0000000606009885448914201DB018869B14B4A4FF4807111604C49898B01F47F411E
:202BE000B1F5B44F0CBF012100210180FFF771FF50480188491C018089B2B1F5167F0FDBD0
:202C00000021018000204C4908804C4908804C4908804C4908800220216860F38711216067
:202C200040F67462484801886431018089B2914206DB0021018001221021444801F0FEF900
:202C400000F088F8288818B930488278D00923D0DFF814183E4B4CF25030088049F64041B3
:202C6000606820F4002060601980C00F02D00020188031BD21494FF400500880402020496A
:202C80000860802008601F48417801F0FE014170017801F0F9012DE02D4B1A481D881849B2
:202CA000D5B16A1E1A804CF25032DFF8BC371A806268124B22F4002262604FF400521A80F8
:202CC00040220A6080220A60417801F0FE014170017801F0F9010DE0C2F340022AB18022FD
:202CE0000A82017841F0020104E080220A60017801F0FD01017031BD00000000280800486C
:202D000018040048F40A0020D80A00201809002018080048E00B0020480C002010040048AB
:202D20000C0D00203E0C0020400C0020420C0020FC0A0020D80B0020FE0B0020F80B0020A1
:202D4000FA0B0020FC0B0020DA0B0020002C0140EC0C00202DE9F84FDFF80C07DFF8001768
:202D60000288098811B14CF2503201E002B1521E0280DFF8F83DDFF8F42DDFF8F44D12887A
:202D8000DFF8F05D521C1A80DFF8EC3DDFF8E82D1288521C1A80DFF8E43DDFF8E02D128803
:202DA000521C1A80DFF8D83DDFF8D42D1288521C1A80DFF8D02D13885B1C13802268C2F3ED
:202DC000C06343BBDFF8C03D9B78C3F3401313B303880B431FD14FF4804028834FF4004022
:202DE0002883DFF8A81D206840F0006020604FF400500860DFF8980D417841F001014170E0
:202E000040212983017841F004010170606840F40020606023E0DFF8703D9B78DE070BD54A
:202E200006880E4308D140202883DFF8640D017841F00401017012E0C3F3401313B1008820
:202E400008430CD022F000602060606820F080006060DFF83C0D417801F0FE0141706068FF
:202E6000DFF8F41D400040086060098891B1DFF8181D898B01F47F41B1F5B44F0AD1FFF700
:202E8000E9FD606840F000406060402028838020288320E0DFF8C8150988E1B120F40020F3
:202EA0002168606021F00061216020F0800060604FF40050DFF8D41C08824020A86080209A
:202EC000A860DFF8CC0C417801F0FE014170017801F0F9010170DFF8840DDFF8841D0088A4
:202EE0000988401C80B28142DFF8701D38BF002008802888400404D5DFF8681D0888401CD8
:202F000008802888000404D5DFF85C1D0888401C0880DFF8581D0888421CDFF86C0C807857
:202F2000C0F38003002B1EBF6668C6F3C046002E05D092B241F28836B2420DDB04E092B28A
:202F40004EF66026B24207DB6668DFF8247D46F48016002266603A800A80DFF808251288F1
:202F6000C82A03DB00F04802082A12D000200880DFF8E81408800120DFF8F81C08704FF469
:202F8000804028834FF4004028830020DFF8E81CF0E0DFF8E01C0A7842B1002008704FF4AA
:202FA000804028834FF40040A860E4E0DFF8B41C0A88052A0BDBDFF8A424002010804FF477
:202FC000804028834FF40040A8600020D2E0DFF8981C0A88052A0BDBDFF8802400201080CC
:202FE0004FF48040A8604FF4004028830020C1E0DFF8881CDFF8785C0A882E881146B1F56C
:20300000E15FBEBFDFF8787C3F88B7F5E15F16DA761C002B1EBF6368C3F3C043002B05D067
:20302000B6B241F288339E420ADB04E0B6B24EF660239E4204DB636843F4001363600026A5
:203040002E80DFF8403C1D88A7686E1CC7F30015ADB36FF4B459DFF8305C42F2FF7E19FA6B
:2030600082F8F045B5F900C03FBFDFF8148CB8F8008019FA88F9F14513D2DFF810CCA2EB9F
:203080000802ACF80020A1EB0801DFF804CCDFF8042CBCF900C00CFB01F11160B2F9021083
:2030A00001E04FEA6C01B6B20A2EA4BFDFF8E81BB1F900102980002627F01001A1602422B4
:2030C00010421E80DFF8D41B31D1088847F23052904202DA401C088031E0DFF8AC5BDFF895
:2030E000C00BB5F90020016801FA82F5DFF8B41B05600A88521C0A8092B2B2F5804F1EDB14
:20310000DFF8902BAD001560B2F90220DFF8885B2A80FA326568B2F5FA7F8CBF45F480426B
:2031200025F48042626000220A80026007E000200880DFF8701B0880DFF8641B0860DFF8D6
:20314000480BDFF8541B00880988401A19880A29DFF8241BA8BF00200880B1F90000B0F51B
:203160007A7FC8BF4FF47A7004DC10F57A7F02DADFF8340B0880DFF8001BDFF8302BB1F97C
:203180000000DFF8281BB2F90020B1F90010411A821A02FB01FADFF8181BDFF8186BDFF866
:2031A000188BC1F800A0DFF8141B0A6882180A60DFF80C2B136853441360DFF8083B1D8845
:2031C0006D1C1D803768C7193760DFF8FC7AD7F800C0D444C7F800C0DFF8F0CABCF800E01B
:2031E0000EF1010EACF800E0D8F800904844C8F80000DFF8DC9AD9F800005044C9F800001E
:20320000DFF8D0AABAF8000000F1010BDFF84C0AAAF800B0008805280FD10E68DFF8B87A1B
:203220003E601668DFF8B47A3E60DFF8B46A358000250D6015601D802AE0462811D131688E
:20324000DFF8942A11603968DFF8902A1160DFF8901AA1F800E0002131603960ACF80010CC
:2032600016E08C2818D1D8F80010DFF86C2A1160D9F80010DFF8642A1160DFF8641AA1F858
:2032800000B00021C8F80010C9F80010AAF80010616841F480216160DFF8D01809883229FF
:2032A00007DBDFF8C82800211180216841F001012160DFF8CC180988642907DBDFF8C028FC
:2032C00000211180216841F002012160DFF8A8180988B1F5FA7F07DBDFF89C280021118088
:2032E000216841F00401216041F28832DFF88C180988914207DBDFF8842800211180216822
:2033000041F008012160DFF8DC19D1F800C0DFF8D819D1F800E0DFF8D419D1F80080DFF848
:20332000D019B1F800904F4909886529C0F29E80DFF854289278C2F34002002A40F0968020
:20334000DFF8B029B2F90030DFF8AC29156805FA83FBDFF8A839C2F800B009F10109B3F96A
:203360000050DFF89C391E6806FA85F5DFF894691D601FFA89F9B6F90070DFF88C69D6F8AC
:2033800000A00AFA87F7DFF884A93760B9F1000FBAF900A0D444DFF878A9BAF900A0D644E7
:2033A000DFF870A9BAF900A0D0446DD1DFF868A94FEA1B4BAAF800B02D0CDFF860B9ABF8D3
:2033C00000503F0CDFF858592F804FEA1C4CDFF85479A7F800C04FEA1E4EDFF84CC9ACF842
:2033E00000E04FEA1848DFF844E9AEF8008040F2F118BAF800A0AAF5E16AC2453EBFBBF8FC
:2034000000A0AAF5E16AC24515D22D88A5F5E16545453EBF3D88A5F5E16545450BD2BCF858
:203420000050A5F5E16545453EBFBEF80050A5F5E165454504D30A4D2D7845F0100503E065
:20344000074D2D7805F0EF05054F3D70002535601D601560A846AE46AC4615E0DC0B00200D
:20346000F80A0020820C0020040D0020DFF8983800221A609046DFF888381A609646DFF86E
:20348000783894461A609146DFF86428DFF8F876DFF89C38A2F80090DFF85028C2F800804B
:2034A000DFF84428C2F800E0DFF83828C2F800C0BF78DFF880281D681668C7F3401CBCF102
:2034C000000F6CD133296ADBC7F3C001002966D0DFF8BC160978C1F3800100295FD1DFF896
:2034E0005878DFF858C8398801F1010EDFF85018A7F800E0B1F90010DCF8008008FA81F103
:20350000DFF84088CCF800101FFA8EFEB8F900804644DFF83488B8F90080454447F6FF78D7
:20352000C6453CD1DFF824E8DFF82488C90BAEF80010F60BDFF81C180E80ED0BA8F8005001
:20354000002600253D80CCF8005040F2E137BEF800C0ACF5C26CBC453EBF0988A1F5C26178
:20356000B9423EBFB8F80010A1F5C261B9420CD3DFF8E417DFF8E077097841F02001397084
:203580004FF47A71DFF8D4773980216841F480412160C1F3404717B941F4006121601D6083
:2035A0001660DFF85027DFF87057B2F90030B5F90010DFF86867DFF870C7DFF870E7591ABB
:2035C000DFF838371180B3F90050B6F90020DFF83467AA1ADFF848571A80B6F90070B5F936
:2035E0000030FB1A3380DFF82467DFF838773588B7F90070ED1BDFF8187735803E88BCF970
:2036000000C0A6EB0C06DFF80CC73E80BCF80070BEF900E0A7EB0E07ACF8007009B2DFF8D7
:2036200040C7DCF800C011FB01C1DFF834C7CCF8001012B2DFF82C17096812FB0211DFF835
:20364000242711601BB2DFF82017DFF81C27096813FB031111602DB2DFF81017DFF81027CA
:20366000B1F800C0136813FA8CF3136036B25368B1F802C013FA8CF353603FB29368B1F885
:2036800004C013FA8CF39360B1F806C0D36813FA8CF3D360B1F808C0136913FA8CF3136191
:2036A000B1F80AC0536913FA8CF35361B1F80CC0936913FA8CF39361C989D36913FA81F19D
:2036C000D161DFF8B036DFF8AC16096815FB05111960DFF8A436DFF8A456196816FB061127
:2036E0001960DFF89C66296817FB07112960DFF89476DFF88C160988491C3180DFF888666E
:20370000DFF8881609883180DFF8846636883E80DFF88076B7F800C00CF1640CA7F800C0AD
:203720001FFA8CFC614558D2DFF86CE6BEF800804644B6B2ACEB010C8E4224BF761AACF143
:20374000010CAEF80060A7F800C0DFF85016DFF850C60E88DFF84C76761CB6B2402EA8BFCF
:2037600000260E800E88DFF8D815DCF800E0B1F9001037F916800EFA81FEAEEB080ECCF80D
:2037800000E0DFF8C0C5DFF82086DFF820E6BCF900C0D8F800903EF916A009FA8CF9A9EBB5
:2037A0000A09C8F80090DFF8A085DFF804A6DFF80496B8F90080DAF800A039F916B00AFA19
:2037C00088FAAAEB0B0ADFF8E8B5CBF800A027F816102EF816C029F81680502837D1DFF897
:2037E0008005DFF8D41500680860DFF8D015DFF8740500680860DFF8C815DFF86C05006874
:203800000860DFF8C015DFF86C0500680860DFF8B81518680860DFF8B41528680860DFF881
:20382000B015DFF85C05008808800020DFF850150880DFF834150860DFF828150860DFF8BC
:203840002015086028601860DFF828150860DFF884050188643189B2B1F5FA6F16DBDFF8BF
:203860004035DFF87455216841F48031216000211B682B60DFF86455DFF82C351B682B603E
:20388000DFF85C55DFF828351B682B600180DFF854050188491C018089B2FF2922DD236851
:2038A00043F0100323601468DFF83C351C6054685C6094689C60D468DC6014691C61546960
:2038C0005C6194699C61D469DC61DFF8203519800021018051601160D160916051611161E8
:2038E000D16191610120DFF8081508704FF0A04000F08DFCBDE8F14F2DE9F047DFF8F4740E
:20390000DFF8F44438889A4D47F230518842BCBF6430388020888842BCBF64302080DFF8AE
:20392000DC0401884EF66022914202DA491C018028E0002101809448817801F0D801817089
:203940004CF25030DFF8B814088049F64040DFF8B41408806868DFF8B01420F40020686031
:203960004FF4005008804021DFF8A0040160802101608748417801F0FE014170017801F05A
:20398000F9010170DFF88894DFF8886499F8000000284DD0A868DFF880844FF4805AC0F375
:2039A0008000F8B9A8F818A040F23F39B8F80000400504D54946304600F0CBFC48B1002031
:2039C0003880494630460162C046304600F0B8FC5AE03888B0F5FA6F56DDA86840F0040028
:2039E000A86051E0C8F808A0002040213880304600F0AFFCDFF8247410B93878002843D1B8
:203A0000387899F8001088420BD201464A2908DA401C3870DFF80804095C304600F08CFCD8
:203A200032E0A8F818A0002089F8000038702BE02021304600F08DFC58B32868C0F34020EA
:203A400038BB3880A86820F00400A860304600F077FCDFF8D0130A784A2A134613DADFF8E9
:203A6000C8635B1CDBB29055012B04D13078502809D0002307E0022B05D17078FF281EBF3F
:203A80005228002333700B70DFF8A013002008802BE03888B0F5FA6F27DDDFF8881308786A
:203AA000042809DBE04AD278904205D3E04A1070286840F40070286000203880DB4EA86861
:203AC00040F00400A860002008704FF48050D249088341F288313088401C308080B28842AD
:203AE00003DB00F0F2FD00203080D24FD24E3878002853D0A868C0F34000E8B9C6480088C3
:203B0000000740F23F3704D53946304600F021FC48B100202080394630460162C04630468E
:203B200000F00EFC5EE02088B0F5FA6F5ADDA86840F00200A86055E000204021208030464A
:203B400000F007FCBD4C10B9207800284AD12078397888421ED2014628291BDA401C207049
:203B6000B748095C304600F0E7FB3BE0E80B0020D80A002010040048EA0B0020EC0B0020E1
:203B8000EE0B0020840C00201809002018080048F40A002000203870207023E02021304683
:203BA00000F0D7FB18B32868C0F38020F8B92080A86820F00200A860304600F0C1FBA1490E
:203BC0000A78282A13460CDA9F4C10555B1C2078512805D1DBB2022B03D16078202800D0A6
:203BE00000230B70994900200880BDE8F08740F23F373946304600F0ACFB50B1002020808C
:203C0000394630460162C0463046BDE8F04700F097BB2088B0F5FA6F1BDD8A490878202869
:203C200003DB286840F48060286000200870208041F28831A868854C40F00200A860208893
:203C4000401C208080B2884203DB00F055FD00202080BDE8F08700BF480C00200C0C002005
:203C60000E0C0020C80C0020CA0C0020C40C0020C60C0020180D0020920C00208E0C002081
:203C80008C0C0020A00C00200A0D00209E0C0020900C0020000B00209C0C0020980C00202C
:203CA000500B00209A0C002018FCFFFFAA0C0020540B0020680B00206C0B0020640B0020A3
:203CC000580B0020A20C00205C0B0020A40C0020600B0020A60C0020740B0020700B0020A5
:203CE000A80C0020800B0020840B0020880B00201C0C0020240C0020140B0020260C0020BA
:203D0000180B0020280C00201C0B00202A0C00202C0C00202E0C00201E0C0020200C002027
:203D2000220C0020EE0C0020F00C0020F20C00204C0B0020480B0020540C0020440B002008
:203D4000300C0020320C0020340C00204C0C0020500C00204E0C0020F80A0020520C00203B
:203D60008C0B0020940B00209C0B0020A80A002098090020A40B0020A80B0020AC0B0020FA
:203D8000E00C0020180C0020140C0020100C0020120C0020160C00201A0C0020060D00205E
:203DA000C00B0020B0050020C40B002030060020C80B0020B0060020900B0020980B0020B7
:203DC000A00B0020B00B0020B40B0020B80B0020E20C0020DE0C0020CC0B0020D00B002071
:203DE000D40B0020C00C0020B8090020C20C00200F0D0020780C00207C0C00207E0C0020D7
:203E0000040D0020EC0C00202808004818040048110D00200038014010000048100D002031
:203E200030070020130D00207C0700207A0C0020140D0020160D002000440040150D002058
:203E4000C8080020170D0020F0080020800C002010B4DFF8A820038890421CBFDFF8B04008
:203E6000A0420ED0B0F1804F1CBFDFF89440A04207D0DFF89040A0421CBFDFF8A440A042D2
:203E800004D14FF68F7423404C882343DFF87840A0421CBFDFF87440A04204D04FF6FF4453
:203EA00023400C892343038090424B68C3621CBFDFF85C2090420B8803850FD0DFF8542032
:203EC00090421CBFDFF85020904207D0DFF84C2090421CBFDFF84820904201D14989018619
:203EE0000121416110BC70470029018812BF41F001014FF6FE72114001807047002C01401A
:203F000000040040000800400010004000140040003401400040014000440140004801406D
:203F200000500140F0B44B888A880C890D88CDB9056A6D086D0005628569066A25F0F30594
:203F40002A4342EA0412826126F00A021A4342F001020262C988826922F00C02826182698D
:203F6000114320E0042D21D1056A4FF6EF76354005621B018569066A25F4734545EA043423
:203F800044EA0222826143F010034FF65F7232409BB21A430262C988826922F44062826139
:203FA000826942EA01218161F0BC7047082D056A1FD14FF6FF66354005624FF60C77C56973
:203FC000066A3D402A4342EA041292B2C2614FF2FF52324042EA032242F4807292B20262B9
:203FE0004FF6F373C988C2691A40C261C269114321E04EF6FF763540056240F6FF47C5695E
:20400000066A3D4045EA022242EA043292B2C26145F6FF72324042EA033242F4805292B2CC
:2040200002624FF2FF33C988C2691A40C2610906C26942EA1141C161F0BC7047002AC2681F
:2040400011BF1143C94389B21140C16070470369C068002208409BB20B421CBF002801220E
:204060001046704700BFC94389B2016170470000C268DFF8D8311A400B681A434B681A43D0
:204080008B681A43CB681A430B691A434B691A438B691A43C260026B097F1209491E41EA49
:2040A0000211016370470021016041608160C160016141618161012101777047B0F1A04FE6
:2040C00010B41BBFDFF880219042DFF88421DFF88421DFF8843112684C681A400B68234313
:2040E0008C682343CC68097C43EA043343EA01211143B0F1A04F1BBFDFF84C219042DFF84F
:204100005001DFF85001016010BC70470029816814BF41F0010141F0020181607047816875
:2041200041F0004181607047826822F0804282608268114381607047826822F0405282608F
:204140000029816814BF41F0805141F000518160704770B41F25052A0BDA02EB420672003B
:20416000066B954026EA050501FA02F22A43026329E00A2A0CDA521F02EB42067200466B32
:20418000954026EA050501FA02F22A4342631AE00F2A0CDA0A3A02EB42067200866B954065
:2041A00026EA050501FA02F22A4382630BE00F3A02EB42067200C66B954026EA050501FAAE
:2041C00002F22A43C2630A290FDB826982690A3901EB410107248C40A243826103FA01F147
:2041E00082691143816170BC7047426942694D1E382405EB4505AC40A243426101EB4101C2
:20420000426903FA01F11143416170BC7047816841F00401816070470029C16812BF41F020
:20422000010149084900C1607047C26822F00202C260C2681143C16070470068002208427E
:2042400018BF0122104670470001005007C0FFFD0803005008070050E010FCFF30B504466F
:2042600097B020684008400020600D466068A96820F440500843606024492068084069687E
:204280000843E9680843296908432060A068696920F440700843A06000A800F048FC1748B6
:2042A000844208BF0E980ED01548844208BF0F9809D01448844208BF109804D012488442FE
:2042C0000CBF1198129829682268120448BF4000B0FBF1F201FB1200B0EB510F206828BF42
:2042E000521C000406D54FF6F0701040C2F3420141EA0002A28117B030BD00000038014007
:204300000044004000480040004C0040F3E9FFFF42680B6822F470621A434B681A438B68C6
:20432000C9681A4312E00029016812BF41F001014908490001607047C905C90D01857047D4
:20434000808CC005C00D704742604268114341607047C0690022084218BF01221046704774
:2043600000B597B000F066FB012000F087FB00F08BFB012842D1002000F0C4FB4FF4A06099
:2043800000F0C6FB002000F0C9FB4FF4987000F026FD022000F090FD012000F095FD4FF4B5
:2043A000E0114FF4803000F084FB002000F090FB012000F089FB192000F03BFD0028FAD027
:2043C000022000F091FB00F097FB0828FBD100A800F0ADFB012000F083FB0121DFF81C06D7
:2043E00000F01EFD01214FF4904000F010FD0121DFF80C0600F002FD17B000BDFEF7DBFA38
:20440000FEE710B582B04FF420514FF0006000F021FE4FF4806000F0E9FD1B208DF80000A5
:2044200001208DF801008DF802008DF8030000A800F0E1FD1C208DF8000001208DF80100E8
:2044400000208DF8020001208DF8030000A800F0D2FD0B208DF8000002208DF8010000202D
:204460008DF8020001208DF8030000A800F0C3FDDFF890050178481EDFF88C150A68C2F3CA
:2044800002228041C2F10703052B28BF0F2304D20123C2F10704A3405B1E141D072C34BFC6
:2044A0000022D21E03EAD07090400001C87513BD1CB540F20C60009000A903208DF805008A
:2044C00002208DF8040000208DF8060001208DF807004FF0904000F0D1FD4FF400600090D9
:2044E00000A903208DF8050002208DF804000020ADF806004FF0904000F0C0FD07220921E1
:204500004FF0904000F0F2FD07220A214FF0904000F0ECFD072202214FF0904000F0E6FD43
:20452000072203214FF0904000F0E0FD0B220B214FF0904000F0DAFDF320009000A90320B4
:204540008DF804004FF0904000F098FD4FF48070009000A903208DF8050001208DF804007B
:204560000020ADF806004FF0904000F087FD4FF48050009000A901208DF8040000208DF852
:20458000060003208DF8050000208DF807004FF0904000F073FD4FF40040009000A9002071
:2045A0008DF804008DF8060003208DF8050000208DF807004FF0904000F060FDDFF84C44CB
:2045C000C02120468161C0464FF48060009000A903208DF8050002208DF8040000208DF853
:2045E000060002208DF80700204600F047FD01220A21204600F07AFD4FF6CC10009000A9F8
:2046000003208DF8050001208DF804000020ADF80600204600F032FD032000908DF80400B7
:2046200000A9204600F02AFD3020009000A903208DF8050000208DF80400ADF80600204664
:2046400000F01CFD4FF46040009000A903208DF8050001208DF804000020ADF80600DFF83C
:20466000B00300F00BFD13BD30B58BB0002005900690079009904FF496440C200890002023
:20468000009001904FF40070029000200390049404A9E24D2846FFF7E1FD00A92846FFF73E
:2046A00037FE01212846FFF73EFE049404A9DC4C2046FFF7D3FD00A92046FFF729FE01211C
:2046C0002046FFF730FE0BB030BD10B58AB0002005900690079009900C20089000200090BA
:2046E00001904FF400700290002003904FF49640049004A9C94C15E010B58AB00020059019
:204700000690079009900C2008900020009001904FF400700290002003904FF49640049029
:2047200004A9BF4C2046FFF799FD00A92046FFF7EFFD01212046FFF7F6FD0AB010BD10B521
:204740008CB00121012000F059FBB64C204600F0E1FCB548009000A9B448019000200290EC
:204760000B20ADF80C0000200490802005904FF4807006904FF480600790202008904FF4D6
:204780000050099000200A90204600F02BFD01220221204600F04BFD0121204600F03DFD62
:2047A0000CB010BD00B58DB04FF4807000F017FB01214FF0805000F021FB00A8FFF773FCFF
:2047C00001214FF0A040FFF7B7FC00214FF0A040FFF7AAFC4FF0A040FFF7A1FC00200890A9
:2047E000099008A94FF0A040FFF768FC0020009001900290039004900590069000A90B20FD
:204800008DF81C004FF0A040FFF732FC0323012201214FF0A040FFF79CFC022203231146FB
:204820004FF0A040FFF795FC0323042205214FF0A040FFF78EFC032306220A214FF0A04029
:20484000FFF787FC032307220F214FF0A040FFF780FC032309220B214FF0A040FFF779FCC8
:2048600003230A220C214FF0A040FFF772FC03230B2210214FF0A040FFF76BFC01214FF0D5
:20488000A040FFF743FC01214FF0A040FFF7D5FC0028F8D001214FF0A040FFF7BDFC0221F8
:2048A0004FF0A040FFF7C1FC0DB000BD10B586B04FF6FF7004904720ADF80C000020ADF88C
:2048C0001400ADF80E0003A9594C2046FFF7C0FA0C20ADF8000000A90220ADF80200012046
:2048E000ADF804000020ADF80600ADF808002046FFF718FB01212046FFF7F6FA0122102166
:204900002046FFF79BFB06B010BD00B587B04FF6FF70049003A900200390ADF814004FF097
:204920008040FFF795FA0820ADF8000000A90220ADF802000120ADF804000020ADF806005E
:20494000ADF808004FF08040FFF7ECFA01214FF08040FFF7C9FA012208214FF08040FFF7B4
:204960006DFB07B000BD80B54FF420514FF0006000F070FB4FF4407000F038FB1B208DF8A2
:20498000000001208DF801008DF8020000208DF8030000A800F02FFB1C208DF8000001209D
:2049A0008DF801000020ADF8020000A800F023FB01BD00214FF07C40FEF704B880B5FFF73E
:2049C000CFFCFFF71EFDBDE8014071E580B5FFF7B6FEFFF7E7FEFFF769FFFFF796FFFFF726
:2049E00043FE0C480C4A41F61F414160F0211170002181600721016001BD000001000200B6
:204A000000000E104C0000200CED00E0000400480008004810E000E023ED00E0003801405E
:204A200000440040080002404000005008080020002C0140DFF83804DFF83824016841F09B
:204A400001010160416811404160DFF82C24016811400160DFF82424016821F48021016077
:204A6000416821F4FE014160C16A890B8903C162016B11400163002181607047DFF80014A5
:204A800000220A700870704781B000200090DFF8E0130A68009B5B1C0093009BB3F5A04F57
:204AA00001D09203F5D50968890348BF012001B07047DFF8D023136823F474131360084398
:204AC0001368184310607047DFF8BC1308607047DFF8B8130A68120940EA0210086070478A
:204AE000DFF8AC1308607047DFF898130A68920840EA820008607047DFF88803006800F0EE
:204B00000C007047DFF87C130A6822F0F00272E1DFF870130A6822F4E0626CE1DFF86413E4
:204B20000A6822F4605242EAC00008607047F0B5DFF85013DFF85C230C68002304F00C0460
:204B4000082C13D10B680C68C3F383439B1CE40303D4DFF84443634306E08C6A04F00F047E
:204B6000641CB2FBF4F463431C4600E0144604600D68DFF82843C5F303152D5D076827FAD9
:204B800005FCC0F804C00E68C6F30226365D2CFA06F686600E68C6F3C226365D2CFA06FED2
:204BA000C0F80CE0D1F828C0CCF3041C0CF00F0E04EB4E0E5FEACC6CBEF810E004D5BEF1AE
:204BC000000F18BFB3FBFEF707618F6AC7F3442707F00F0C04EB4C04FF06248A03D514B125
:204BE000B3FBF4F400E004684461CC6AE40654BF144604688461CC6AA40654BF1446046897
:204C0000C461CC6A640654BF144604680462CC6AE40505D504689C4204BFAE425C0000D06E
:204C2000C4684462CC6AE40405D504689C4204BFAE425C0000D0C4688462CC6AA40505D5B6
:204C400004689C4204BFAE425C0000D0C468C462CC6A640505D504689C4204BFAE425C0007
:204C600000D0C468C464CC6A240505D504689C4204BFAE425C0000D0C4680465CC6AA4043B
:204C800007D504689C4208BFAE4202D15C00446501E0C4680465CC6A240405D504689C4267
:204CA00004BFAE425B0000D0C3688365CB6A13F0030F08BF83680DD0CB6A03F00303012BD0
:204CC00008BF036806D0CB6A03F00303022B03D14FF40043836305E0CB6A03F00303032BF0
:204CE00008BF8263CB6A13F4403F08BF83680FD0CB6A03F44033B3F5803F08BF036807D0AD
:204D0000CB6A03F44033B3F5003F03D14FF40043C36306E0CB6A03F44033B3F5403F08BF1A
:204D2000C263CB6A13F4402F08BF83680FD0CB6A03F44023B3F5802F08BF036807D0CB6AEE
:204D400003F44023B3F5002F03D14FF40043036406E0CB6A03F44023B3F5402F08BF0264A8
:204D6000CB6A13F4401F08BF83680FD0CB6A03F44013B3F5801F08BF036807D0CB6A03F40C
:204D80004013B3F5001F03D14FF40043436406E0CB6A03F44013B3F5401F08BF4264CB6AEA
:204DA00013F4400F08BF81680FD0CB6A03F44003B3F5800F08BF016807D0CB6A03F44003F2
:204DC000B3F5000F03D14FF400418164F0BDC96A01F44001B1F5400F08BF8264F0BD2B4906
:204DE000020F0A6814BF22F4785222F4F8720A6000E02B490A68104308607047294A0029BF
:204E0000116814BF084321EA000010607047264A0029116814BF084321EA00001060704767
:204E2000224A0029116814BF084321EA00001060704741090E4A08BF116807D0012908BF6A
:204E4000116A03D004290CBF5168516A00F01F0021FA00F202F001007047154A12680021D8
:204E6000024218BF0121084670471249087070470010024000C0FFF8FFFFF6FECCEC000FA4
:204E80000210024004100240600042422C1002404C00424200127A0000093D000400002040
:204EA0003010024014100240181002401C100240081002400A100240DFF818110A68920870
:204EC00040EA820008607047DFF808110028086814BF40F0100020F0100008607047DFF856
:204EE000F800C168090605D5DFF8F0100160DFF8F0100160704738B504464FF4302000F0C7
:204F000040F8042812D1DFF8DC50286840F0020028606C60286840F0400028604FF4302016
:204F200000F02FF8296821F00201296032BD70B582B00646002000900C464FF4302000F015
:204F400020F8042819D1DFF89C50286840F00100286034804FF4302000F013F8042808D1D0
:204F6000B01C0090200C009908804FF4302000F008F8296849084900296076BD1A49086053
:204F80007047194A13680421DB0748BF01210ED41368DB0648BF022109D413685B0706D54F
:204FA000032104E013685B0748BF0321401E01290BD158B113680421DB0748BF0121F5D400
:204FC0001368DB06EED50221F0E700B905210846704700000020024004200240230167453C
:204FE000AB89EFCD102002400C2002401C4908431C4908607047F0B40378C4781A460121D0
:20500000F4B1184B1B68447803F4E063C3F5E0631B0AC3F10405AC4085780F2626FA03F7FA
:2050200007EA05032343104C1B011355007800F01F0291400D4A400942F82010F0BC70476A
:2050400003F01F0001FA00F00949520941F82200F0BC7047074A114008430749086070478C
:205060000000FA050CED00E000E400E000E100E080E100E080FFFF1F08ED00E070B40022DA
:20508000002301240D6894402540A54228D10D79012D18BF022D12D1856803269E40B543B1
:2050A000856085684E799E4035438560858825EA0404848084888D7995402C438480032473
:2050C0009C400568E4432540056005680E799E4035430560C5682C40CD799D402C43C46098
:2050E000521C9B1C102ACCD370BC7047CB0800EB830001F007018900036A4FF00F0C0CFA3F
:2051000001FC23EA0C03036202FA01F1036A19430162704701684FF6FE721140016000214F
:20512000016041608160C1604E49884204D14E48016841F00F0153E04C49884204D14A48FC
:20514000016841F0F0014BE04949884204D14648016841F4706143E04649884204D1424890
:20516000016841F470413BE04349884208BF3E4833D04249884204D13B48016841F4700163
:205180002EE03F49884204D13748016841F0706126E03C49884204D13B48016841F00F0199
:2051A0001EE03A49884204D13748016841F0F00116E03749884204D13348016841F47061C6
:2051C0000EE03449884204D12F48016841F4704106E03149884204D12B48016841F470215E
:2051E0000160704702688B686FF30E121A430B6A1A430B691A434B691A438B691A43CB6922
:205200001A434B6A1A438B6A1A4302608A8942600A6882604968C16070470029016812BF76
:2052200041F001014FF6FE72114001607047002A026814BF114322EA01010160704700211B
:20524000C2004CBF154A164A1268024218BF012108467047C1004CBF0B490349086070477B
:205260000000000008000240040002401C0002403000024044000240580002406C00024000
:205280008000024008040240040402401C040240300402404404024058040240000402406E
:2052A0000000024038B5DFF824492088E8B1DFF820090088B0F52F7F17DDDFF818090088EB
:2052C00098B90320DFF810194871012008714FF400450020C8800D604FF09040FFF7CEFED9
:2052E0004FF09040058500202080DFF8F0482078C0071AD500F04FF8DFF8E4080178A1B133
:20530000491E0170C9B281B9DFF8D8185A2088700221DFF8D408028861F301020280082066
:20532000DFF8C818087001F01FFA2068C0F3400050B100F0A7FBDFF8B8080068142803D315
:2053400001F0D2FA01F00EFB2068C0F3800048B100F00CFCDFF89808016811F1010F1CBF1D
:20536000491C0160DFF88C0822680188C2F3C0037BB1DFF8783C40F20F155D83491C4FF4DC
:20538000A15589B29D8322F008020A292260A8BF0021018031BD2DE9F84FDFF84048DFF861
:2053A000585820684008400020604FF6FF71DFF8200802888A421CBF521C0280DFF83C289D
:2053C000138813B1CB18138003E02A7802F0DF022A70DFF82C28DFF82C681368B6F90060E6
:2053E000DFF82498DFF824C8D9F800A0DCF800E0DFF81C883344DFF81C68B6F90060B244E0
:20540000DFF81468B6F90060B644B8F80060761CB6B20A2E11DBDFF804680A2793FBF7F316
:20542000F3810A239AFBF3F333823B469EFBF3F37382002633469A469E46A8F80060CCF87F
:2054400000E0C9F800A01360DFF8D467DFF8D427B678DFF8D437DFF8D497B2F800C0B3F84D
:2054600000E0B9F80080DFF8C8A7C6F38006002E1EBF6668C6F3C046002E66D0A668C6F3D3
:205480008016002E61D1DFF8AC77B7F90070BAF800609637B7F5967F88BF4FF47A7601D809
:2054A00006B18E19AAF80060DFF88C77DFF88C67B6F90060002E48BF76423E80DFF8807760
:2054C000DFF880673688B7F900B0BBF13C0F0DDBDFF874B7BBF800B05E4507D3BCF1020F71
:2054E000ACBF4FF47A7C0CF1010C03E0BCF1000F18BF8C44B7F900B0BBF11F0F01DBC92EAB
:2055000005DBB7F90070222FA8BFC92E0CDBDFF838777F88BE4207D3BEF1190FACBF4FF409
:205520007A7E0EF1010E03E0BEF1000F18BF8E44DFF81477BF88B74215D2B8F1C80FACBFA7
:205540004FF47A7808F1010811E0BAF8006016B18E19AAF80060BCF1000F18BF8C44BEF18F
:20556000000F18BF8E44B8F1000F18BF8844A9F80080A3F800E0A2F800C0DFF8746A67689E
:20558000B6F800C017F4401F05D027F4401767604FF4FA6C03E0BCF1000F18BF8C44DFF85F
:2055A000547AA6F800C00088B7F800E0B0F5967F0BDDDFF86C06C078C0F3400028B9DFF8DA
:2055C00060068078C0F3C00040B9287800F03F0028700020AAF8000086464EE06068C0F363
:2055E0008030002804BF3088002803D0287840F0400041E0BAF8000012881B88B9F800602C
:2056000042EA000A43EA0A0A56EA0A0A06D1287800F03F0028704FF0000E2EE0DFF8D8A9CE
:205620009AF83AA10AF0420ABAF1020F17D130B91E2AB8BF3C2B02DAB6F5C87F10DD41F216
:2056400088308645B8BF0EF1010E04DB2A7842F080022A708646287800F0BF000CE030B983
:205660001E2AB8BF3C2B02DAB6F5C87F05DD287800F0BF0040F080002870DFF8A405A7F89E
:2056800000E08078C0F3001020BBDFF870291080DFF86C291080DFF86C291060DFF8682954
:2056A0001060DFF868291060DFF864291080DFF864291060DFF860291060DFF8602910603A
:2056C000DFF85C291080DFF85C291080206820F402302060DFF85069308890B1081830804B
:2056E00080B270B9FFF73FF9FFF763F9DFF83C1945F2AA50088000203080DFF8340900689E
:205700008047DFF83009DFF8D02A0188DFF82869DFF82839DFF828C9491C89B21029A8BFB0
:2057200000210180DFF8DC141288B1F90010A1EB020EDFF81029A2F80CE00088B6F800A0A4
:2057400033F81070F244AAEB0707378023F810E0DFF8C034DFF884AAB3F90030BAF8006045
:20576000DFF87C7A9E1BD681BCF80080D689B04437F81060A8EB0606ACF80060DFF864CA7E
:20578000D689DFF8648A27F81060DFF88C64B6F90090BCF80060A9EB06061682DFF84C6A77
:2057A000B2F810B037885F4438F810B0A7EB0B073780168A28F81060DFF8348AD689B644B4
:2057C000168AB644DFF82C6AA2F812E0378838F810B07744A7EB0B07378028F810E0DFF88A
:2057E000F809DFF8146A0180AAF80030ACF80090DFF82C04DFF804AA408B4004000C1528E8
:20580000B4BF06201A381080DFF81404B0F91800508000203080DFF808048078BAF800C070
:20582000C0F38000002800F00781DFF8D4094078C00740F10181DFF8CC09B0F900E0CEF1BB
:2058400000088E45A4BF0FFA88F8414503DA606840F0805006E07145B8BF884503DA6068D1
:2058600020F0805060609E45A4BF0FFA88F8434503DA606840F0005006E07345B8BF98451A
:2058800003DA606820F000506060CE45A4BF0FFA88F8C14503DA606840F0804006E0F1458D
:2058A000B8BFC84503DA606820F080406060DFF85869B2F90200B6F90060B042A2BF4742FF
:2058C0003FB2BE4203DA606840F0006006E08642B8BFB74203DA606820F0006060606068E7
:2058E00020F0E066666000209080D08010815081F0206F78074240F0C18016F0C85FDFF8F5
:205900000C090CD0B0F800B00BF1010B1FFA8BFBBBF5FA6F05DB47F010076F7001E04FF051
:20592000000BA0F800B016F0106FDFF8E4080AD0078812887F1CBFB2974205D36A7842F0F8
:2059400010026A7000E00027078016F0085FDFF8C4080AD00288521C92B2B2F5FA6F05DBB7
:205960006F7847F020076F7000E0002202800020DFF8A428108016F0884FDFF8A0080AD0F6
:205980000288521C92B2B2F5FA6F05DB6F7847F040076F7000E0002202800020DFF8802874
:2059A0001080207AC00703D4C6F3805000283AD0DFF8700802888E45A4BF0FFA88F8414546
:2059C00009DA511C89B2B1F5FA6F05DB6A7842F010026A7000E0002101809E45DFF84808C1
:2059E0000188A4BF0FFA88F8434509DA491C89B2B1F5FA6F05DB6A7842F020026A7000E048
:205A000000210180CE45A4BF0FFA88F0814510DA0CF101001FFA80FCBCF5FA6F2EDB6878A7
:205A200040F0400029E0DFF8FC170880DFF8F81708804FF0000C21E06068DFF8D01720F02B
:205A4000FE406060002008808446DFF8C8170880DFF8C8170880DFF8CC170880DFF8C81762
:205A60000880DFF8AC170880DFF8AC170880DFF8B0170880687800F00F006870AAF800C01B
:205A8000BDE8F18F2DE9F0415448DFF8A0270168DFF89CE721F002010160DFF89807138817
:205AA0000168D0F81480D0F818C011FA83F101604368548813FA84F343608468958814FADC
:205AC00085F48460C568D68815FA86F5C5600669178916FA87F60661578918FA87F8C0F803
:205AE000148097891CFA87FCC0F818C0C769D28917FA82F2C261BEF800707F1CAEF80070BF
:205B0000BFB2802F30DBDFF83077C9093980D9097980E109B980E909F980F10939814FEAFB
:205B2000D81179814FEADC11B981D109F981002141600160C160816041610161C1618161A1
:205B4000AEF80010DFF8F4063988C18079880181B9884181F98881813989C181798901822A
:205B6000B9894182F9898182BDE8F08110B51B4C2B4A2068DFF8C81620F004002060927809
:205B8000C2F3800232B10A884FF6FF739A4202D00A88521C0A80C0F3C020A8B10E494FF4E4
:205BA0000050086003204871012008710020C880DFF89006FFF762FA2068DFF88C1620F47B
:205BC000006020601420087010BD00004A0C0020820C0020480C0020EC0A0020D80A0020BC
:205BE0001E0D0020300700200C0B0020120D0020BC0B0020EA0C0020F80A0020520C0020F0
:205C0000200B00205C0C0020240B0020280B0020360C00205E0C0020600C00203809002036
:205C200018090020B60C0020B80C0020BA0C0020B40C0020960C0020B20C0020AA0C002021
:205C4000AC0C0020940C0020E40A00202DE9F047DFF8F8452068C0F30041002982B073D023
:205C600020F48030DFF8E815DFF8E8C520600A68DFF8E415531102EB936292110A80DFF8FC
:205C8000DC251368DFF8D8255D1103EB95639B111380DFF8D0351D68DFF8CC356E1105EB79
:205CA0009665AD111D80BCF800C0B3F90050B2F90060B1F90070BCF1000F3CD1DFF8ACC5E8
:205CC000BCF900C0A7EB0C07BF000F80C0F38030DFF89C15B1F90010711A89001180DFF83B
:205CE0009425B2F90020AA1A92001A8060B3DFF88805DFF8886541F6A87317FB03F5056034
:205D000011FB03F1B0F90250DFF8743535800160B0F90210198041F6E97312FB03F20260A7
:205D20004919B0F90200DFF85C2510804018DFF8D814088008E0DFF844050780DFF8400520
:205D40000680DFF8400505806568C5F38040002800F09480DFF83075DFF830653888401CA7
:205D600038803888102812DB00203880DFF82025DFF820050188491C018001884029A4BFD2
:205D800000210180B6F90010008842F82010DFF80805DFF80825B0F80080DFF80405DFF8E9
:205DA000041500681368B7F800C051F82CC0B0FBF8F0C318A3EB0C031360012B3A8841F89E
:205DC00022000EDBD81003EB1070001100F0C2FE41EC100B00F0D6FE51EC100B00F052FFFC
:205DE00000E00020DFF8C014DFF8C034DFF8C0240880DFF8C0040068D3F800C0B7F800E0CD
:205E000052F82EE090FBF8F08444ACEB0E0CC3F800C03B8842F823004FEAEC020CEB127201
:205E200012113280DFF89034DFF890241080DFF864040088401CADF80000BDF800004028F2
:205E4000A4BF0020ADF80000BDF80000B6F90020DFF83C6456F82000101A1880B3F9000043
:205E6000002803D5B3F9000040421880DFF8500409884183828325F4802060602068C0F323
:205E80000011002900F0AF8020F010002060DFF834A4DFF83404DFF834540488DFF8300455
:205EA000DFF830640068DFF83074DFF83084DFF83094B0FBF4F000F057FE41EC100B00F062
:205EC00061FE51EC100B00F0DDFEAAF80000DFF814040068B0FBF4F000F046FE41EC100B3C
:205EE00000F050FE51EC100B00F0CCFE2880DFF8F8030068B0FBF4F000F036FE41EC100B75
:205F000000F040FE51EC100B00F0BCFE3080DFF8DC030068B0FBF4F000F026FE41EC100B98
:205F200000F030FE51EC100B00F0ACFE3880DFF8C0030068B0FBF4F000F016FE41EC100BBC
:205F400000F020FE51EC100B00F09CFEA8F80000DFF8A0030068B0FBF4F000F005FE41EC20
:205F6000100B00F00FFE51EC100B00F08BFEA9F80000E14AE14813680088AC49B3FBF0F3BA
:205F80000B805368B3FBF0F34B809368B3FBF0F38B80D368B3FBF0F3CB801369B3FBF0F3A4
:205FA0000B815369B3FBF0F34B819369B3FBF0F38B81D269B2FBF0F0C881BAF80010C048C8
:205FC000C1802988018131884181084839888182B8F80010C182B9F800100183C8484178AD
:205FE00001F0F1014170BDE8F387000058090020BC0C0020BE0C002070030020860C002056
:20600000380C0020340B0020300B00202C0B00203A0C0020400B00203C0B0020380B002070
:20602000E40C0020E60C0020E80C00200000002004000008720C00206A0C0020F8090020A9
:206040006C0C0020940A00202DE9F0439D4805887E48B5F5827FBEBF9C490988B1F5827F24
:20606000BEBF9C490988B1F5827F06DA944A00219181416821F4C06141600168C1F34012A6
:20608000002A00F0A78021F020039E499E4A0360C3F380170C889D491688B1FBF4F1002F34
:2060A00089B23FD040F22317BD42A2BF874D2D88BD42A2BF874D2D88BD4233DB944B1B1938
:2060C00045F26015AB425AD2924D934E2B88934F3380934EB6F800C0A5F800C03D883580CD
:2060E000398015FA81F515FA8CF515FA83F39E03360C8C4DAD19B5F57A7F98BF022305D9CE
:20610000894DAB19B3F57A7F04D20123456863F34A254560A309854D2B8004F03F03844C04
:2061200023802CE04FF49C74DFF808E2DFF80082DFF8F891794F7A4EDFF8DCC1754DC3F367
:20614000C01353B11E23AEF8003000233B80ACF800302B803380002608E01E23AEF800301C
:206160003980ACF80010298031800026436823F4C0634360A9F800402023A8F80030168020
:2061800012884F4B02F132049A81A142BCBFA2F132038B4209DA684C40F6970361189942D9
:2061A0003CBF14FA82F1994208D3816841F0400181601E205F490880BDE8F0835D4B1A88A1
:2061C0008168002A1DBF521E1A8041F0400121F040018160BDE8F083640C0020660C0020E7
:2061E000180A0020680C0020380A00206E0C0020580A0020700C0020760C0020DC0C002005
:20620000F40A0020740C0020620C0020D20C0020CC0C0020D40C0020CE0C0020D60C002040
:20622000D00C0020D80C0020DA0C0020B80A00203C0C0020D8090020C80A0020780900207A
:20624000F40C0020000400480E0D0020D80A0020CC0B0020480C0020560C0020D00B0020AD
:20626000580C0020D40B00205A0C00204C0C00204E0C0020500C0020040B00205C0C0020F0
:206280005E0C0020600C0020AE0C0020AA0C0020B0040020B00C0020A80C0020780B002011
:2062A000700B002048080020940C00207C0B002088080020740B0020AC0C0020960C002083
:2062C00038090020F60C0020E20C0020F80C0020900B0020FA0C0020FC0C0020FE0C0020D6
:2062E000000D0020980B0020A00B0020B00B0020B40B0020B80B0020B8090020C20C002077
:20630000F80A0020F80B0020000C002000E1F5052BCFFFFF060C0020080C0020020C0020A5
:20632000040C002084EAFFFF6CEEFFFF100C0020120C0020080D0020CFEEFFFFF8B5DFF87B
:2063400008154878202806D0DFF80005016821F480610160F1BDFF220846FF2413461E27C8
:20636000DFF8EC54DFF8EC6410F801CB8CEA020C1CF806205A401CF805307F1EF4D11002F6
:2063800050FA83F080B28A7FC3B29A4202BFCA7F0004B2EB106F0AD0DFF8B004016821F4A7
:2063A000806101600020DFF8B0140870F1BDDFF8AC24DFF8AC74002010801E22DFF8A404AD
:2063C00000F086FCDFF8A0040188491C89B20329A8BF00210180008888B9DFF89004DFF867
:2063E000901400884880DFF88C0402888A800022028038461E2200F06BFC222026E0012884
:2064000011D1DFF86804DFF8701400884880DFF8640402888A800022028038461E2200F087
:2064200057FC212012E0022811D1DFF84004DFF84C1400884880DFF83C0402888A8000225B
:20644000028038461E2200F043FC23207870522038703946FF201E2211F8013B4340985DED
:2064600060405C5D521EF7D1000250FA84F080B2B877000AF8772020DFF8DC130870DFF89C
:20648000CC03016821F4806101607920DFF8F01308800021DFF8EC03018041804FF49671FF
:2064A000818044F29100DFF8E0130880F1BD38B5DFF8D843DFF8D813E07808700546032D28
:2064C00005DA2046BDE834404A2100F03DBC801E214680B200F09FF92819801EDFF8B423BE
:2064E00041781278914201BF0078DFF8AC13097888425BD12078502801BF60785228A07807
:20650000A52841D1E0780C2804BFA079572849D1E079132801BF207A6828607A242841D1E5
:20652000DFF828038168C1F3C002002A3ED141F0080181601E20DFF86443DFF864132080FC
:206540004FF4005008804021DFF85803016080210160DFF81803417801F0FE014170017865
:2065600001F0F9010170FEF7FEF9FEF722FADFF8381345F2AA50088000202080BDE8324010
:20658000DFF8280300680047A078AA280AD1DFF82003408B4FF44071084204BFBDE83140A9
:2065A00000F006B8DFF80C130020087031BD0000F8B5B64841790279BF4BC04C02EB0122AB
:2065C000BF490A800025817959705223237055236370D30744BFBB4E35809C4EC2F3400371
:2065E00043B1B348418B41F0010141830420B64908709FE0C2F3C003002B5AD0491E05296D
:2066000000F29880DFE801F0030E19242F45AD4F398841F0400139804022C11DAB4800F0EB
:2066200057FB83E0A74F398841F0800139804022C11DA74800F04CFB78E0A24F398841F4DE
:20664000807139804022C11DA24800F041FB6DE09C4F398841F4007139804022C11D9E48BC
:2066600000F036FB62E0974F398841F4806139804022C11D994800F02BFB388800F4707076
:20668000B0F5707F52D18A48418B41F4806141834CE08C4F398841F4006139804022C11D74
:2066A0008F4800F015FB8248418B41F4006141833CE0C2F38000002835D0AA20814FA070EB
:2066C00001203A88491E60F3010205293A8031D8DFE801F003080E141A204925A071402229
:2066E0007A491CE002204925A0714022784916E003204925A0714022764910E004204925DC
:20670000A071402274490AE005204925A0714022724904E006204925A07140227049E01DFD
:2067200000F0D6FA06E0C2F3001018B1706840F4004070607068C0F3C03159B120F400402F
:2067400070605A205F4FA0700220398860F30101398008256348057000780628A4BFBDE845
:20676000F14000F001B8F1BD2DE9F0415048418B5448C1F34002002A028812BF42F0040297
:206780004FF6FB731A400280C1F34012002A028812BF42F008024FF6F7731A40C1F3801155
:2067A0000280002901883C4B12BF41F020014FF6DF7211400180FF264A49404A0978D1708F
:2067C0008D1E008810711446000A5071ADB2314806701E70ADB11E4E1E4F90F800C014F879
:2067E00001EB8EEA0C0C93F800E01CF8078088EA0E0E80F800E06D1E1CF806C083F800C091
:20680000EBD11B788A1802F8023D0078507029480170BDE8F081F0B41E4A1F4CFF23137002
:20682000237078B10A4B0B4D167811F8017B7E40277816F805C08CEA07071770401EF65CF1
:206840002670F1D1F0BC7047F0080020D80A00207876000878750008160D00207E0C00208B
:20686000C808002018090020020D0020F40A002058090020FC0A00203809002078090020F1
:20688000740C0020E40A0020900C00207C070020140D00201C0D00201D0D0020E80C002003
:2068A00028080048180400480000002004000008780A0020110D0020100B0020300700205E
:2068C000080B00200C0B00201E0D002070030020B0030020F00300203004002070040020A2
:2068E000C8070020120D00209348418BC1F38012002A36D1C1F300224AB14FF6FF62114084
:2069000041838E4981608E494161A0210BE0C1F3402282B14FF6FF5211404183894981602F
:20692000894941612021018200210176418B41F0440141837047C1F380223AB14FF6FF3213
:206940001140418350227E497C4809E0C1F3C0223AB14FF2FF721140418310227A4979483E
:20696000C5E070472DE9F041734C608BC10782B01ED54FF6FE710840608304208DF8000055
:20698000FEF7ADFA3420FEF7F9FA4FF40050FEF7B2FA8DF800004FF6FD729DF80000618B31
:2069A00011400428618340F0A08041F0020093E0C0F3C001F1B14FF6F5710840608300256F
:2069C000624E0FE0206856F8257000EB8508FEF786FA3420FEF7D2FA39464046FEF7A7FA10
:2069E0006D1CADB2E089401C8542EBDB608B40F0800071E0C0F3C01101B34FF67F710840BC
:206A0000E28960830021AAB12368504D1E682F68BE4218BF491C2D1D1B1D521EF6D189B237
:206A200041B1607E052860DA401C6076608B40F0090051E04FF6DF7108404DE0C0F380015A
:206A4000002952D04FF6FB71084060830025218A6369881C42003E4803E0EE5C2E546D1CCF
:206A6000ADB29542F9DB0022490805D0034653F8045BAA18491EFAD162604FF6EF72618B89
:206A800065681140228A6183ADB230F81230AB4201BF00EB420252884AF2A5539A4213D1D5
:206AA00041F010016183002506E0A26830F8151022F815106D1CADB2218A8D42F5DB608BF2
:206AC0004FF6BF71084007E0207E401C2076C0B2052804DA41F004006083BDE8F381FF20B5
:206AE0002076012060F346116183BDE8F381F0B4114B1960DA8115490AB900200FE01546D9
:206B00000C462E4650F8047B44F8047B761EF9D100200C4654F8046B30186D1EFAD158604C
:206B2000CAF2A55041F82200588B40F00800588300205876F0BC7047780A002070030020CD
:206B400000200008C80700200022000850000020E0010020010040F10980F446404200F01C
:206B600005F851F000416047010000BF09D0B0FA80F18840C91CC1F58461090501EBD02108
:206B80004005704751EC100B10B500F003F841EC100B10BD40F2FF7C0B0D4DD0634566D21A
:206BA00030B421EA035141F4801103F2FD3C5FEA5C0C01D300184941890041EA9071800042
:206BC0004FF440140023E202D50AB1F5100107D46D081DD2091B641900184941491BF7D5CF
:206BE0006D080AD20919641B00184941491BEFD56D08F7D301E0520817D0C01861419B1A49
:206C0000AC4100184941801AA941F4D452080AD0C01AA1419B186C4100184941801AA94123
:206C2000E9D45208F4D15B1C6C4161084FEA330001EB0C5130BC704750EA0103FBD030B4A6
:206C4000B1FA81F311B9B0FA80F41B190B3BB3F120042FBF00FA04F19940C3F1200420FA43
:206C600004F438BF21439840D3F101039DE76345E1D011F5801FDED850EA4101DBD0D943A6
:206C800000F066B8F446400D40EAC120490006D200F00EF8004248BF6FF00040604700F0BE
:206CA00007F84FF0004188428CBF08464042604740F00040490DA1F58061491C05D4D1F18C
:206CC0001F0154BFC840C01770474FF00000704762B38B0708D0521E11F8013B00F8013B8D
:206CE00000F024808B07F6D1830740F0208000BF103A07D330B4B1E83810103AA0E838108B
:206D0000F9D230BC530724BFB1E80810A0E8081044BF51F8043B40F8043BD20724BF31F847
:206D2000022B20F8022B44BF0B7803707047083A07D3B1E80810083A40F8043B40F804CBA4
:206D4000F7D25307E4E70000002200F007B800001FB500F033F8212101601FBD401810F0AE
:206D6000030308D0C91A1FD3DB0748BF00F8012D28BF20F8022D130030B41446154610392E
:206D800028BF20E93C00FAD8490728BF20E90C0048BF40F8042D890028BF20F8022D48BF7B
:206DA00000F8012D30BC7047C91818BF00F8012DCB0728BF00F8012D704700000148FBF75B
:206DC0000DBE00004800002080B58020FEF745F820B1FBF729FEFBF7EEFDFEE701BDFEE72A
:206DE000FEE7FEE7FEE7704770477047FBF7D0BE80B50820FEF731F848B10820FEF735F881
:206E00001120FEF716F810B10120FDF75DFE1020FEF723F858B11020FEF727F81920FEF752
:206E200008F820B1BDE802400220FDF75DBE01BD38B50220FEF703FA00286CD00120FEF730
:206E400009FA904990480A885207B0F900200CD58E4B1A80B0F902208D4B1A80B0F906206A
:206E60008C4B1A8004220A830BE08B4B1A80B0F902208A4B1A80B0F90620894B1A800422F6
:206E80008A600A88874B120B02F001021A800C88A40444BF42F002021A80834A1488E40597
:206EA00003D51C8844F004041C801B88082B03DA448A7E4D25F813404FF480557C4B1C883F
:206EC000641C04F007041C80E40754BF0D838D601D784FF40054AD0754BF0C838C601B781B
:206EE0004FF480715B0754BF11839160B0F90A10704A714C1180714AB0F90C101180B0F9DF
:206F000010006F490880207828B14FF0A040FDF77EF90020207031BDF8B56A4D1021284685
:206F2000FDF795F8002864D010212846FDF79AF86548664A018811802A6C02800022008816
:206F4000441A10212846FDF779F86148614A002101804180A4B260480168121945F26213DA
:206F600021F080019A4201600BD35C4A13885B1C13809BB2032B3CDB0023138021F040017F
:206F800036E0574D574B2A88574E1A8033882B802546A3EB9507BFB23480AF423EBF03EBA8
:206FA0009506B6B2B54224D2504F00263E8041F02001642694FBF6F44D4E14343480016011
:206FC000EC1A4C4D4C4E2C809D1A24B235806334C72C3EBF2DB205F16304C72C09D2002BCE
:206FE00018BF002A05D03D4B00221A8041F040010160F1BD70B508214FF08040FDF727F896
:2070000000283DD03D4C2088002834D0002020804FF6F7724FF08040394B0169194D1140CC
:20702000016138490A881A80C06B374B088000201880364B1880364B18804FF4004308880C
:207040002E88811A76044FF48042234807D5314E31802A83AB60016821F0806106E02E4E74
:207060003180AA602B83016841F080610160816841F0100181604FF08040C06BC0466080AF
:2070800070BD000010040048080800202A0C00202C0C00202E0C0020240C0020260C00208D
