:020000040800F2
:1000000000FE0120554800089D4700089F47000852
:10001000A1470008A3470008A5470008000000000A
:10002000000000000000000000000000A7470008DA
:10003000A947000800000000AB470008AD470008D2
:100040007148000875480008794800087D48000894
:10005000814800088548000889480008CB47000807
:100060008D48000891480008954800089948000804
:100070009D480008A1480008A5480008A9480008B4
:10008000AD480008B1480008B5480008C34700085B
:10009000C5470008B9480008BD480008C148000825
:1000A000C5480008C9480008CD480008D1480008E4
:1000B000CF470008D5480008D9480008DD480008A7
:1000C000E1480008E5480008E9480008ED48000854
:1000D000F1480008F5480008F9480008FD48000804
:1000E000CD470008014900080549000809490008F2
:1000F0000D49000811490008154900081949000870
:100100001D490008C7470008214900082549000883
:10011000294900082D4900083149000835490008DF
:10012000394900083D49000841490008C94700080D
:1001300045490008494900084D490008514900084F
:1001400055490008594900085D490008D147000891
:100150006149000865490008694900086D490008BF
:100160007149000875490008794900087D4900086F
:100170008149000885490008894900088D4900081F
:100180009149000800000000010203040102030479
:1001900006070809FFFFFFFFFFFFFFFFFFFFFFFF4D
:1001A000FFFFFFFFFFFFFFFFFFFFFFFFFFFFFFFF5F
:1001B000FFFFFFFFFFFFFFFFFFFFFFFFFFFFFFFF4F
:1001C000FFFFFFFFFFFFFFFFFFFFFFFFFFFFFFFF3F
:1001D000FFFFFFFFFFFFFFFFFFFFFFFFFFFFFFFF2F
:1001E000FFFFFFFFFFFFFFFFFFFFFFFFFFFFFFFF1F
:1001F000FFFFFFFFFFFFFFFFFFFFFFFFFFFFFFFF0F
:100200000300000000000000000000000701F6FEEF
:100210005645522E303130372020323032302D309A
:10022000372D323770471CB50468206800284ED03F
:10023000206962690121104301F0D1FFA27F217F73
:10024000606802F0F0F8A27F617FA06802F0EBF82E
:1002500000208DF8060000A901208DF8070002207B
:100260008DF80400208B009002208DF80500606856
:1002700002F08EF8218B606802F0C3F802208DF83E
:10028000040000A9608B0090A06802F081F8618BE7
:10029000A06802F0B6F8206AC8B1606A012101F0D6
:1002A0009EFF208D009000A901208DF80400002001
:1002B0008DF8060001208DF8070002208DF805005A
:1002C000206A02F065F8218D206A02F09AF813BDC9
:1002D0002DE9F04F87B00C20ADF8120000200390FC
:1002E000ADF81000ADF8140000904FF40070ADF8B8
:1002F00004000020ADF806004FF0030BDFF81C0CE3
:100300000FF2E006DFF8189CDFF818AC00F190045B
:10031000051D4FF416582F1F3021384602F0AEF855
:1003200045F8046C2C6004F1080068600822286815
:1003300006F12C0102F0B6F828680188406802F046
:10034000EDF86868082206F1340102F0ABF868683D
:100350000188406802F0E2F896F82A103420491C1F
:1003600090FBF1F0A88396F82A0085F82800F06B3E
:10037000A86006F13C00C168E960816829614068B5
:100380006861306828B33846FFF74DFF55F8047CA4
:100390003868504518BF484504D1F868012101F07C
:1003A00030FF03E0F868012101F022FF95F82800F2
:1003B00008FB00F000F51650029002A9386802F020
:1003C000FDF8386800A902F053F93868012102F0FD
:1003D0005BF94C3630351034BBF1010B9BD107B0C3
:1003E000BDE8F08F00100140000002400000024014
:1003F00010000000010000000100000000020004E5
:10040000090A07000000024001000000000100008E
:10041000FF000000F40C0020FF000000F40D00209D
:10042000000000008307000875120008250200087C
:1004300000480040000402400004024000000400A4
:100440000200000002000000000400080A0B070080
:10045000001002401000000000800100FF000000BA
:10046000F40E0020FF000000F40F00200000000048
:100470004B0A0008211D0008BB0B000800140140B6
:1004800000080240000802402000000004000000B4
:100490000400000040008000060708000008024039
:1004A0000400000000010000FF000000F410002024
:1004B000FF000000F4110020000000008307000886
:1004C000751200082502000830B5044687B094F87C
:1004D0002D00256840F0020084F82D002868C0B384
:1004E00002F020F8DFF83C1A0C20ADF812000020D2
:1004F0000390ADF81000ADF8140000904FF40070B8
:10050000ADF804000020ADF80600286888421CBF42
:10051000DFF80C1A884204D1E868012101F071FE6D
:1005200003E0E868012101F063FE94F82C004FF429
:100530001651484300F51650029002A9286802F0AF
:100540003DF8286800A902F093F82868012102F01C
:100550009BF8606800214180A068418084F82A10DF
:10056000A183E1836184E184218594F82D0000F06A
:100570007D0084F82D0007B030BD10B5DFF89C4930
:1005800094F82D00C0070BD5616920468847A06804
:100590000021418094F82D0000F0FE0084F82D0029
:1005A00094F85D00C0070CD5616C04F130008847F9
:1005B000A06B0021418094F85D0000F0FE0084F8FB
:1005C0005D0094F88D00C0070CD5616F04F16000E8
:1005D0008847A06E0021418094F88D0000F0FE0055
:1005E00084F88D0010BD10B5DFF83049A1692046B0
:1005F0008847A16C04F130008847A16F04F16000C6
:10060000BDE81040084710B5DFF8104921692046C1
:100610008847216C04F130008847216F04F16000A5
:10062000BDE81040084738B5DFF8144C03252078A2
:1006300068B1401E2070C0B248B9A4F12B00FFF78A
:1006400043FF54F82B0C016A09B1008D4883303404
:100650006D1EECD131BD38B5DFF8E84B03252078AD
:10066000401C2070C0B20B280FDB00202070E07807
:1006700040F00400E070A4F12A00FFF725FF54F8D1
:100680002A0C016A09B1008D488330346D1EE6D111
:1006900031BD8268436852685B68527842F08002DC
:1006A0005A704068406881700320704782684168D2
:1006B0005268496852784A7081684268496852684D
:1006C000497949009170406840688078C01CC0B288
:1006D0007047826841685268496852784A708268F7
:1006E00041685268496892788A70826841685268A5
:1006F0004968D278CA70826841685268496812793C
:100700000A714168806849684068407948710620EC
:10071000704780684188082916DB4068DFF8282B7D
:100720000178128CD2B2914218BFFF2900D059B97A
:100730004078012818BF042804D003281CBF0528CE
:10074000062801D101207047002070478068418849
:10075000052914DB4068DFF8F03A02881B8C9342CD
:1007600018BFB2F5604F0AD142884FF6FF739A4224
:1007700002BF0079C01D814201D1012070470020D5
:100780007047F8B5044694F82D002668C0F3400081
:100790003546002840F05881E08C401CE084B06869
:1007A0000069718B084204D0208D142803DA401CA4
:1007B00000E0002020856768788850B1A08BC0B920
:1007C000608C00281FBF401E6084306A002810D053
:1007D0000CE0DFF8740A90F8200000F07F0001F0D0
:1007E00073FF01F087FF6084306A10B1306A318D89
:1007F00041837888002800F0A280608C002840F0B7
:100800009E802868202101F057FF00281CBFA08B84
:1008100000280BD0286801F045FFE18B4A1CE283D9
:10082000C0B262685268895C884205D12868008835
:1008300000F0060001281EDBDFF8E00684421AD132
:10084000286801F02FFF8DF800000020E083A083CE
:10085000DFF8F40990F8200000F07F0001F034FF89
:1008600001F048FF60842068016A002900F0EC80F4
:10087000008D4883F1BD2868A18B69BB202101F060
:100880001BFF90B1286801F00DFF8DF800000020DB
:10089000E083DFF8B40990F8200000F07F0001F059
:1008A00013FF01F027FF6084F1BD2868102101F0DB
:1008B00003FF002800F0C880208D1428C0F2C480F7
:1008C0002068016A09B1008D0883A08B411CA183B7
:1008D00061684968415C18E0402101F0EDFE0028A4
:1008E00000F0B2806068A18B4288914212D24268C7
:1008F000895C84F8241021680A6A0AB1098D118381
:10090000A18B4A1CA2834068095C2868BDE8F440BA
:1009100001F0C4BE94F82D1041F0100184F82D10A0
:1009200000212185E1834180A1832168086A08B103
:10093000098D418394F82D0000F07F0082E0286843
:10094000082101F0B9FE28B1286801F0ABFE8DF84E
:100950000000F1BD94F82D00C1070BD528682021B7
:1009600001F0AAFE002867D0286801F09BFE8DF8F0
:10097000000061E0C0F3001010B3208D042818DAE5
:100980002868202101F098FE002855D0286801F041
:1009900089FEA168496808700020E083E084A068AF
:1009A000416894F824200978914202D04188491C7A
:1009B000418094F82D0000F0EF0084F82D003BE01A
:1009C0002021286801F078FE98B10020E083E084BF
:1009D000A068018842888A4224BF491E4180468817
:1009E000711C4180286801F05DFEA168496870545F
:1009F00022E02046FFF7AAFE18B92046FFF789FE3D
:100A000030B194F82D0040F0010084F82D0011E081
:100A1000208CE18C88420FD2A068418861B10829FE
:100A200006DB94F82D0040F0010084F82D0001E071
:100A3000002141800020E08494F82D00C10903D0FA
:100A400000F0FE0084F82D00F1BD70B5044682B0C0
:100A500094F82D102068C1F340010546002940F0AC
:100A6000AB80E18C491CE18461684988A9B3016AC3
:100A700009B1008D08834021286801F01DFE18B9D6
:100A8000A08B002840F098806068A18B428891423A
:100A900008D24A1CA2834068095C2868BDE87C40F3
:100AA00001F0FCBD40680178502904BF8078A1287E
:100AB00008D1002084F82A0094F82D0000F0FB00F3
:100AC00084F82D00002160684180A1832068016ABC
:100AD000002971D0008D488373BD0821286801F07A
:100AE000EBFD0028286809D194F82D10C9070AD514
:100AF000202101F0E1FD00285ED0286801F0D2FD40
:100B00008DF8000073BD202101F0D6FD002844D0EF
:100B10002068016A09B1008D48830020E084A26842
:100B200010885188814224BF401E50805688701C16
:100B30005080286801F0B6FDA16849687054A0682B
:100B40004188012913D14168DFF8002709789442D0
:100B500009D1512918BF52292ED0532918BF542921
:100B60002AD0552908E0802926D0812904E00229CD
:100B700006D14168497850291ED00021418073BDBB
:100B8000082919DB4068C078814215D194F82D00FE
:100B900040F0010084F82D0073BD208CE18C884268
:100BA0000AD2A268508838B12068016A09B1008D64
:100BB00048830020E084508073BD70B504466421F2
:100BC000E068401CB0FBF1F1642202FB1100E06020
:100BD000002840F0D580DFF87856D0492868C0F367
:100BE0000052002A47D030318C4240F0C980C0F317
:100BF000404109B9552612E0C0F3004109B9542615
:100C00000DE0C0F3C03109B9532608E0C0F300314C
:100C100009B9522603E0C0F3C02040B9512631463D
:100C2000204600F02CF94FF6FF70864207D1286865
:100C300020F4801028600A21DFF818060180DFF810
:100C400018060188491C018089B26529C0F2988084
:100C50002868DFF80816084040F0C0002860052228
:100C600040F48060DFF8F81528600A700021DFF892
:100C7000F405017070BD30318C4240F08180C0F3CA
:100C8000001111B9A52251212FE0C0F3401111B973
:100C9000A522522129E0C0F3002111B9A522532138
:100CA00023E0C0F34021A1B9A5225421204600F041
:100CB00068F8DFF8AC050178491E0170C9B211B1BE
:100CC000A522542111E0286840F4802040F40070EF
:100CD00013E0C0F3802191B9DFF888150A78521E1D
:100CE0000A70D2B22AB1A5225521204600F049F857
:100CF00042E040F4002040F4806028603CE0DFF8EF
:100D000068556878052808DAA6225121204600F0A7
:100D100038F86878401C68702EE0A878052808DA52
:100D2000A6225221204600F02CF8A878401CA8707A
:100D300022E06879052808DAA6225321204600F02F
:100D400020F86879401C687116E0A879052808DA4F
:100D5000A6225421204600F014F8A879401CA8715E
:100D60000AE0E879052807DAA6225521204600F096
:100D700008F8E879401CE8710021DFF8DC04018004
:100D800070BD70B504460D4660680188406816461F
:100D900001F0C4FB6068406850210170A52E6068B6
:100DA0004068457060684068867011D10C256068A5
:100DB000406857218171132160684068C1716821C2
:100DC000606840680172242160684068417215E0E3
:100DD000A62E08BF082511D0DFF890542868806837
:100DE00040680279411D60684068801D01F05AFB2F
:100DF000286880684068007900F1080560684068EC
:100E0000C570EDB2082D0FDB60684068A91E4FF673
:100E1000FF7289B201F02FF901F09EFF61684A6804
:100E2000AA1822F8020C4D8070BD38B504460D4654
:100E300060680188406801F071FB6068406850217B
:100E40000170A1216068406845704FF6FF726068CC
:100E5000406881700A2160684068C1701421606830
:100E60004068817108216068406801F004F901F070
:100E700073FF61684A6810810A20488031BD38B527
:100E800004460D4660680188406801F047FB6068D1
:100E9000406850210170A4216068406845704FF699
:100EA000FF726068406881700C2160684068C170A2
:100EB000CD21606840688171AB2160684068C17174
:100EC000BA21606840680172DC2160684068417244
:100ED0000A216068406801F0CEF801F03DFF6168CA
:100EE0004A6850810C20488031BD00F5A05080B286
:100EF000DF4A70B910880B044FBF0843C943490447
:100F000010EA514010804FF6CF71108808401080D1
:100F1000704722F81010704700000000F412002003
:100F20000014014000100140F8B50446002160683B
:100F30004180261D4FF6FF75706840684178102982
:100F40002A4604D0062101F096F8062108E08179AE
:100F5000C91D89B201F08FF8716849688979C91D86
:100F60007268526889B2895A884240F068810020CC
:100F700084F82A00706842689078D178537901EB40
:100F800000201179127803EB012163685B68401C33
:100F90001A7073685E687278032A09D0042A00F018
:100FA0003B81062A00F0D280102A00F0EB8035E168
:100FB00089B2002900F030817E2980F22D8100F570
:100FC000A0539BB2562B11D280B20E184EF6574743
:100FD000BE420BDA4800002180B2D8B16268A44E4C
:100FE000526802F2030206EB430311E080B220B123
:100FF000052802D20A18062A10DB02210FE113F895
:10100000016B5670891C13F8016B02F8026B89B2F0
:101010008142F4DB2046FFF749FB03E18C4B626819
:101020001B681E095F0986F0010687F0010707F0BB
:10103000010776087F419E0986F0010606F0010649
:1010400047EA8606DF0987F0010707F0010746EA4D
:10105000C7061F0A87F0010707F0010746EA0716CF
:101060005F0A87F0010707F0010746EA47169F0A63
:1010700087F0010707F0010746EA8716DF0A4FEA03
:10108000133C87F001078CF0010C0CF0010C7F0879
:101090004CEB0C0C5F0B87F0010707F001074CEAE3
:1010A00087074FEA933C8CF0010C0CF0010C47EAE7
:1010B000CC074FEAD33C8CF0010C0CF0010C47EA52
:1010C0000C174FEA134C8CF0010C5B0C0CF0010C6C
:1010D00083F00103526847EA4C1703F0010347EA23
:1010E000831302F2030286F07F0683F07F03074634
:1010F000781C491EBFB2012F06D01BD3032F0FD07F
:1011000008D3042F11D015E0002702F8017B02F864
:10111000016B14E0002702F8017B02F8013B0EE0AE
:10112000142702F8017B502707E0012702F8017B12
:10113000222702E0002702F8017B02F8017B89B236
:101140000029D4D12046FFF7B1FA6BE080B2A0F5B8
:101150006C42562A14D289B2FFF7C7FE2046FFF729
:10116000B8FA43498A8C0646DFF89C0BC2800A8D88
:101170000281DFF8980BCA8C498DC280018152E050
:1011800002214CE089B2002946D00A467C2A43DA83
:10119000B17976797606B1EB166F3DD100F5A051A5
:1011A00089B2562908D280B211184EF65746B1427C
:1011B00002DA00262E4905E0022130E021F817C0AE
:1011C000B61CB6B2964223DA5F68F71997F807C0E3
:1011D0003F7A07EB0C2C06EBD67700EB670707F599
:1011E000A057BFB2002FE9D10F885FEA0C4E4FBF66
:1011F0004CEA07076FEA0C0C4FEA4C4C07EA5C47D5
:101200000F804FF6CF7C0F880CEA07070F80D7E7D7
:101210002046FFF75EFA05E0032100E001212046A9
:10122000FFF737FA064656B1606840682A463146ED
:1012300000F021FF61684A68B052B01C4880F1BDDF
:101240001F1300201E130020A014002024130020D0
:101250007815002066150020E2150020CFFCEFFF76
:10126000ED150020EE15002068150020BC150020AB
:10127000B41300202DE9F84F0646FFF767FA90B146
:10128000DFF88C0A016859B90660B06840680179D6
:10129000C91D4FF6FF7289B200F0EDFE88B10BE078
:1012A000B142F2D008E03046FFF733FA20B13046C1
:1012B000FFF73AFEBDE8F18F706800214180BDE87C
:1012C000F18F86F82A00FF2496F82D00DFF8441AE3
:1012D00000F0FB0086F82D0000257068406804705F
:1012E000706840684470706840680A8C82707068EA
:1012F0000A8C4068120AC270B2685068407920288F
:1013000000F25382DFE810F021003E004800580050
:101310006E009800A200B300BD00510251025102BC
:101320005102510251025102DE0074029F02320347
:10133000E903A604C40451025102510251025102B0
:101340005102510251025102DE00706840680521CD
:1013500001717068406845717168DFF8BC094968BF
:1013600002688A71716802684968120ACA717168F4
:1013700002684968120C0A72716800684968000EB8
:101380004872FEE1112270684068027101227068A3
:1013900040684271102209E07068406811220271B1
:1013A00002227068406842711031102270684068F3
:1013B00001F078F81625F9E17068406804210171A0
:1013C0000321706840684171B1687068496840687D
:1013D00089798171B06840688079072825DADFF85B
:1013E0003C1913E07068406804210171706840681E
:1013F0004171B16870684968406889798171B068E5
:1014000040688079072810DADFF8FC1872685268A3
:1014100031F81000D071B0684068807931F8100060
:1014200071684968000A087245E370684068C471D1
:101430007068406804723EE3012170684068017181
:10144000052170684068417106250CE070684068AD
:101450000121017106217068406841710625DFF89D
:10146000400C01210160DFF83C0C04709EE1012179
:1014700070684068017107217068406841710625F5
:1014800094E170684068012101710821706840682A
:1014900041710625B068416889790F2980F28681FB
:1014A0003422491C92FBF1F131844068807986F83E
:1014B0002C0096F82B00002840F07881322086F826
:1014C0002B0073E1DFF8DC0BDFF8D47B01783868A0
:1014D000C30740F17981002940F05581C0F3C00174
:1014E00029B1DFF8C41B08403860BDE8F18F5168AE
:1014F0008A79CB79DFF8B48B02EB03220B7A497A35
:1015000002EB034202EB0161C8F80010C0F3800255
:101510002AB1DFF89C2B104040F01000386038688A
:10152000C0F30010F0B1DFF88C0B81421AD3706861
:10153000406805210171B068716840684968407968
:1015400040F08000487102217068406885717068C1
:101550004068C5710A25706840680172082170688A
:1015600040684172D8F80000DFF84C1B884223D154
:10157000DFF8482B00231360DFF8442B13600523AA
:10158000DFF8402B1370DFF8402B1160DFF83C2BA5
:10159000DFF83C1B0A603968C1F3001262B121F424
:1015A000826141F0200139600122DFF8281B0A70B6
:1015B0000022DFF8241B0A803968C1F3401100299A
:1015C00000F0F380DFF8004BDFF8F8BA21688142C1
:1015D00008D29BF80000002840F09E8005208BF880
:1015E00000009DE0DFF8F41ADFF8EC9A0A689042F8
:1015F00007D20022A9F800200023DFF8E42A2060A7
:101600001360086000218BF80010B1684A681379F4
:10161000062B06DB5279202A0CBF092205229A1AD2
:1016200000E00022DFF8BCAAAAF800204A6853793B
:10163000202B0CD1937A92F80BC003EB0C2392F879
:101640000CC0527B03EB0C4303EB026203E0226805
:10165000BAF800309A18226049684A79202A0CBFEB
:1016600001F20E0101F20A01BAF80020DFF8783A1F
:1016700000F07F00C01800F015FFBAF80020B9F89C
:101680000000D8F80030DFF864AADFF8648A101888
:10169000A9F80000D218D809C00100F18001CAF8E9
:1016A0000000C8F8001012F07F0F35D1DFF8208A53
:1016B000D8F8002082423CBFDFF82C2A01F091F9D3
:1016C000DFF8100A0078012817D1D8F80000DAF8FE
:1016D0000010884209D28030C8F80000DFF8DC0929
:1016E000B9F80020016851180160DFF8F409B9F871
:1016F00000200168511801600BE0DFF8F80901785B
:1017000019B1491E0170032002E0386820F0200062
:1017100038600020A9F800009BF80000002844D0A1
:101720009BF80000401E8BF80000C0B2E8BB2068A8
:10173000C009C00120600021DFF89C090180DFF8AA
:10174000A00901600521706840680171B068716886
:1017500040684968407940F080004871706840688E
:1017600021688171706821684068090AC1717068D8
:1017700021684068090C0172706821684068090E90
:1017800041720A2512E040F020003860012900F083
:101790009881022900F0E280052900F09581062950
:1017A00000F09581072900F095815DB1706840686F
:1017B0004FF6FF72294600F05EFC71684A68A85235
:1017C000A81C4880BDE8F18F39B9DFF828090178F5
:1017D00019B1491E017003203860DFF8E008056088
:1017E000DFF8DC080560DFF8F8080560BDE8F18F78
:1017F0000120DFF8AC78DFF8AC38386051687068E9
:1018000089794068072911DA022101711121706874
:10181000406841710725B1687068496840688979F6
:101820008171B068406880791870BFE7012101714B
:1018300091217068406841711C7006253868400825
:1018400040003860B2E74FF6FF71DFF8AC08DFF810
:1018500050780180DFF864080560DFF864080560EF
:10186000DFF87C0805603878C007ABD5DFF83408AE
:101870000178002963D15068C179027ADFF82C38E9
:1018800001EB0221427A807A01EB024101EB006018
:10189000186006217068DFF82028406801717068C0
:1018A0001968406891421AD092214171B1687068FC
:1018B0004968406889798171022170684068C57102
:1018C00070684068057270684068417208217068ED
:1018D0004068817238684008400038602DE012216D
:1018E0004171B16870684968406889798171B168EF
:1018F000706849684068C979C171B16870684968A1
:101900004068097A0172B168706849684068497A2C
:101910004172B168706849684068897A8172387824
:1019200000F03400042808D03968012060F3420137
:1019300039600221DFF8BC0701700B2536E7012969
:1019400000F0BF80022909D0052900F0BD800629DA
:1019500000F0BD80072900F0BD8026E7A1225221BA
:10196000DFF89807FFF70DFABDE8F18FDFF8307761
:10197000386800F0210121297FF424AFDFF8242703
:1019800011780029DBD1DFF85057DFF86487298808
:1019900000291CBFC0F34010002816D0DFF84C27E8
:1019A0001068DFF844270918C8F8001001F019F88A
:1019B000DFF80807298802688A180260DFF8200724
:1019C00002688918016000202880FF20D8F80020D4
:1019D000DFF8E036DFF8E0169A4227D3DFF8203749
:1019E000DFF82057DFF820E7D1F80090CDF800901D
:1019F0000EEB010CBCF1040F05D2DFF810C7DCF8C8
:101A00000090CDF800900DF1000C4FF004091CF887
:101A100001AB8AEA000A1AF8050060401AF8034090
:101A2000B9F10109F3D1091D9142DDD3DFF8E016C8
:101A3000DFF8E03604EB002008800422706840687C
:101A400002711322706840684271B268706852680F
:101A500040689279827170680A884068120AC2717F
:101A60007068406809880172B0684068C179027A7C
:101A700001EB0221427A807A01EB024101EB006125
:101A8000DFF89406D8F8002001609A18DFF82C06D9
:101A90000068824201BF8142DFF8380600780128E1
:101AA0000BD070684068417941F08001417138681D
:101AB00020F020003860092578E6386840F480601E
:101AC000F8E7A12251214BE7A122532148E7A122A7
:101AD000542145E7A122552142E7DFF8C475DFF81C
:101AE000C485386800F02101212903D088F800401E
:101AF000BDE8F18F98F8001000295DD1C0F3802176
:101B0000002947D040F04000386045F2AA51DFF884
:101B10000C0601F02FF9DFF8BC15386809780129A7
:101B200007D140F080003860DFF8F40500680560F8
:101B300002E020F080003860022170684068017186
:101B4000B16870684968406889798171B068DFF868
:101B5000D4154068807908703868C0F3C010A0B10F
:101B6000DFF8C405016821F4184141F483110160D4
:101B7000890C026861F310420260016841F400318F
:101B8000016014217068406802E070684068942128
:101B900041710DE070684068022101719421706804
:101BA00040684171B168706849684068897981719D
:101BB000072588F80040F9E5022170684068017146
:101BC0001421706840684171B16870684968406864
:101BD00089798171B068DFF84C15406880790870A8
:101BE0000C21DFF84405026861F3CF220260910CFA
:101BF00061F310420260016841F40031016098F81D
:101C00000000012808D002280CD0052810D0062892
:101C100014D0072818D069E75121DFF8E004FFF756
:101C200004F963E7DFF8D4045221FFF7FEF85DE71B
:101C30005321DFF8C804FFF7F8F857E7DFF8BC04D2
:101C40005421FFF7F2F851E75521DFF8B004FFF710
:101C5000ECF84BE77068406803210171152170684A
:101C60004068417107217068406881717068406800
:101C7000C571DFF8B404016801F4E662B2F5E66FFD
:101C800004D021F480110160BDE8F18F08258DE5B5
:101C900006217068DFF8943440680171162170687D
:101CA00040684171DFF888047168496802888A7168
:101CB000716802884968120ACA7100F10C021B7827
:101CC0000088062105E0032918BF042901D1642BEF
:101CD0000AD11488A04207D070684068022181713F
:101CE00070684068C57104E0491E89B2921E0029DF
:101CF000E9D1706840680572706840684572706824
:101D00004068857219E600000C1500201C150020A3
:101D1000BC150020A0140020C01500202C150020A8
:101D2000F8B505464FF6FF74A86841884068891EDB
:101D3000224689B200F09FF901F00EF8A9684A889E
:101D40004968511831F8021C884240F09381002004
:101D500085F82A0005F22A00C17801F0FB01C17064
:101D6000A86840688278DFF8CC030270A9684B68E5
:101D7000187851280AD0522810D0532817D0542848
:101D800017D0802817D0812817D0F1BD5E791B7934
:101D900003EB06230120DFF8A06306E05E791B79E0
:101DA00003EB06230220DFF89463338006E005206E
:101DB00004E0062002E0032000E00420C42A68D0EA
:101DC000C0F0B480C62A00F0A58080F0AF804A68D9
:101DD000D379947904EB032341F25734A34240F0C2
:101DE0004981537A147A04EB032342F26844A342F4
:101DF00040F04081D37A927A02EB0322D04B23F851
:101E000010204A68537B127B02EB0322CD4B23F850
:101E100010204968CA7B897B01EB0221CA4A22F85B
:101E20001010401E062800F22581DFE810F00700A0
:101E30000C0024002D00110016001D00BA48016896
:101E400041F0100164E0B848016841F020015FE012
:101E5000B548016841F480715AE0B348016821F443
:101E6000802141F4007153E0AF48016821F4002162
:101E700041F480614CE0AC48016841F040010160F0
:101E80006421AA480170F1BDA748016841F08001B2
:101E90003EE04968CA798B7903EB02224AF6CD33DA
:101EA0009A4240F0E7804A7A097A01EB02214DF626
:101EB000BA42914240F0DE80401E062800F2DA80ED
:101EC000DFE800F004091D220E131800964801688F
:101ED00041F400611CE09448016841F4805117E02E
:101EE0009148016841F4004112E08F48016841F4D3
:101EF00080310DE08C48016841F4003108E08A48E7
:101F0000016841F4005103E08748016841F48041D1
:101F10000160F1BD4968CA7A897A01EB0221844ADD
:101F200022F81010FF2289494254F1BD4A68937982
:101F3000B3F110060AD0B61E022E1BD97E3E19D070
:101F4000B61E022E16D90E3E14D0F1BD107A527A6A
:101F500000EB02206E4A10804868817AC27A01EB59
:101F60000221027B407B01EB024101EB00605349FF
:101F70000860F1BD902B764918BFA02B06D10A68E6
:101F800092F82D3043F0800382F82D30FF220B6849
:101F90005B685B681A700B685B685B685A700B68FB
:101FA0006C4A5B685B68168C9E700B685B68128C71
:101FB0005B68120ADA700B68AA685B6852685B6833
:101FC000D278083A1A71002207E0AE68766896194E
:101FD000D318B6795E71521C92B20E6873685B6852
:101FE0001F79BA42F1DBA968736849688A797F1D55
:101FF000FFB2902A18BFA02A10D150490988C1F316
:10200000800161B34E49002221F8102001284D497A
:1020100021F8102023D15048028020E0922A1CBFD2
:10202000932A942A04D11E480168490849000AE00D
:10203000142A0AD11A4801684908490001603A483F
:10204000016841F48011016009E0132A08BF0128EA
:1020500005D1087A497A00EB01203F4908804FB149
:1020600022465868394600F006F871684A68B85246
:10207000B81C4880F1BD70B4130A51B1204C214DF9
:1020800010F8016B5E40735D5340325DDBB2491E58
:10209000F6D170BCD2B203EB022080B270470000D0
:1020A0007C150020E8150020F6FBFFFF8C150020B2
:1020B000DBFBFFFF01000208000002089015002072
:1020C00094150020EA15002098150020E0FF010873
:1020D000A0150020E5150020CA1500209C15002041
:1020E000B0150020CC150020F40B0020A81500200E
:1020F000AC150020E6150020D01500202413002088
:102100001C4400081C43000800FEFDF78815002051
:10211000CE1500200000FEF7A415002000020208E2
:10212000B4150020E915002078150020EC150020DA
:102130003C150020EB150020D21500208015002052
:102140000C1500201C1500202C15002068150020FF
:10215000BC150020A0140020C815002047494A687B
:1021600002F00C02042A02D0082A02D019E0444AE4
:1021700018E00A680B68C2F3805203F03F03002A9C
:1021800014BF3F4A3F4AB2FBF3F20B68C3F3881314
:102190005A430B68C3F301435B1C5B00B2FBF3F2D1
:1021A00000E0384A02604B68374AD0F800C0C3F3F9
:1021B00003139B5C2CFA03F343604B68D0F804C014
:1021C000C3F382239B5C2CFA03F383604968436862
:1021D000C1F34231895C23FA01F1C16070472B4A97
:1021E0000029116814BF084321EA000010607047FD
:1021F000274A0029116814BF084321EA0000106033
:102200007047244A0029116814BF084321EA0000DE
:1022100010607047204A0029116814BF084321EA62
:102220000000106070471D4A0029116814BF084360
:1022300021EA000010607047194A0029116814BF94
:10224000084321EA00001060704741090A4A012949
:1022500008BF116803D002290CBF116F516F00F045
:102260001F0021FA00F000F0010070470D480168DE
:1022700041F080710160704700380240043802402C
:1022800040787D010024F400000100203038024035
:1022900040380240443802401038024020380240A2
:1022A000243802407438024080B53049884206D153
:1022B00001210120FFF7AEFF0021012050E02C4951
:1022C000884206D101210220FFF7A4FF002102204D
:1022D00046E02849884206D101210420FFF79AFFF1
:1022E000002104203CE02449884206D10121082035
:1022F000FFF790FF0021082032E02049884206D1F4
:1023000001211020FFF786FF0021102028E01C4942
:10231000884206D101212020FFF77CFF00212020E8
:102320001EE01849884206D101214020FFF772FFC4
:102330000021402014E01449884206D10121802068
:10234000FFF768FF002180200AE0104988420BD186
:1023500001214FF48070FFF75DFF00214FF4807082
:10236000BDE80440FFF756BF01BD00000000024079
:102370000004024000080240000C0240001002402D
:102380000014024000180240001C024000200240DD
:10239000F0B40022002301240D6894402540A5429A
:1023A00029D103259D400668ED432E40066006684E
:1023B0000F799F403E4306600E79012E18BF022E12
:1023C00011D186682E40866086684F799F403E43D3
:1023D0008660466826EA0404446044688E79964024
:1023E000B6B234434460C4682C40C460C468CD793C
:1023F0009D402C43C460521C9B1C102ACBD3F0BCC4
:10240000704781B04FF480320092009A0A430092E4
:10241000009AC261C1610099C161C1690091C0693E
:10242000009001B07047CB0800EB830001F007017A
:102430008900036A4FF00F0C0CFA01FC23EA0C032D
:10244000036202FA01F1036A19430162704710B492
:1024500050F8041B81B102681218001D50F8043BAB
:10246000DC0744BFA9F10104E31852F8044B43F818
:10247000044B091FF9D1EBE710BC7047002200F0B4
:1024800089BC50F8041B61B150F8042BD30744BF3A
:10249000A9F101039A18002342F8043B091FFAD15D
:1024A000EFE7704762B38B0708D0521E11F8013B6B
:1024B00000F8013B00F024808B07F6D1830740F041
:1024C000208000BF103A07D330B4B1E83810103A7A
:1024D000A0E83810F9D230BC530724BFB1E8081087
:1024E000A0E8081044BF51F8043B40F8043BD20771
:1024F00024BF31F8022B20F8022B44BF0B78037065
:102500007047083A07D3B1E80810083A40F8043B8E
:1025100040F804CBF7D25307E4E70000002200F0B4
:1025200053BC000080B54C49884206D101211020DF
:10253000FFF782FE002110203BE04849884208D185
:1025400001214FF40030FFF76EFE00214FF4003000
:1025500022E04349884208D101214FF48020FFF74F
:1025600062FE00214FF4802016E03E49884208D1E7
:1025700001214FF40020FFF756FE00214FF4002008
:102580000AE0394988420BD101214FF48010FFF74E
:102590004AFE00214FF48010BDE80440FFF743BE1F
:1025A0003249884209D101212020FFF745FE002150
:1025B0002020BDE80440FFF73FBE01BD30B5044612
:1025C00085B00D46208A4CF6FF710840E988084323
:1025D00020824EF6F311A0890840A9880843298972
:1025E000084369890843A0814FF6FF41A08A08404B
:1025F000A9890843A08200A8FFF7B0FD16488442CD
:102600001BBF1A4884420398029829681922504334
:10261000A28912044CBF49008900B0FBF1F164208B
:10262000B1FBF0F000010209642303FB1211A2893F
:10263000120406D5C9003231B1FBF3F101F00701F4
:1026400005E009013231B1FBF3F101F00F0108435C
:10265000208105B030BD0000001001400044004062
:1026600000480040004C0040005000400014014071
:10267000028A4FF2FF031A400B881A434B881A4311
:102680008B88C9881A4314E00029818912BF41F45C
:1026900000514DF6FF72114081817047C905C90D87
:1026A000818070478088C005C00D70471A40028243
:1026B000028A11430182704700880022084218BF35
:1026C0000122104670470000010040F10780F446E7
:1026D000404200F003F851F00041604709D0B0FAE1
:1026E00080F18840C91CC1F58461090501EBD02146
:1026F00040057047F446400D40EAC120490006D22B
:1027000000F00EF8004248BF6FF00040604700F054
:1027100007F84FF0004188428CBF084640426047AE
:1027200040F00040490DA1F58061491C05D4D1F16C
:102730001F0154BFC840C01770474FF000007047DA
:1027400038B5DFF86845DFF86805DFF868552060C0
:102750004FF00051296045F2AA52008890420ED1F4
:102760000888904203D17A20FFF76FFD80B1FFF710
:102770007DFDDFF8440560600068804708E07A204E
:10278000FFF763FD20B1FFF771FD286800210160AC
:10279000C046C04600F002F8002032BD70B5DFF838
:1027A0001C0503210180DFF81805DFF81815091A48
:1027B000FFF7B4FE00F0AEFBDFF80C45DFF80C5578
:1027C000DFF80C653068C0F3002038B92868B0F530
:1027D000FA6F03D300F0EDFB0020286000F0CFF982
:1027E00001F0C0FAC046C046C046C046204601F0CF
:1027F000BDF90028E6D000F058F9FDF7BEFEE1E78C
:1028000010B54022DFF8CC14DFF8CC04FFF74AFE05
:10281000DFF8C804FF2101704FF48071DFF8C004B5
:10282000C181818141810181C1808180418001809C
:102830000021DFF8B004C181818141810181C18023
:102840008180418001800321DFF89C040180022106
:10285000418081800321C180018141818181C181C9
:102860000821DFF88804FFF759FEDFF88404DFF859
:102870008414016000F049F80021DFF87C04017045
:102880004FF6EF72DFF8740401881140DFF824245A
:10289000126841F4004141F02001018045F2AA5440
:1028A0001388A34212D153884AF2A0541B1B02D0B2
:1028B0001B1F03D005E0DFF8483403E0DFF84434A1
:1028C00000E0002341F01001018000E00023DFF868
:1028D00038040360002010600523DFF83004DFF8BF
:1028E00030240168114041F4C04141F0C001016051
:1028F00041F4002141F401310160DFF81824DFF8D0
:10290000180413700021017010BD70B5DFF89C131E
:10291000DFF89C03DFF8CC430860002182B02180FF
:1029200045F2AA51008888424AD1DFF8F0530FF2ED
:1029300034410322284601F081FA002840D1DFF813
:10294000E0630FF228410422304601F077FAB8BB69
:1029500003220FF21441DFF8CC0301F06FFA78BBC9
:102960000FF20C41DFF8C003042201F067FA38BB14
:10297000307906F2050106220B7818184B781818E2
:102980008B781818CB781818091D80B2521EF3D115
:10299000B6F81D10814213D1DFF890632922294631
:1029A0003046FFF77FFDF089DFF834130880DFF849
:1029B0008013308A09882080DFF87803018007E0DF
:1029C000DFF86863DFF8700370614FF00160B06199
:1029D000C148DFF86813008C09880818ADF80000BA
:1029E00073BD2DE9F44F82B004460820DFF83C2384
:1029F0008DF8000053699C424DD3926991424AD2AE
:102A0000081B029DDFF8A8A24FEA80380026A346E3
:102A10004FF0FF3911E001F0A2FA062804BFEF20C1
:102A200001F09AFA3946584601F07AFA761C8DF888
:102A30000000B6B22D1D0BF1040BB6EB184F0ADAED
:102A40009DF80000082806D12F68D345E3D1BC4883
:102A500007604F46DFE7029A0120002107E0236864
:102A6000BB4218BF0020491C89B2121D241DB1EBC6
:102A7000184F10DA9DF80030082B0CD130B99DF8B2
:102A80000000B0480021017000200BE054450CBF4D
:102A90004F461768E3E79DF800100829F1D1002898
:102AA000EFD0012003B0BDE8F08F38B5884C206826
:102AB000C0F3400100291EBF9349096800295DD079
:102AC00049684988002959D120F00E00206000F0A3
:102AD00070FA01F0E5F99C4801F03EFA0121282046
:102AE00001F0EAF9054600F064FA082D33D101211E
:102AF000302001F0E1F9054600F05BFA082D2AD1FB
:102B00000121382001F0D8F9054600F052FA082DCD
:102B100021D10121402001F0CFF9054600F049FA0A
:102B2000082D18D10121482001F0C6F9054600F012
:102B300040FA082D0FD10121502001F0BDF90546C2
:102B400000F037FA082D06D10121582001F0B4F920
:102B5000054600F02EFA20687C49082D09D140F086
:102B60000400206000225F4802807248028020201A
:102B700003E040F0080020601020087031BD10B55F
:102B8000624C2068C10704D5400840002060FDF772
:102B90003AFD2068C0F3400151B120F002002060EE
:102BA00001F040FAFDF73FFDC046C04601F05EF877
:102BB0002068C0F38001F9B120F00400206064486F
:102BC000018841B1491E018089B221B9404801689C
:102BD00041F48071016001F067FA01F0BCF8C04671
:102BE000C046C046C046C046C046434801788A1E1B
:102BF000622A3CBF491E01702068C0F3C00141B188
:102C000020F008002060FDF726FDBDE8104001F02F
:102C100086BA10BD10B42D480168491C0160142209
:102C20004C480168B1FBF2F202EB8203A1EB830294
:102C3000012A04D1354A136843F001031360C82206
:102C4000B1FBF2F2C82303FB12128F2A04D12F4AE0
:102C5000136843F0020313604FF4FA62B1FBF2F21F
:102C60004FF4FA6303FB121240F2FD239A4204D19F
:102C7000264A136843F00403136044F620631A469F
:102C8000B1FBF2F203FB121240F2C374A24204D170
:102C90001E4A146844F008041460491C1A46B1FB2B
:102CA000F2F203FB1211016010BC70477015002096
:102CB00000020208B415002004000208052004E008
:102CC000E4150020EF1500205C150020841500207D
:102CD0007C1500201C450008A0140020E8150020E9
:102CE0002C1500200C1500203C1500206815002034
:102CF000C015002022761903EC150020B413002023
:102D0000F412002054130020BC1500207815002078
:102D1000CF64FAFFED150020EE150020080202082E
:102D20000B0202082A0202082D020208E014002009
:102D3000140302081C15002000000208000200080D
:102D400088150020E5150020F3000100E71500209C
:102D500066150020C4150020010A41EA002080B257
:102D6000704700004C70F00063C1F8007C0FC03F5A
:102D70000FF007FE38B504460D4601F0D1F8216882
:102D8000A94208BF082802D001480021017031BDC6
:102D9000E515002000B500BF130096469446103993
:102DA00028BFA0E80C50FAD85FEA417C28BF0CC0CD
:102DB00048BF40F8042BC90728BF20F8022B48BFA2
:102DC00000F8012B00BD0000401810F0030308D0EC
:102DD000C91A1FD3DB0748BF00F8012D28BF20F810
:102DE000022D130030B414461546103928BF20E9CF
:102DF0003C00FAD8490728BF20E90C0048BF40F83A
:102E0000042D890028BF20F8022D48BF00F8012DAD
:102E100030BC7047C91818BF00F8012DCB0728BF78
:102E200000F8012D7047000030B58BB002A80FF2FA
:102E30004C112422FFF746FB4C480068008845F2FD
:102E4000AA51884207D002AC092554F8040BFFF7B9
:102E50002BFA6D1EF9D101210420FFF7C0F90120E2
:102E60008DF804004FF400540020ADF806000094E3
:102E700001208DF8050000A93D4D2846FFF788FA8E
:102E800001210420FFF7ABF9012000908DF8040028
:102E900000A90020ADF806008DF805002846FFF7D0
:102EA00077FA01210420FFF79AF90220009000A987
:102EB00001208DF804000020ADF806008DF8050013
:102EC0002846FFF765FA01210420FFF788F904205E
:102ED000009000A901208DF804000020ADF8060044
:102EE0008DF805002846FFF753FA01210420FFF76B
:102EF00076F90820009000A901208DF80400002038
:102F0000ADF806008DF805002846FFF741FA2C833E
:102F10000BB030BD80B5FFF787FFFDF7D9F900F0A2
:102F200081FE01F0DDF8C046C046C046C04601F053
:102F300071F8FFF765FC45F2555000F031F80320B9
:102F400000F031F840F6A66000F030F800F031F8FB
:102F500000F034F8074841F26F714160F0220649F1
:102F60000A70002181600721016001BDB4150020B5
:102F70000008024010E000E023ED00E00000024005
:102F80000004024000080240000C02400010024011
:102F90000014024000180240001C024000200240C1
:102FA0000949086070470949086070470849086086
:102FB000704705484AF6AA210160704702484CF65E
:102FC000CC410160704700000030004004300040F8
:102FD0000830004045F2AA52490805D030F8023BBB
:102FE0009A1892B2491EF9D1504280B270472DE929
:102FF000F84682460AEB8119002704254FF0FF347A
:10300000DAF8C4003E182046327A214601F088F8EA
:10301000C043C943E9E80201327D2046214601F060
:103020007FF8C043C943E9E8020118376D1EE7D1B4
:10303000BDE8F1862DE9F34F82B000208DF8000045
:10304000029800F1C406B0790830C0B20190F0795E
:10305000401CF07102999DF80C00B77901EB801BC0
:1030600002E00020F0717F1C0198BFB2B8423DDB46
:103070009DF80C0007F007080328F2DA0BEBC800F4
:10308000D0E90049B9F1000F08BF002CE9D0F5796B
:1030900008EB48004FEA800A00E06D1C0298D0F867
:1030A000C4005044EDB2007A8542DAD22046494647
:1030B0002A4601F047F810F0010001F00001ECD0C1
:1030C00001208DF800002A4601F02AF80BEBC80712
:1030D000604089EA0101C7E9000186F80680F571C0
:1030E0000020307270723084708401E0FF20F07133
:1030F0009DF8000004B0BDE8F08F002180F8CC10EE
:10310000CC304170C160C171C1820183418370477D
:103110002DE9F84D00F1C4060C4696F80680D0F86B
:10312000C400727A08EB4801890000250858F1793B
:1031300000EB41139B7B9A4227D200EB4110D0E970
:1031400000AB377A00E07F1CBFB2402F1CDA50463C
:1031500059463A4600F0F6FF10F00100F3D0002C7B
:1031600014BF00204FF4004000EB083000EB871044
:10317000B083F58340203084707A00B97084707A0F
:10318000401C7F1C7072012537722846BDE8F28D05
:10319000F0B5014601F1C40200209479D379528C34
:1031A00004EB4405AC00D1F8C450645904EB43135C
:1031B0009C89A24210D145F2AA5455080CD0E8319E
:1031C0000E4636F8027B3C19A4B26D1EF9D11CB92B
:1031D0009868FFF767F90120F0BD70B5044604F167
:1031E000C40004F1E806C179807900EB4002900048
:1031F000D4F8C420805800EB4115AA89A96830464C
:10320000FFF750F9A889811E090445F2AA52490C1A
:1032100005D036F8023B9A1892B2491EF9D120F037
:10322000010000195142A0F8E61070BDF8B500F198
:10323000C0050C46E97C16461F4601290BD1D0F883
:10324000C000B0F8050000F001FD2889A04218BFB9
:103250003E462E81F1BD29B929890698A14218BFA1
:10326000401C2881F1BD80B5FFF792FF38B1DFF82F
:10327000100B018CFF2900DA09B90121018400201B
:1032800002BD2DE9FC4D044640F6E8012068856842
:103290002846FFF7F3F805F1C000C5F8C04000214B
:1032A0000FF6FC2242600181082300240D460E46E1
:1032B0008A468C4622E000F0010B40085F4440EA59
:1032C000C170FFB24908002908BF0028F3D19EF859
:1032D0000E00B842FBD1DEE9000104430D43464035
:1032E0008AEA010A5545FDD1B442FBD1506800215C
:1032F00020F81C100CF101005FFA80FC107A844564
:1033000010DAD2F8008008EB4C1EBEF80C009EF8D4
:103310000E10B0EB811FF4D108EB4C17D7E9000178
:103320000027D0E70C325B1EBFD1BDE8F38D70B52E
:103330000446B0B02068856805F1C006B07AF17A1D
:1033400001EB00213089A0F114020D2A05D20022E0
:1033500009B2204600F0C4FB06E02238062803D25A
:1033600009B2204600F0E2FBC022294600A8FFF780
:10337000A9F840F6E8012846FFF780F8C5F8C040F4
:10338000C0220FF61C20706000A91320308128464F
:10339000FFF798F830B070BD2DE9F84F0768B868AE
:1033A000D0F8C400041D00254FF0080800262BE0CB
:1033B000206830F8161029B3491E20F8161020682E
:1033C00030F81600F0B9B868721912B21104090E7B
:1033D000082917DAD0F8C49001EB410309EB830305
:1033E000D2B21B7A9A420DDA00EBC1090120D9E969
:1033F00010AB002100F094FE4AEA00004BEA010104
:10340000C9E91001761CF6B220798642D0DB0C3473
:1034100005F58075B8F10108C8D1BDE8F18F00004D
:103420002DE9F0410568AC6804F2D307787810B153
:10343000401E78700CE194F8D300132800F2088144
:10344000DFE810F00301060114001D0030006800E1
:1034500078009600F50014001D003000680096000A
:1034600014001D009E00B800CE00FA00286801215B
:1034700000F02CFF2868012100F00CFFCEE0286846
:10348000DFF8001900F035FF002800F0E18094F823
:10349000D3000F280CBF012200222868A02100F0D1
:1034A0000DFFBBE02868DFF8E01804F1D80600F053
:1034B00020FF0028706816D050B194F8D30004287B
:1034C0000CBF0220092084F8D30000207060BFE008
:1034D0003089010A28680182C04694F8D300401C54
:1034E00084F8D300B1E0002800F0B2803221D4F893
:1034F000D800B0FBF1F1322202FB1100002840F0AD
:10350000A78094F8D30004280CBF0220092084F877
:10351000D3009AE02868DFF8741800F0EAFE00286B
:1035200000F0968004F1D80001892868C9B20182B0
:10353000C04673E02868DFF8541800F0DAFE00286F
:1035400000F0868004F1D8067089411C7181F189F0
:103550004018001990F8E81028680182C046002041
:10356000C4F8D800B1897089884271D307205BE024
:103570002868DFF8181800F0BCFE002848D167E082
:103580002868DFF80C1800F0B4FE002860D004F1C1
:10359000D8067089411C7181F18940180719286883
:1035A000008AC0B287F8E8007089B189C01C8842DF
:1035B0004BDB33E02868818A490749D504F1D806F6
:1035C00071894A1C7281F28989180E19008AC0B269
:1035D00086F8E8000021DFF8BC0700F077FE1DE068
:1035E0002868DFF8AC1700F084FE88B304F1D80631
:1035F0007089411C7181F189401800EB040828682A
:10360000008AC0B288F8E800B189708988421CD36A
:10361000012078700121286800F046FE0020C4F8DF
:10362000D80094F8D300401C84F8D30010E004F1D3
:10363000D80044F62061416004F1D806F089B189D0
:103640000818F081002084F8D3000020C4F8D800C6
:10365000D4F8D800411CC4F8D810C92806D328686B
:10366000002100F00DFE012084F8D30004F1D806FB
:10367000706808B1401E7060BDE8F08138B5006820
:10368000856805F1C404A088382800F22882DFE8A4
:1036900010F0390043004F004F004C0074007400DC
:1036A0007A007F007F007C00A200A200A800AD008D
:1036B000AD00AA00BC00BC00C200C900D400E600F6
:1036C000E600E300F500F500FB000501050102013D
:1036D0002B012B0131013D014801480145017201D7
:1036E000720178019C019C019901CD01CD01D601A7
:1036F000D601D3010302030209020E020E020B02DD
:103700001E021E0200212846FFF771FCFF20E07117
:1037100001206073A073A08000212846FFF78AFC77
:1037200000280CBF13200220CFE12846FFF7E5FC5C
:1037300001212846FFF7ECFC38B10920E073A0888E
:10374000022814BF06200520BFE1608C00285AD053
:10375000A279E17902EB42039A00D5F8C430D2583D
:1037600002EB411128460969884700284BD1A088FF
:10377000022814BF07200420A7E10220009007239D
:1037800004220521A8E10820A0802846FFF7B5FC07
:1037900000212846FFF7BCFC38B10920E073A0885F
:1037A000082814BF0C200B208FE1A279E17902EBED
:1037B00042039A00D5F8C430D25802EB4111284692
:1037C0000969884708B10D207FE1A088082814BF47
:1037D00001200A2079E10820009001230A220B2110
:1037E0007AE10E20A0802846FFF787FC01212846B9
:1037F000FFF78EFC38B10220E073A0880E2814BFBA
:103800001220112061E101205FE10E2000900123D0
:103810001022112160E101212846FFF70BFC28B995
:1038200021206FE0A069002840F059811520A08078
:10383000002020730120607331BD2846A279E17910
:1038400002EB42039A00D5F8C430D25802EB411182
:10385000896988471620A0802846FFF74EFC012181
:103860002846FFF755FC38B10220E073A0881628DF
:1038700014BF1A20192028E11B2026E116200090F1
:1038800013231822192127E1608C4019B0F8E600B3
:1038900060811C20A0802846FFF72FFC01212846CC
:1038A000FFF736FC38B10920E073A0881C2814BF4C
:1038B00020201F2009E1608C811E89B205F1E800FB
:1038C000FFF788FB6189884200F0FE80A0881C28F1
:1038D00008BF1E2000F0F980207B002814BF1320B1
:1038E0001520A08001200FE01C20009013231E2231
:1038F0001F21F1E000212846FFF79CFB002814BFA0
:1039000023202820A0800020207331BD207B0028A8
:1039100040F0DA80012020732320A0802846FFF7A2
:10392000ECFB207B411E8941C90F2846FFF7F0FBC5
:1039300038B10920E073A088232814BF272026204F
:10394000C3E0608C08B92820BFE0A279E17902EBDE
:1039500042039A00D5F8C430D25802EB41112846F0
:1039600049698847002840F0AF80A088232814BF09
:1039700022202520A9E02320009022232522262191
:10398000AAE002212846FFF755FB28B1A07B0028BA
:103990000CBF2E20292098E01320A080A07B50B1DE
:1039A000607B002800F09B8002212846FFF71FFB68
:1039B0000020607304E002212846FFF718FB012075
:1039C000A07331BD2846FFF798FB01212846FFF779
:1039D0009FFB38B10920E073A088292814BF2D204F
:1039E0002C2072E0618CA07B48B100296CD005F1DD
:1039F000E800FFF7EFFA002866D02E2046E0227B91
:103A000005F1E8002AB1FFF7E5FA00285CD1332080
:103A10005BE0FFF7DFFA002856D1618C6089491915
:103A2000B1F8E61088424FD033204EE029200090B4
:103A300013232B222C214FE02846FFF75EFB0021A9
:103A40002846FFF765FB38B10920E073A0882E28CF
:103A500014BF3220312038E0618CA07B30B105F1F9
:103A6000E800FFF7B7FA78BB33202EE061B305F129
:103A7000E800FFF7AFFA30B92073608C4019B0F856
:103A8000E600608101E0012020732920A080284603
:103A9000BDE83240FFF731BB2E20009013233022C7
:103AA000312119E03420A0802846FFF726FB284664
:103AB000A17BFFF72DFB38B10220E073A0883428EA
:103AC00014BF3820372000E01320A08031BD3420FF
:103AD00000901323362237212846FFF7A7FB31BD7C
:103AE000006880680B461904090E082900DB70473E
:103AF000F0B5D0F8C45001EB410405EB8404DBB20F
:103B0000257AAB4211DA1AB1606820F81320F0BDB3
:103B100000EBC1040120D4E9106700211A4600F02F
:103B2000FFFA30433943C4E91001F0BDF0B5006835
:103B300084680D042D0E082D17DACAB2D4F8C430EB
:103B400005EB450103EB8101097A8A420DD204EBB2
:103B5000C5000021D0E90067012000F0E1FA04EB84
:103B6000C50230433943C2E90001F0BD00688068F6
:103B7000B0F8C800132801DB01207047002070470F
:103B800030B583B0046804F12C0501216868FEF7A4
:103B900026FBAA7B297BE06AFEF745FCAA7B697BB2
:103BA000E06AFEF740FC02208DF8040001208DF849
:103BB000060000208DF8070002208DF805006989B5
:103BC00028890843009000A9E06AFEF7E1FB03B0F2
:103BD00030BD10B584B004682068002100F050FBAF
:103BE000206800F0BFFA208CADF804000121608C41
:103BF000ADF80600A08CADF80800E08CADF80A0026
:103C0000208DADF80C00608D00906068FEF7F0FA32
:103C1000206800A900F0CFFA2068012100F030FBF5
:103C200004B010BD10B55C4C0FF2D41020602046DB
:103C3000FFF7A6FF2046FFF7CCFF2046FFF721FB4A
:103C4000012020710020A4F8050010BD0146524853
:103C500000EBC10000220271C271C1EB01120FF230
:103C6000A01101EB8201096908470000F0B54A4D37
:103C70004A4C2879474E83B000286AD1E879042855
:103C800067D8DFE800F0032D505561000021304671
:103C900000F0F6FA2E6806F12C0701217868FEF78D
:103CA0009EFABA7B397BF06AFEF7BDFBBA7B797B63
:103CB000F06AFEF7B8FB01208DF804000020ADF893
:103CC000060002208DF805007989388908430090A4
:103CD00000A9F06AFEF75CFB0120E8710020287261
:103CE000206840060CD52068000609D595F9080023
:103CF000801C287240B20A2808DB0220E87105E027
:103D000095F908000128A4BF401E2872E87901280F
:103D10001FD1606880F040006060606880F08000C3
:103D2000606003B0F0BD2846FFF72AFF032008E0DB
:103D30000121304600F0D4FA0021304600F0D0FADC
:103D40000420E87103B0F0BD2846FFF742FF0120D0
:103D5000287103B0F0BD10480179002918BFFFF7A2
:103D60001BBB70470C480179002918BFFFF786BCC0
:103D7000704709480179002918BFFFF751BB704708
:103D8000A014002001000300820007008400070047
:103D900040000300005400405C1500201004024065
:103DA00060450008B815002002000000A04500088A
:103DB000D415002001000000C0450008D6150020E1
:103DC00001000000E0450008D815002001000000B7
:103DD00000460008DA150020010000002046000817
:103DE000DC1500200100000040460008DE15002020
:103DF0000100000060460008E015002001000000FE
:103E00000054004000002000100100208332000810
:103E10002F330008993300087D360008213400084C
:103E20000000FFBF00000004004050C30004024037
:103E3000020000004000800006070400030000208C
:103E400013F0030F09D0521E22BF13F8010B11F813
:103E500001CBB0EB0C00F3D07047121F22BF53F818
:103E6000040B51F804CB6045F7D0121D0AD200BAFA
:103E70009CFA8CFCB0EB0C0038BF6FF0000088BFE0
:103E800001207047521E22BF13F8010B11F801CB1D
:103E9000B0EB0C00F6D0521C08BF10467047000073
:103EA000DFF85C01C168002905D5DFF85811016011
:103EB000DFF854110160704770B50446002651B117
:103EC000012908BF4FF4807605D002290CBF4FF4BA
:103ED00000764FF4407600F059F808281FD1DFF83B
:103EE0002C51286820F44070286044F002012868B2
:103EF00030432860286820F0F800286028680843CC
:103F00002860286840F48030286000F03FF8296875
:103F100021F002012960296821F0F801296070BDB3
:103F200070B504460D4600F031F8082813D1374E1D
:103F3000306820F440703060306840F400703060C9
:103F4000306840F001003060256000F01FF83168F3
:103F500049084900316070BD2D49086070472C49FF
:103F60000A680820D20301D5012070470A68D206EA
:103F700001D5052070470A6812F0EF0F01D0062026
:103F800070470968890748BF0720704781B008203B
:103F90008DF8000008211E480268D20348BF0121A5
:103FA00013D40268D20648BF05210ED4026812F06D
:103FB000EF0F18BF062108D10268920705D5072127
:103FC00003E00268920748BF07218DF800109DF8B2
:103FD0000010012910D102680821D20348BF012135
:103FE000F3D40268D20648BF0521EED4026812F06D
:103FF000EF0FE6D00621E8E79DF8000001B070471A
:10400000043C024023016745AB89EFCD103C0240E0
:104010000C3C02402748002100220B468C46A0E8B9
:104020000E107047F0B40FF294002249224B0FF2A9
:10403000900404220E784D7806EB860704EB4706C1
:104040000F7816F8156007EB870C04EB4C0707EBAD
:1040500045056D784F887519B74206D20678360146
:10406000F758F61836893E8307E0BD4205DB06782F
:104070003601F758F61836897E834E88761C4E80B6
:104080004E88AE420ADB4D786D1C0526B5FBF6F670
:1040900006EB8606AD1B4D7000254D80091D401CAA
:1040A000521EC7D1F0BC7047024802210170017155
:1040B000704700004C1500204C4700080102030423
:1040C00000010001000100010001010001000100E8
:1040D00001000100323232323232323232320000EA
:1040E00010B50B480B4C8021A0F8F411002264217C
:1040F000A0F8F6112046012100F008F90022022163
:10410000204600F003F92046BDE81040012203E0FC
:10411000F809002000640040022100F0F7B8704761
:10412000D2B2203A22BF00FA02F100207047524278
:10413000D041D2F1200291404140D04090404140D6
:1041400070470000D2B2203A22BF21FA02F00021CB
:1041500070472032D141D04048409140D140484042
:104160007047000080B54149884208D101214FF4D1
:104170000010FEF758F800214FF4001016E03C49FB
:10418000884208D101214FF48000FEF74CF800214D
:104190004FF480000AE0374988420BD101214FF4E7
:1041A0000000FEF740F800214FF40000BDE8044095
:1041B000FEF739B801BD70B5044684B0A6880D4637
:1041C00000A8FDF7CBFF02992B484FF6C072B1FB58
:1041D000F0F032400243A2804FF6FE7322881A406C
:1041E0002280264B2A689A4208D25200B1FBF2F193
:1041F0008AB2042AB8BF042189B220E0EB884BF6CA
:10420000FF76B34204D102EB4202B1FBF2F106E0C9
:1042100019235A43B1FBF2F141F4804189B20A05F6
:1042200004BF41F0010189B280B24FF4967250434D
:1042300041F400414FF47A7289B290FBF2F0401CD5
:104240002084A1834FF6F531208840F001002080C2
:1042500020880840A9880843698908432080298963
:10426000A8890843208104B070BD000000540040BC
:1042700000580040005C004040420F00A186010051
:104280000029018812BF41F001014FF6FE72114072
:10429000018070470029018812BF41F480714FF6F8
:1042A000FF621140018070470029018812BF41F46C
:1042B00000714FF6FF52114001807047002A14BF71
:1042C00041F0010101F0FE010182704700290188DF
:1042D00012BF41F480614FF6FF32114001807047F8
:1042E0000029018812BF41F400414904490C0180B2
:1042F0007047838A008B43EA004008400002002296
:10430000000A884208BF012210467047002A42690D
:1043100014BF114322EA01014161704700C181408D
:1043200001C0804101C0804100C1814001C0804185
:1043300000C1814000C1814001C0804101C0804175
:1043400000C1814000C1814001C0804100C1814065
:1043500001C0804101C0804100C1814001C0804155
:1043600000C1814000C1814001C0804100C1814045
:1043700001C0804101C0804100C1814000C1814035
:1043800001C0804101C0804100C1814001C0804125
:1043900000C1814000C1814001C0804101C0804115
:1043A00000C1814000C1814001C0804100C1814005
:1043B00001C0804101C0804100C1814000C18140F5
:1043C00001C0804101C0804100C1814001C08041E5
:1043D00000C1814000C1814001C0804100C18140D5
:1043E00001C0804101C0804100C1814001C08041C5
:1043F00000C1814000C1814001C0804101C08041B5
:1044000000C1814000C1814001C0804100C18140A4
:1044100001C0804101C0804100C1814000C0C10194
:10442000C30302C2C60607C705C5C404CC0C0DCD24
:104430000FCFCE0E0ACACB0BC90908C8D81819D994
:104440001BDBDA1A1EDEDF1FDD1D1CDC14D4D515C4
:10445000D71716D6D21213D311D1D010F03031F1B4
:1044600033F3F23236F6F737F53534F43CFCFD3DE4
:10447000FF3F3EFEFA3A3BFB39F9F83828E8E929D4
:10448000EB2B2AEAEE2E2FEF2DEDEC2CE42425E584
:1044900027E7E62622E2E323E12120E0A06061A1F4
:1044A00063A3A26266A6A767A56564A46CACAD6DA4
:1044B000AF6F6EAEAA6A6BAB69A9A86878B8B97914
:1044C000BB7B7ABABE7E7FBF7DBDBC7CB47475B544
:1044D00077B7B67672B2B373B17170B05090915134
:1044E0009353529296565797559594549C5C5D9D64
:1044F0005F9F9E5E5A9A9B5B995958988848498954
:104500004B8B8A4A4E8E8F4F8D4D4C8C4484854503
:104510008747468682424383418180403030303035
:1045200030303030303030303020202030303030BB
:10453000303030303030303030202020010000006A
:10454000000000000000000000000000000000006B
:10455000000000000000000000000000000000005B
:104560000100000000000000601400204000010075
:104570009131000891310008DB3100080000000093
:104580000200000000000000A01400204000010014
:104590006732000891310008DB310008000000009C
:1045A000000000000000000000000000000000000B
:1045B0009131000891310008DB3100080000000053
:1045C00000000000000000000000000000000000EB
:1045D0009131000891310008DB3100080000000033
:1045E00000000000000000000000000000000000CB
:1045F0009131000891310008DB3100080000000013
:1046000000000000000000000000000000000000AA
:104610009131000891310008DB31000800000000F2
:10462000000000000000000000000000000000008A
:104630009131000891310008DB31000800000000D2
:10464000000000000000000000000000000000006A
:104650009131000891310008DB31000800000000B2
:10466000000000000000000000000000000000004A
:104670009131000891310008DB3100080000000092
:104680002C482D4A82B0016841F0010101600021EF
:10469000816001681140016028494160016821F48E
:1046A000802101600021C16001910091016841F405
:1046B00080310160016801F4003100910199491CC9
:1046C0000191009919B90199B1F5A06FF2D1016872
:1046D000490C01F0010100910099012923D1816861
:1046E0008160816841F400418160816841F4A0519A
:1046F000816013494160016841F080710160016887
:104700008901FCD540F203720E490A60816889086C
:1047100089008160816841F002018160816801F057
:104720000C010829FAD14FF000610748016002B07E
:104730007047000000380240FFFFF6FE10300024F2
:10474000193C4005003C024008ED00E00008024032
:1047500004000000002001000001000000080240E9
:1047600004000000010001000000000000080240F9
:1047700004000000020001000000000000080240E8
:1047800004000000040001000000000000080240D6
:104790000400000008000100000000007047FEE770
:1047A000FEE7FEE7FEE770477047704780B5FEF70B
:1047B00031FAFBF718FFFFF7DCFABDE8014000F023
:1047C00008B8704770477047704770477047704728
:1047D0007047704710B5074979441831064C7C443E
:1047E000163404E00A68081D511888470146A142A2
:1047F000F8D110BD080000002800000087DCFFFF92
:10480000E0140000100100200000000043DCFFFF66
:104810001000000070B9FFFF000100200000000040
:104820000120C046002801D0FFF7D4FF0020FDF78B
:1048300087FF00F000F800F001B800000746384696
:1048400000F002F8FBE7000001491820ABBEFBE7CF
:1048500026000200014880470148004781460008C1
:1048600065480008C046C046C046C046FFF7D8FFAE
:10487000FFF7FEBFFFF7FEBFFFF7FEBFFFF7FEBF6C
:10488000FFF7FEBFFFF7FEBFFFF7FEBFFFF7FEBF5C
:10489000FFF7FEBFFFF7FEBFFFF7FEBFFFF7FEBF4C
:1048A000FFF7FEBFFFF7FEBFFFF7FEBFFFF7FEBF3C
:1048B000FFF7FEBFFFF7FEBFFFF7FEBFFFF7FEBF2C
:1048C000FFF7FEBFFFF7FEBFFFF7FEBFFFF7FEBF1C
:1048D000FFF7FEBFFFF7FEBFFFF7FEBFFFF7FEBF0C
:1048E000FFF7FEBFFFF7FEBFFFF7FEBFFFF7FEBFFC
:1048F000FFF7FEBFFFF7FEBFFFF7FEBFFFF7FEBFEC
:10490000FFF7FEBFFFF7FEBFFFF7FEBFFFF7FEBFDB
:10491000FFF7FEBFFFF7FEBFFFF7FEBFFFF7FEBFCB
:10492000FFF7FEBFFFF7FEBFFFF7FEBFFFF7FEBFBB
:10493000FFF7FEBFFFF7FEBFFFF7FEBFFFF7FEBFAB
:10494000FFF7FEBFFFF7FEBFFFF7FEBFFFF7FEBF9B
:10495000FFF7FEBFFFF7FEBFFFF7FEBFFFF7FEBF8B
:10496000FFF7FEBFFFF7FEBFFFF7FEBFFFF7FEBF7B
:10497000FFF7FEBFFFF7FEBFFFF7FEBFFFF7FEBF6B
:10498000FFF7FEBFFFF7FEBFFFF7FEBFFFF7FEBF5B
:10499000FFF7FEBFFFFFFFFFFFFFFFFFFFFFFFFF70
:1049A000FFFFFFFFFFFFFFFFFFFFFFFFFFFFFFFF17
:1049B000FFFFFFFFFFFFFFFFFFFFFFFFFFFFFFFF07
:1049C000FFFFFFFFFFFFFFFFFFFFFFFFFFFFFFFFF7
:1049D000FFFFFFFFFFFFFFFFFFFFFFFFFFFFFFFFE7
:020000040801F1
:020000040802F0
:1000000000FE0120D59C0408F19B0408F39B040822
:10001000F59B0408F79B0408F99B04080000000006
:10002000000000000000000000000000FB9B04082E
:10003000FD9B040800000000FF9B0408019C0408CD
:10004000F19C0408F59C0408F99C0408FD9C040834
:10005000019D0408059D0408099D04081F9C0408CF
:100060000D9D0408119D0408159D0408199D0408A0
:100070001D9D0408219D0408259D0408299D040850
:100080002D9D0408319D0408359D0408179C040823
:10009000199C0408399D04083D9D0408419D0408ED
:1000A000459D0408499D04084D9D0408519D040880
:1000B000239C0408559D0408599D04085D9D04086F
:1000C000619D0408659D0408699D04086D9D0408F0
:1000D000719D0408759D0408799D04087D9D0408A0
:1000E000219C0408819D0408859D0408899D0408BD
:1000F0008D9D0408919D0408959D0408999D040810
:100100009D9D04081B9C0408A19D0408A59D04084E
:10011000A99D0408AD9D0408B19D0408B59D04087F
:10012000B99D0408BD9D0408C19D04081D9C0408D8
:10013000C59D0408C99D0408CD9D0408D19D0408EF
:10014000D59D0408D99D0408DD9D0408259C04085C
:10015000E19D0408E59D0408E99D0408ED9D04085F
:10016000F19D0408F59D0408F99D0408FD9D04080F
:10017000019E0408059E0408099E04080D9E0408BB
:10018000119E0408810081008100810081008100AE
:10019000F60001FFFFB60000018100F80001FFFF3B
:1001A000B70000FFD800000BC30001FFFFFC000BED
:1001B000010203040102030406070809F400FCFF1E
:0401C000F400000047
:10020000AA55FFFFFFFFFFFF4C70F07C0FC03F01BE
:100210000022761903000001150180250000020864
:1002200000001008808014FFA60363C1F80FF007D8
:04023000FE000000CC
:1002340070471CB50468206800284ED020696269A4
:100244000121104309F02EFAA27F217F606809F092
:100254004EFBA27F617FA06809F049FB00208DF866
:10026400060000A901208DF8070002208DF8040083
:10027400208B009002208DF80500606809F0ECFAEC
:10028400218B606809F021FB02208DF8040000A98D
:10029400608B0090A06809F0DFFA618BA06809F018
:1002A40014FB206AC8B1606A012109F0FBF9208DB2
:1002B400009000A901208DF8040000208DF80600AC
:1002C40001208DF8070002208DF80500206A09F04E
:1002D400C3FA218D206A09F0F8FA13BD2DE9F04F15
:1002E40087B00C20ADF8120000200390ADF8100088
:1002F400ADF8140000904FF40070ADF80400002035
:10030400ADF806004FF0030BDFF8840CDFF8845CD3
:10031400DFF8849CDFF884AC00F2646400F2784671
:100324004FF41658371F5421384609F005FB46F898
:10033400045C346004F1080070600822306805F140
:100344002C0109F001FB30680188406809F038FB92
:100354007068082205F1340109F0F6FA7068018822
:10036400406809F02DFB95F82A103420491C90FBB5
:10037400F1F0B08395F82A0086F82A00E86BB060A3
:1003840005F13C00C168F1608168316140687061C9
:10039400286828B33846FFF74CFF56F8047C3868C1
:1003A400504518BF484504D1F868012109F08CF97B
:1003B40003E0F868012109F07EF996F82A0008FBA9
:1003C40000F000F51650029002A9386809F048FBC5
:1003D400386800A909F09EFB3868012109F0A6FBE2
:1003E40002A8B0E80C5006F12C0100A8A1E80C50BA
:1003F4000CC80CC154364C351034BBF1010B91D1EF
:1004040007B0BDE8F08FF0B5044687B094F8480013
:10041400256840F0020084F848002868B0B309F069
:10042400D3FA04F13000CCC802A9CCC10CC800A98D
:1004340034200CC194F82E10491C90FBF1F0208458
:100444004FF4165194F82E00484300F516500290CC
:10045400DFF8481B286888421CBFDFF83C1B884231
:1004640004D1E868012109F02FF903E0E8680121CB
:1004740009F021F9286802A909F0F2FA286800A90C
:1004840009F048FB2868012109F050FB606800214D
:100494004180A068418084F82C10A183E1836184A9
:1004A400A1842185618594F8480000F0FD0084F85A
:1004B400480007B0F0BD2DE9F843DFF8D49ADFF81F
:1004C400347D09F2BE4503264FF6FF7809F2B05495
:1004D40015F8020CC0073AD52888A9F88401A9F8B0
:1004E400B005A878A9F8C4016080E8782082A888BB
:1004F4006082E888A08215F81C0C40B1012804D061
:1005040003280CBF0420404602E0032000E0022040
:10051400A9F82E06A5F14A0055F8361C884755F867
:10052400420C0021418015F8020C00F0FE0005F891
:10053400020CB9F8B00528806088A870208AE87099
:10054400608AA880A08AE880F88EA9F82E0654351F
:10055400761EBDD1BDE8F18310B5DFF8344AD4F876
:100564008C1404F274408847D4F8E01404F59960BC
:100574008847D4F8341504F21C50BDE810400847ED
:1005840010B5DFF80C4AD4F8841404F27440884798
:10059400D4F8D81404F599608847D4F82C1504F2DB
:1005A4001C50BDE81040084738B5DFF84C4C032513
:1005B400207868B1401E2070C0B248B9A4F12D0063
:1005C400FFF721FF54F82D0C016A09B1008D48830F
:1005D40054346D1EECD131BD09F03BBC38B5DFF8A5
:1005E4001C4C03252078401C2070C0B20B280FDB64
:1005F40000202070207F40F004002077A4F12C001C
:10060400FFF701FF54F82C0C016A09B1008D4883EF
:1006140054346D1EE6D131BD006890F82A0070474D
:1006240090F84800C0F3C000704710B48068428856
:100634000021052A23DB4068DFF854490388B4F815
:1006440054419C4211BFB3F5604F43884FF6FF7489
:10065400A34214D10379012B18BF022B04D0042B1D
:100664001CBF062B082B0AD14079082803DB152868
:1006740018BF162803D1D81D824208BF012110BC1F
:1006840008467047F8B5836859880024082915DBA3
:100694005D68DFF8FC782E78B7F85471FFB2BE427B
:1006A40018BFFF2E00D04EB96D78012D18BF042D50
:1006B40019D0032D1CBF052D062D14D00B2917DBD3
:1006C4005D68DFF8CC382E78B3F85431DBB29E4243
:1006D40018BFFF2E00D05EB96B78102B02BFAB7928
:1006E4000933994204D100F0A5FF012808BF012471
:1006F4002046F2BD10B50446FFF7C4FF58B1DFF839
:100704009008B0F8B415052904BF00F2744084427F
:1007140001D1012010BD002010BD38B581684868A2
:100724004988002400F20305072927DBEA78D21C54
:10073400914223D1032213A109F0A4FC002804BF91
:10074400287850281AD16878512818BF522804D024
:1007540053281CBF5428552810D1E878811E4FF621
:10076400FF7289B2284609F0D3FCE978491931F8B7
:10077400025C0AF0CCF9854208BF0124204632BD50
:1007840000000000415453008268436852685B686B
:10079400527842F080025A704068406881700320A9
:1007A4007047826841685268496852784A70816823
:1007B40042684968526849794900917040684068C4
:1007C4008078C01CC0B2704782684168526849682A
:1007D40052784A70826841685268496892788A708F
:1007E4008268416852684968D278CA7082684168F0
:1007F4005268496812790A7141688068496840689A
:1008040040794871062070472DE9F04104460021E3
:1008140060684180251D4FF6FF786868406801795B
:10082400C91D424689B209F073FC002840F0C68114
:1008340084F82C0004F12C07387F00F0FB00387793
:10084400FF20616849680870616849684870616898
:10085400DFF83C074968B0F854218A706168B0F841
:1008640054214968120ACA70696849684A79162A83
:1008740000F2A481DFE812F01700310055007A007D
:100884009A00E6000B014301A201A201A201A20108
:10089400A201A201A201A201A201A201A201A2013C
:1008A400A2014D015F0160684068052101710021CA
:1008B40060684068417122216068406881717621D6
:1008C40060684068C1711921606840680172032141
:1008D4006068406841720A265DE1606840681121E1
:1008E400017101216068406841710020DFF8181C23
:1008F4000A78A2F141071A2F21BFA2F130070A2F6B
:10090400A2F161031A2B03D32D2A1CBF5F2A2022D4
:1009140063685B68C318401C491C9A711028E7DBA4
:1009240022E060684068112101710221606840681A
:1009340041710020DFF8D01B0A7CA2F141071A2F75
:1009440021BFA2F130070A2FA2F161031A2B03D3AE
:100954002D2A1CBF5F2A202263685B68C318401CD1
:10096400491C9A711028E7DB162614E16068406878
:1009740004210171032160684068417169686068FD
:100984004968406889798171606840688179002983
:1009940018BF012904D002291CBF0529062948D102
:1009A4000021C17101216068406848E061684968BC
:1009B40004220A71616849684A716A686168526808
:1009C400496892798A71616849688A793AB900F507
:1009D400AA70028BCA716168008B496826E0012AFB
:1009E40007D100F5AA70028ACA716168008A496851
:1009F4001CE0022A07D100F5AA70828ACA716168D4
:100A0400808A496812E0052A07D100F5AA70828B12
:100A1400CA716168808B496808E0062A09D1DFF849
:100A2400BC0C0288CA71616800884968000A0872AF
:100A340006E0002160684068C17160684068017226
:100A44000926A8E088794C2804BFC879702840F0AA
:100A5400B580087AF02804BF487A7C2840F0AE803C
:100A6400887A0F2801BFC87AC028087B3F2840F045
:100A7400A5806068406801210171052160684068B3
:100A840041710626DFF8940C1421017083E0DFF82D
:100A94008C0C0078002800F091808879632804BFCA
:100AA400C879C12840F08A80087AF82804BF487AB7
:100AB4000F2840F08380887AF02801BFC87A07287D
:100AC400087BFE287AD16068406801210171062103
:100AD40060684068417106260AF0E3F809F02EFCCC
:100AE400387F40F0080038773221DFF8340C018079
:100AF400DFF8300C016841F4007101604BE0012122
:100B04006068406801710721606840684171062689
:100B140041E0606840680321017115216068406804
:100B2400417107216068406881710A2160684068EA
:100B3400C17108262FE06068406806210171162102
:100B440060684068417102216068406881710021D9
:100B540060684068C171DFF8D00BDFF8D01B0088F3
:100B64000A88824202BFDFF8C83B1B88984207D13B
:100B7400606840688271606809884068090AC171C8
:100B840000216068406801720B2660684068417209
:100B9400606840688172424660684068314609F086
:100BA400B7FA61684A68B05210202884B01C4880A3
:100BB400DFF8700B816841F480618160BDE8F081E9
:100BC4002DE9F045B3B005460024FFF75BFD00288E
:100BD40000F0DA81DFF8B863B6F8B405052804BF7D
:100BE40006F27440854200F0CF81A86840684178DD
:100BF400102912BF06248179CC1D4FF6FF78424696
:100C0400A1B209F085FAA9684968A4B2625A82427D
:100C140018BF002040F0B9818878CA7802EB002020
:100C2400401C87B208794A79097842EA0024686846
:100C340040680170A8684068417801290FD00329F1
:100C440000F08080042900F0D380052900F01D8184
:100C5400062900F02F81102900F0708182E1002C18
:100C640000F07E81B4F5FA6F00F37A81A7F5C040F5
:100C7400802865D2E219B2F5C14F61DC6A68526816
:100C840051700722A96849684979CC0811421CBFF0
:100C9400641CE4B2F9B2880801EB507040054FEAD5
:100CA400106A0AEB060000F5AE61686840682246E7
:100CB400C01C08F049FEA7EBCA00C0B2C8B10021AD
:100CC400002C12D513E06A6852688A18D3785B083E
:100CD400D3706A6852688A181379DB0703D5D3780E
:100CE40043F08003D370491CC9B28C42EBDA401E36
:100CF400E5D1A8684068407910F0070015D069680C
:100D040049686118C0F108008A7802FA00F0887016
:100D1400AA686868526840685279201802F007028D
:100D24008178C2F10802D1408170E61CA968686824
:100D3400496840684978417068684068847016E181
:100D4400022110E1002C00F00B817E2C80F208813E
:100D54002246394628460AF045FA060040F0078143
:100D64002246394628460EF08FFD060040F0FF80EB
:100D740000A8DFF8C019782208F0F6FD002600204C
:100D840000A94A88BA4224BF0A88974215D24A89E0
:100D9400401C80B2BA4224BF0A8997420DD24A8AC3
:100DA400401C80B2BA4224BF0A8A974205D2401C32
:100DB40080B218310F28E4D315E000A901EBC00379
:100DC400E1195888401C884208DB5B682246394692
:100DD400284698472846FFF7E4FC03E0022128460A
:100DE400FFF7D2FC0646002E40F0C1800221BAE093
:100DF400002C00F0B5807E2C80F2B2802246394669
:100E040028460AF0ABF9060040F0B1802246394684
:100E140028460EF0F1FC060040F0A9801EA8DFF879
:100E24001819502208F0A0FD002600201EA94A88A7
:100E3400BA4224BF0A8897420DD24A89401C80B224
:100E4400BA4224BF0A89974205D2401C80B21031AD
:100E54000A28ECD315E01EA901EBC003E119588858
:100E6400401C884208DB5B6822463946284698477E
:100E74002846FFF796FC03E002212846FFF784FC8E
:100E84000646002E73D102216DE0002C18BFB4F584
:100E94007F4F65D1A7F5C040802809D22846FFF7C7
:100EA40093FC064622463946284606F02BF85EE0B7
:100EB400022158E02246394628460AF0CCF90600B9
:100EC40055D12246394628460EF024FD06004ED15F
:100ED40000A8DFF8941D782208F046FD00260023C0
:100EE40000A84188B94224BF01888F4215D24189A4
:100EF4005B1C9BB2B94224BF01898F420DD2418A47
:100F04005B1C9BB2B94224BF018A8F4205D25B1C91
:100F14009BB218300F2BE4D30DE0224600AC04EB57
:100F2400C30339465B6828469847060003D1284620
:100F3400FFF74AFC0646D6B9022114E084B17C2CA2
:100F44000EDA817940794006B1EB106F08D1224660
:100F5400394628460EF017FD060008D1022102E0AA
:100F6400032100E001212846FFF70EFC06466868CD
:100F74004068F6B24246314609F0CAF869684968E1
:100F84007052B41C00206884E0B233B0BDE8F08530
:100F9400DC300020FC9804080014014000100140DB
:100FA40010B50446DFF8C40C0068B0F5967F05D888
:100FB400DFF8BC0C0FF0CDFD00283BD02046FFF736
:100FC40034FB0028204602D0FFF71EFC24E0FFF784
:100FD40059FB80B3DFF8840DB0F8B415052904BFBC
:100FE40000F27440844226D02046FFF7E9FD08B39E
:100FF400616800224A8084F82C2004F12C010A7FC5
:1010040002F0FB020A77211D4A68526812781AB16D
:10101400CA8B0A8461684880DFF8F00C408900EBD1
:1010240080014800DFF8E81C088040F6B831DFF89A
:10103400E40C018010BD204609F082FF0028204600
:1010440002D009F0B5FFD2E7FFF71CFB68B1DFF867
:101054000C0DB0F8B415052904BF00F274408442A5
:1010640003D120460FF0CAFEC1E72046FFF755FB27
:101074000028204602D008F0F5FECDE708F0ADFFC9
:101084000028C9D110BDF0B5044687B0A0684568F2
:101094004088811E4FF6FF7289B2284609F038F85D
:1010A40009F035FDA1684A884968531833F8023CB1
:1010B400834204BFE878824240F09A802A78512A19
:1010C40018BF522A04D0532A18BF542A40F09080E3
:1010D4006A78502A04BFAA78C52A2AD1122802BFE6
:1010E400C88841F25732904202BF088942F26841EF
:1010F40088421ED1DFF82C060168C1F34021002983
:1011040076D1DFF8681B0968332971D304F12C0107
:101114000A7FC2F3C00333B942F008020A77C82237
