:020000040800F2
:20000000E8170020191E00086D1C00087B1C00087D1C00087F1C0008811C00080000000069
:20002000000000000000000000000000831C0008851C000800000000871C0008891C000818
:20004000351E0008391E00083D1E0008411E0008451E00089B1C0008491E00084D1E000810
:20006000511E0008551E0008591E0008DB1C00085D1E0008611E0008651E0008691E0008EC
:200080006D1E0008711E0008751E0008791E00087D1E0008811E0008851E0008891E000858
:2000A0008D1E0008911E0008951E0008991E00089D1E0008A11E0008A51E0008A91E000838
:2000C000AD1E0008B11E0008B51E0008B91E0008BD1E0008C11E0008C51E0008C91E000818
:2000E000CD1E0008D11E0008D51E0008D91E0008DD1E0008E11E0008E51E0008E91E0008F8
:20010000000000000000000000000000ED1E0008F11E0008F51E0008F91E0008FD1E000858
:20012000011F0008051F0008091F00080D1F0008111F0008151F0008000000000000000093
:20014000191F00081D1F0008211F00080000000000000000000000000000000000000000D3
:200160000000000000000000251F0008291F00082D1F00080000000000000000000000008F
:2001800000000000311F00082DE9F84FDFF87848DFF878782088DFF87858DFF878A8DFF82F
:2001A0007888DFF8786847F230518842BCBF64302080387800284FF4805947D03088C0F3DF
:2001C000C010F8B9A8F8189040F23F37B8F80000400504D53946504600F0DDFC48B10020E9
:2001E0002080394650460162C046504600F0CFFC7DE02088B0F5FA6F79DD308840F08000BF
:20020000308074E0C8F80890002040212080504600F0C1FCDFF8084810B92078002866D137
:200220002078397888420BD20146802908DA401C2070DFF8F007095C504600F0A4FC56E081
:20024000002038702070A8F8189050E02021504600F0A1FCDFF8D077DFF8D0B708B330887B
:20026000C0F3C001E9B921804FF67F7108403080504600F08CFC9BF8001080290A460DDA09
:20028000521CD2B2C855012A02D13878502803E0022A03D17878542818BF00228BF800203E
:2002A00025E02088B0F5FA6F23DD9BF80000082809DBF978884206D1DFF874170870308838
:2002C00040F008003080A8F8189000208BF80000208041F28831308840F0800030802888F7
:2002E000401C288080B2884203DB00F020FD00202880BDE8F18F2DE9F041DFF83867DFF892
:2003000038573088DFF83447DFF8107747F230518842BCBF64303080287840F23F3888B31F
:200320003888C0F3801068B9DFF8EC060088000751D500F073F800284DD13088B0F5FA6FB4
:200340006ADD65E000204021308000F068F8DFF8F06610B9307800285ED130782978884288
:200360000CD20146802909DA401C3070DFF8D406095C2046BDE8F04100F005BC0020287015
:20038000307049E0202100F04AF8DFF8BC56F8B13888C0F30011D9B931804FF6BF7108400B
:2003A0003880204600F0F3FB2978802934DADFF89C36C854481C28701978512905D1C0B2D5
:2003C000022829D15878202826D00020287023E000F024F850B10020308041462046016203
:2003E000C0462046BDE8F04100F0D1BB308841F28931884210DB2878202806D1DFF85016E9
:200400000870388840F010003880002028703080388840F040003880BDE8F0814146204659
:2004200000F0B9BB70B5DFF82806DFF8206605784FF6FF74A81E2246314680B200F0CEFA0D
:20044000A919C3B211F8022D9A4202BF49780004B1EB106F37D1DFF8FC15DFF8FC05DFF811
:20046000E45508608021284600F0A2FC5420287022465120687029460020A870E8702871E9
:2004800068710820A8711520E871DFF8D00500882872000A6872DFF8C8050088A872000AB2
:2004A000E872DFF8C00500882873000A68730020A8730F2000F092FAE873000A2874112026
:2004C000DFF87415087070BD2DE9F84FDFF86005DFF854650478A01E314680B200F060FAC1
:2004E000A019801EDFF8802541781278914201BF0078DFF878150978884240F03182DFF872
:2005000024458021204600F053FC54202070002550206070B778B179707A337A96F807C07E
:20052000A52F0A4625D1572A08BFBCF1130F35D1682B08BF242831D1C520A0701225572039
:20054000A0711320E0716820207224206072DFF80C050088A072000AE072DFF80405008890
:200560002073000A6073DFF8FC040088A073000A13E0A62F13D1C620A07012250020A07185
:20058000E07120726072DFF8E8040088A072000AE072002020736073A073E073CAE1A42F83
:2005A0001BD1CD2A08BFBCF1AB0FF7D1BA2B08BFDC28F3D1C420A0700C25CD20A071AB2000
:2005C000E071BA202072DC206072DFF8A8040188002901D119210180ACE1C327A770102907
:2005E000DFF89474DFF89484B7F800E0DFF89074DFF89094DFF890B44FF6FF7A0AD01229DA
:2006000000F0C880132900F0F880142900F05B812029E1D15FEACE70DED542F20C001EEA78
:20062000000FDFF8681428D1DFF86474384600F0A7FC83460821DFF8DC030162C046BBF1E2
:20064000040F15D100F095F940F024000880DFF84414DFF84404A0F800A00D60DFF83C043D
:200660000760012089F80000B07989F803008AE0DFF80414082008805CE142F2240000EA3C
:200680000E002428F8D189F802503D6087F800C07B70707ADFF80834B870B07AF870386846
:2006A0001860DFF8F8331B68984238BF89F8015007D3834206D2012089F800000A2089F8D6
:2006C000010037E11B0ADFF8DCC389F801501B02CCF80030102A96F803C0DFF8CCA30CD1D5
:2006E000ACF10D01AAF800100B23B8F800218A18A8F8002110FA81F215E0ACF11102AAF877
:2007000000200F23B8F800C16244A8F800213D60F27A3A70327B7A70727BBA70B27BFA70B7
:200720003A688A4201D389F80050DFF870130A60C0B2BAF8002000EB08071AB199193846A9
:2007400000F0D6FCD4480288BAF80000394600F045F9D1490880D149D24809680068090A10
:200760000902814215D0CB49B8F80021096811FA82F1C84A1160A8F80051CC49CC4A00F063
:2007800002F900F007F9FF224FF48071404600F0EBFCCFE00021002B08BF282889F8001019
:2007A0001DD1B07A002804BFF07A082817D100F0D9F80120B0490880122000F0DEF82572C2
:2007C0000820E072A57201208BF800000E250020ABF808A0CBF80400CBF80C00AAE0922074
:2007E00000F0CBF821720820E072A17202200E258BF80000CBF80C109CE042F2240000EAB1
:200800000E00242889F8005014D1B8F8000188B1A048B8F800110068A54A10FA81F09D497D
:200820000860A8F800519F48A049006800F0ABF800F0B0F83D60307A3870707A7870B07A11
:20084000B870F07AF8701320A071F079E071924800886072010A21728E493A6809688A4218
:2008600018D100291FBF844B1B88C3F34015002D10D043F08002804B1A80ABF80800032214
:200880000020CBF80C008BF80020CBF8041000F069F816E09BF80000032804BFDBF8040050
:2008A000824206D128B1BBF808006072010A217207E09320A07104208BF800000020CBF864
:2008C0000C000C2536E0CEF3C01000B34FF67F70694900EA0E00088076495F4800F076FB54
:2008E00080B100F046F840F0400008801420A071F079E071ABF808A005208BF80000CBF8EC
:20090000045014E09420A071F079E07111E09BF80000052804D11420A07184F807C008E01A
:200920009420A07184F807C006208BF80000CBF80C500A25E570504800882071000A6071D7
:2009400075B1A81E214680B200F02AF847490978281900F8021D4449097841702B480570F0
:20096000BDE8F18F4C484B49A0F800A00020086070474148404900887047A07184F807C00E
:20098000282060727047086000F1FF011160424600F031BB18B938494FF400500880704734
:2009A000F0B5314A314B444D444EFF2414701C7000240FE0177811F801CB8CEA070793F8BF
:2009C00000C017F806E08EEA0C0C82F800C0641C7F5D1F70A4B28442ECD3F0BDF0B5130A63
:2009E0000024354D354E07E011F8017B5F40641CBB5D53407A5DDBB2A4B28442F4D3D2B2CD
:200A000042EA0320F0BD0000C4130020DD130020C213002000380140100000489413002046
:200A2000DE1300204C110020CC110020DF130020DC130020C6130020E0130020004400407A
:200A4000E11300204C120020E2130020CC120020E313002088130020EC290008CE13002002
:200A6000D0130020D2130020E4130020E5130020F01F0008D61300209813002048100020DC
:200A800090130020A0130020781300200080000800280008B4130020D8130020AC1300208C
:200AA000A8130020B0130020DA130020B8130020BC130020AA55FFFF741A00087419000869
:200AC00030B5044697B020684008400020600D466068A96820F44050084360602449206840
:200AE000084069680843E9680843296908432060A068696920F440700843A06000A800F018
:200B0000CEFB1748844208BF0E980ED01548844208BF0F9809D01448844208BF109804D0CD
:200B2000124884420CBF1198129829682268120448BF4000B0FBF1F201FB1200B0EB510F68
:200B4000206828BF521C000406D54FF6F0701040C2F3420141EA0002A28117B030BD0000E8
:200B6000003801400044004000480040004C0040F3E9FFFF0029016812BF41F001014908A3
:200B8000490001607047C905C90D01857047808CC005C00D7047C0690022084218BF01222F
:200BA0001046704780B500F010F800214FF0006000F02CFDBDE8014051E080B500F0B7F837
:200BC00000F0A1F8BDE80140E0E000B597B000F0E9FA012000F00AFB00F00EFB0028FBD015
:200BE000012827D1002000F045FB4FF4806000F047FB002000F04AFB022000F011FD4FF477
:200C0000E0114FF4803000F014FB012000F01CFB192000F0B2FC0028FAD0022000F01CFBD7
:200C200000F022FB0828FBD100A800F038FB012000F00EFB0121012000F084FC01214FF4AE
:200C4000602000F07FFC01214FF4003000F08CFC01214FF4804000F07EFC17B000BD00B5D4
:200C600083B001214FF4003000F06CFC072209214FF0904000F087FD07220A214FF090401B
:200C800000F081FD4FF4007000F02BF84FF4806000F027F84FF4805000F017F802208DF835
:200CA00007004FF0904000F039FD01214FF4802000F048FC4FF4E24000F007F800208DF8C6
:200CC00007002C4800F02AFD07BD009000A901208DF8040000208DF8060003208DF8050083
:200CE0007047009000A902208DF8040000208DF8060003208DF8050000208DF807004FF016
:200D0000904000F00BBD1C48006842F21071B0FBF1F0401EB0F1807F08D21849184A4860FB
:200D2000F02010700020886007200860704730B587B0002001900290039005904FF4964431
:200D40000C200490009400A90E4D2846FFF7B8FE01212846FFF70EFF009400A90A4C204695
:200D6000FFF7AEFE01212046FFF704FF07B030BD00000000000400484400002010E000E02C
:200D800023ED00E0003801400044004080B545F2555000F00BFD032000F00BFD40F6A66006
:200DA00000F00AFD00F00BFDBDE8014000F00CBD002200F015BD50F8041B61B150F8042BD1
:200DC000D30744BFA9F101039A180023091F42F8043BFAD1EFE77047AC48AD49002201E0DD
:200DE00020F8022B8142FBD2704710B5A94CAA48206045F2AA51008888420ED1A748008861
:200E0000884204D15A2000F0B8FB012805D100F0C8FBA348606000688047A248016841F006
:200E20000101016000F002F8002010BD38B59B499D4C9E4D0020086001209D4908700320A9
:200E400091490880FFF7C8FFFFF7ACFEFFF7B5FE00F034F8974902200880042096490880F9
:200E60004FF0FF319548C160002101709448017041702888B0F5FA6F06DB2088C0F340102B
:200E800010B9288000F09BFC00F0DAFC2088C0F3C00030B1FFF718FB20884FF6F7710840F2
:200EA00020802088C0F300100028E2D0FFF7BAFA20884FF6EF7108402080DAE7F0B581483F
:200EC000744C4FF48071018000227F490A8000237E4A138045F2AA556F4B23601C88AC42A6
:200EE00004BF1C7A4C2C47D15C7A702C04BF9C7AF02C41D1DC7A7C2C04BF1C7B0F2C3BD1F1
:200F00005C7BC02C04BF9C7B3F2C35D1704C2578632D04BF6578C12D2ED1A578F82D04BF48
:200F2000E5780F2D28D12579F02D01BF6579072DA579FE2D20D1674E002737800725664FE4
:200F4000B6F800C015F807E06D1CF444202DA6F800C0F5DB1B8D1FFA8CF59D420CD10025D0
:200F60005E4BEE5DEE546D1C292DFADBDD890580188A088060891080FF2059490880F0BD03
:200F80007CB5044604208DF8000000250E46019500F04EFB342000F093FB301BC00A01906D
:200FA0000AE004EBC526304600F04EFB304600F04BFB8DF800006D1C0198854203D29DF83A
:200FC00000000428EDD09DF8000076BD38B504460D4600F02DFB352000F072FB2946204637
:200FE00000F04AFB2168A94208BF042801D0002032BD012032BD2DE9F84F044604208DF815
:2010000000008A463748384F8442934633D33748824530D2254600264FF0FF38DFF8789027
:2010200000E02D1D55450CD2F6B25BF82610761C4D4508BF4146284600F01EFB0428F0D008
:20104000FEE70121002039800CE0C0B25BF820102268401C4C4508BF41468A421CBF002142
:201060003980241D544506D29DF80010042904BF39880129E9D09DF80000042806BF388886
:2010800001280020BDE8F28F052004E000010020E613002088130020EC29000800000020A6
:2010A000042800089C13002094130020CA130020480000204A110020C013002078130020E8
:2010C000A0130020D2130020CE130020D0130020162A0008C8130020F42900084C1300204D
:2010E000D413002000280008CC1300200080000862B38B0708D0521E11F8013B00F8013BCA
:2011000000F024808B07F6D1830740F0208000BF103A07D330B4B1E83810103AA0E83810C6
:20112000F9D230BC530724BFB1E80810A0E8081044BF51F8043B40F8043BD20724BF31F883
:20114000022B20F8022B44BF0B7803707047083A07D3B1E80810083A40F8043B40F804CBE0
:20116000F7D25307E4E7000062F30F2262F31F4200B500BF130096469446103928BFA0E850
:201180000C50FAD85FEA417C28BF0CC048BF40F8042BC90728BF20F8022B48BF00F8012BD3
:2011A00000BD0000DFF82004DFF82024016841F001010160416811404160DFF8142401684C
:2011C00011400160DFF80C24016821F480210160416821F4FE014160C16A890B8903C1620A
:2011E000016B11400163002181607047DFF8E81300220A700870704710B582B000200090D1
:201200000024112000F0B9F90099491C00910099B1F5A04F01D00028F3D0112000F0ADF997
:2012200000B10124204616BD0A600A68104308607047DFF8A823136823F4741313600843D8
:201240001368184310607047DFF8941308607047DFF8901308607047DFF880130A689208E5
:2012600040EA820008607047DFF87003006800F00C007047DFF864130A6822F0F002D5E7BE
:20128000DFF858130A6822F4E062CFE7DFF84C130A6822F4605242EAC00008607047F0B56C
:2012A000DFF83813DFF840230C68002304F00C04082C13D10B680C68C3F383439B1CE4031E
:2012C00003D4DFF82843634306E08C6A04F00F04641CB2FBF4F463431C4600E014460460B1
:2012E0000D68DFF80C43C5F303152D5D076827FA05FCC0F804C00E68C6F30226365D2CFADC
:2013000006F686600E68C6F3C226365D2CFA06FEC0F80CE0D1F828C0CCF3041C0CF00F0ECA
:2013200004EB4E0E5FEACC6CBEF810E004D5BEF1000F18BFB3FBFEF707618F6AC7F34427A4
:2013400007F00F0C04EB4C04FF06248A03D514B1B3FBF4F400E004684461CC6AE40654BF32
:20136000144604688461CC6AA40654BF14460468C461CC6A640654BF1446046804625C00A9
:20138000CF6AFF0505D507689F4204BFAE42274600D0C7684762CF6AFF0405D507689F42B8
:2013A00004BFAE42274600D0C7688762CF6ABF0505D507689F4204BFAE42274600D0C768DF
:2013C000C762CF6A7F0505D507689F4204BFAE42274600D0C768C764CF6A3F0505D50768ED
:2013E0009F4204BFAE42274600D0C7680765CF6ABF0405D507689F4204BFAE42446501D02E
:20140000C7680765CF6A3F0404D507689F4208BFAE4200D0C46884654FF40043CC6A14F030
:20142000030F08BF846805D0CC6A04F00304012C02D1046884630CE0CC6A04F00304022C43
:2014400008BF836305D0CC6A04F00304032C08BF8263CC6A14F4403F08BF846806D0CC6A82
:2014600004F44034B4F5803F02D10468C4630EE0CC6A04F44034B4F5003F08BFC36306D0F7
:20148000CC6A04F44034B4F5403F08BFC263CC6A14F4402F08BF846806D0CC6A04F44024CE
:2014A000B4F5802F02D1046804640EE0CC6A04F44024B4F5002F08BF036406D0CC6A04F4A3
:2014C0004024B4F5402F08BF0264CC6A14F4401F08BF846806D0CC6A04F44014B4F5801F73
:2014E00002D1046844640EE0CC6A04F44014B4F5001F08BF436406D0CC6A04F44014B4F55E
:20150000401F08BF4264CC6A14F4400F08BF816806D0CC6A04F44004B4F5800F02D1016806
:201520008164F0BDCC6A04F44004B4F5000F01D18364F0BDC96A01F44001B1F5400F08BF64
:201540008264F0BD2B4A0029116814BF084321EA000010607047284A0029116814BF08435F
:2015600021EA000010607047244A0029116814BF084321EA0000106070474109124A08BF6C
:20158000116807D0012908BF116A03D004290CBF5168516A00F01F0021FA00F202F0010041
:2015A00070471748016841F0807101607047154A12680021024218BF0121084670471249DB
:2015C00008707047000000000010024000C0FFF8FFFFF6FECCEC000F021002400410024070
:2015E000600042424C00424200127A0000093D000400002014100240181002401C10024003
:2016000024100240081002400A100240024A1140084302490860704780FFFF1F08ED00E0DA
:20162000DFF8C4100A68920840EA820008607047DFF8B800C168090605D5DFF8B41001608B
:20164000DFF8B0100160704738B5044600F035F8042810D1DFF8A050286840F00200286069
:201660006C60286840F04000286000F026F8296821F00201296032BD70B582B00646002028
:2016800000900C4600F019F8042814D11A4D286840F001002860348000F00FF8042806D1F8
:2016A000B01C0090200C0099088000F006F8296849084900296076BD20604FF430201FE09A
:2016C0000E49086070470D490A680420D20701D5012070470A68D20601D5022070470968B7
:2016E000490748BF03207047002002400420024023016745AB89EFCD102002400C20024051
:2017000010B50446FFF7DFFF03E02CB1FFF7DBFF641E0128F9D004B9052010BDF0B500226C
:2017200001230C6893401C409C4228D154000325A5400E79ED43012E18BF022E10D18668EE
:201740002E40866086684F79A7403E438660868826EA0303838083888E79964033438380A9
:2017600003682B40036003680E79A64033430360C3682B40CD7905FA04F42343C360521CB5
:20178000102ACDD3F0BD10B5CB0800EB830001F007018900036A0F248C40A343036202FA87
:2017A00001F1036A1943016210BD000009490860704709490860704708490860704705499E
:2017C0004AF6AA200860704702494CF6CC40086070470000003000400430004008300040CC
:2017E000401810F0030308D0C91A1FD3DB0748BF00F8012D28BF20F8022D130030B4144650
:201800001546103928BF20E93C00FAD8490728BF20E90C0048BF40F8042D890028BF20F8E2
:20182000022D48BF00F8012D30BC7047C91818BF00F8012DCB0728BF00F8012D7047000035
:2018400010B5414C2078C00706D500F011F820884FF6FE71084020802088C0F3400030B143
:2018600000F01AF820884FF6FD710840208010BD3648016811F1010F1CBF491C0160344840
:20188000018841B1491E018089B221B92E48018841F020010180704738B52E48C16864292E
:2018A00002D2491CC16006E0002101704FF6FF7101810021416042F225022748274900889B
:2018C0000240252A3BD10A78012A36D1244C2278002A38D18A780A2A35DA4B785B1C4B7040
:2018E000DBB20A2B2FDB521C8A7000231D4D4B7054222A70287150226A70000AC322AA706E
:2019000068710D22EA70C87840F08000A87116480068E871010A2972010C000E6972A87287
:2019200029460B20FFF73CF810480078E8721048007828730D20207031BD002001E0002082
:2019400008704870887031BD94130020A4130020D61300207813002098130020A013002081
:20196000DD1300204C110020AC130020E5130020E413002000C1814001C0804101C0804146
:2019800000C1814001C0804100C1814000C1814001C0804101C0804100C1814000C1814037
:2019A00001C0804100C1814001C0804101C0804100C1814001C0804100C1814000C1814017
:2019C00001C0804100C1814001C0804101C0804100C1814000C1814001C0804101C08041F7
:2019E00000C1814001C0804100C1814000C1814001C0804101C0804100C1814000C18140D7
:201A000001C0804100C1814001C0804101C0804100C1814000C1814001C0804101C08041B6
:201A200000C1814001C0804100C1814000C1814001C0804100C1814001C0804101C0804196
:201A400000C1814001C0804100C1814000C1814001C0804101C0804100C1814000C1814076
:201A600001C0804100C1814001C0804101C0804100C1814000C0C101C30302C2C60607C736
:201A800005C5C404CC0C0DCD0FCFCE0E0ACACB0BC90908C8D81819D91BDBDA1A1EDEDF1F36
:201AA000DD1D1CDC14D4D515D71716D6D21213D311D1D010F03031F133F3F23236F6F73716
:201AC000F53534F43CFCFD3DFF3F3EFEFA3A3BFB39F9F83828E8E929EB2B2AEAEE2E2FEF76
:201AE0002DEDEC2CE42425E527E7E62622E2E323E12120E0A06061A163A3A26266A6A76756
:201B0000A56564A46CACAD6DAF6F6EAEAA6A6BAB69A9A86878B8B979BB7B7ABABE7E7FBFB5
:201B20007DBDBC7CB47475B577B7B67672B2B373B17170B050909151935352929656579795
:201B4000559594549C5C5D9D5F9F9E5E5A9A9B5B99595898884849894B8B8A4A4E8E8F4FF5
:201B60008D4D4C8C448485458747468682424383418180403648374A82B0016841F470013B
:201B800001603548016841F001010160416811404160324A016811400160314A016821F43F
:201BA00080210160416821F4FE014160C16A09090901C162016B11400163002181600191A6
:201BC0000091016841F480310160016801F4003100910199491C0191009919B90199B1F568
:201BE000A04FF2D10168490C01F0010100910099012926D11B4A122111604168416041683B
:201C00004160416841F480614160416821F47C114160416841F4E8114160016841F08071D4
:201C2000016001688901FCD54168890889004160416841F002014160416801F00C010829C5
:201C4000FAD14FF000600849086002B07047000088ED00E00CC07FF800100240FFFFF6FE1C
:201C6000CCFC00FF0020024008ED00E080B58020FFF79DFC00B1FEE701BDFEE7FEE7FEE7FF
:201C8000FEE770477047704780B500F027F8FEF77BFABDE80140FEF72EBB80B50820FFF775
:201CA00086FC48B10820FFF78AFC1120FFF765FC10B10120FFF7C8FA1020FFF778FC58B140
:201CC0001020FFF77CFC1920FFF757FC20B1BDE802400220FFF7C0BA01BD704730B51348E5
:201CE000134A0188134C6431018013480188643101801248018813882588491C5B1C6D1CFF
:201D000089B2258064290E4C04DB258845F00105002125809BB2B3F57A7F018004DB208879
:201D200040F0020000232080138030BDC4130020C0130020CA130020C61300204A110020D3
:201D40009413002010B450F8041B79B10268436812180830DC0744BFA9F10104E31852F826
:201D6000044B43F8044B091FF9D1ECE710BC704710B5074979441831064C7C44163404E0E7
:201D80000A68081D511888470146A142F8D110BD2C0000004C0000004EF68851CEF200015E
:201DA000086840F470000860BFF34F8FBFF36F8F4FF00070E1EE100A70470000FBEFFFFF30
:201DC000A0130000480000200000000079FFFFFF44000000600100000400002000000000A9
:201DE0000120C046002801D0FFF7C2FF0020C046C046FEF7FAFF00F000F800F001B8000061
:201E00000746384600F002F8FBE700002021090326311820ABBEF9E7014880470148004766
:201E2000751B0008291E0008C046C046FFF7B4FFFFF7D6FFFFF7FEBFFFF7FEBFFFF7FEBF22
:201E4000FFF7FEBFFFF7FEBFFFF7FEBFFFF7FEBFFFF7FEBFFFF7FEBFFFF7FEBFFFF7FEBFEA
:201E6000FFF7FEBFFFF7FEBFFFF7FEBFFFF7FEBFFFF7FEBFFFF7FEBFFFF7FEBFFFF7FEBFCA
:201E8000FFF7FEBFFFF7FEBFFFF7FEBFFFF7FEBFFFF7FEBFFFF7FEBFFFF7FEBFFFF7FEBFAA
:201EA000FFF7FEBFFFF7FEBFFFF7FEBFFFF7FEBFFFF7FEBFFFF7FEBFFFF7FEBFFFF7FEBF8A
:201EC000FFF7FEBFFFF7FEBFFFF7FEBFFFF7FEBFFFF7FEBFFFF7FEBFFFF7FEBFFFF7FEBF6A
:201EE000FFF7FEBFFFF7FEBFFFF7FEBFFFF7FEBFFFF7FEBFFFF7FEBFFFF7FEBFFFF7FEBF4A
:201F0000FFF7FEBFFFF7FEBFFFF7FEBFFFF7FEBFFFF7FEBFFFF7FEBFFFF7FEBFFFF7FEBF29
:201F2000FFF7FEBFFFF7FEBFFFF7FEBFFFF7FEBFFFF7FEBF0000000001020304010203040E
:201F400006070809010002000400060008000A000C00100020004000800000010000000047
:201F6000000000000000000000000000010203040607080900A24A04FFFFFFFFFFFFFFFF51
:201F8000FFFFFFFFFFFFFFFFFFFFFFFFFFFFFFFFFFFFFFFFFFFFFFFFFFFFFFFFFFFFFFFF61
:201FA000FFFFFFFFFFFFFFFFFFFFFFFFFFFFFFFFFFFFFFFFFFFFFFFFFFFFFFFFFFFFFFFF41
:201FC000FFFFFFFFFFFFFFFFFFFFFFFFFFFFFFFFFFFFFFFFFFFFFFFFFFFFFFFFFFFFFFFF21
:201FE000FFFFFFFFFFFFFFFFFFFFFFFFFFFFFFFF0300000000000000000000000001FDFEF2
:20200000FFFFFFFFFFFFFFFFFFFFFFFFFFFFFFFFFFFFFFFFFFFFFFFFFFFFFFFFFFFFFFFFE0
:20202000FFFFFFFFFFFFFFFFFFFFFFFFFFFFFFFFFFFFFFFFFFFFFFFFFFFFFFFFFFFFFFFFC0
:20204000FFFFFFFFFFFFFFFFFFFFFFFFFFFFFFFFFFFFFFFFFFFFFFFFFFFFFFFFFFFFFFFFA0
:20206000FFFFFFFFFFFFFFFFFFFFFFFFFFFFFFFFFFFFFFFFFFFFFFFFFFFFFFFFFFFFFFFF80
:20280000C80F0020A568000829640008416400084364000845640008476400080000000057
:20282000000000000000000000000000496400084B640008000000004D6400084F640008B8
:20284000C1680008C5680008C9680008CD680008D168000857640008D5680008D96800080A
:20286000DD680008E1680008E56800089B640008E9680008ED680008F1680008F5680008E2
:20288000F9680008FD6800080169000805690008096900080D69000811690008156900087A
:2028A000196900081D6900082169000825690008296900082D690008316900083569000858
:2028C000396900083D6900084169000845690008496900084D690008516900085569000838
:2028E000596900085D6900086169000865690008696900086D690008716900087569000818
:20290000000000000000000000000000796900087D690008816900088569000889690008FD
:202920008D6900089169000895690008996900089D690008A1690008000000000000000067
:20294000A5690008A9690008AD690008000000000000000000000000000000000000000029
:202960000000000000000000B1690008B5690008B9690008000000000000000000000000E5
:2029800000000000BD690008010002000400060008000A000C0010002000400080000001ED
:2029A00000000000000000000000000001020304010203040607080900A24A0401000000F4
:2029C000FFFFFFFFFFFFFFFFFFFFFFFFFFFFFFFFFFFFFFFFFFFFFFFFFFFFFFFFFFFFFFFF17
:2029E000FFFFFFFFFFFFFFFFFFFFFFFFAA55FFFFFFFFFFFF4C70F07C0FC03F010022761902
:202A0000030600011001802500280008FF7F0008082014FF5D0463C1F80FF007FE00000084
:202A20000B14FFFFFFFFFFFF2DE9F04F89B0DFF87878DFF87888DFF87898DFF8780800789B
:202A4000032811DA002083465FFA8BFBBBF1460F09DA0020DFF860185FFA8BFB0BF8010062
:202A60001BF1010BF0E74AE2DFF84C18DFF844080078801E80B200F0EEFBADF80000DFF840
:202A80003808DFF830180978081810F8020CBDF80010C9B2884210D1DFF81C08DFF8141837
:202AA0000978081810F8010CBDF800104FF4807291FBF2F1C9B2884200D020E2DFF8F8070A
:202AC000007850286BD1DFF8F0074078542866D1DFF8E4078078A52861D1DFF8DC07C078E6
:202AE0000C285CD1DFF8D0078079572857D1DFF8C807C079132852D1DFF8BC07007A682846
:202B00004DD1DFF8B407407A242848D1DFF890078068C0F3C000002845D1DFF88407806895
:202B200050F00800DFF8781788601E20DFF88C170880DFF87007407810F0FE00DFF8641769
:202B40004870DFF86007007810F0FD00DFF854170870DFF85007007810F0FB00DFF844177D
:202B60000870DFF84007407810F0FD00DFF83417487000F074FE00F076FE45F2AA50DFF862
:202B8000401708800020DFF834170880DFF8340708900898006807900798804703E00020DA
:202BA000DFF82417087000F0ADF9DFF80C0780790002DFF8041749794018ADF80400BDF8A6
:202BC000040080B2400B82465FFA8AFABAF1040F01DB1AF1020ADFF8F4060690BDF80400FE
:202BE00006995FFA8AFA21F81A00DFF8CC068078222829D1DFF8D8060500002083465FFA45
:202C00008BFBBBF1130F80F29280DFF8AC065FFA8BFB10EB4B00C07A0002DFF89C165FFA10
:202C20008BFB11EB4B01897A50FA81F05FFA8BFB25F81B000020DFF89C165FFA8BFB21F850
:202C40001B001BF1010BDAE7DFF86C068078232828D1DFF880060500002083465FFA8BFBD1
:202C6000BBF1130F63DADFF850065FFA8BFB10EB4B00C07A0002DFF840165FFA8BFB11EBB3
:202C80004B01897A50FA81F05FFA8BFB25F81B000020DFF83C165FFA8BFB21F81B001BF1AB
:202CA000010BDBE7DFF81006807825283FD1DFF828060500002083465FFA8BFBBBF1130F64
:202CC00017DADFF8F4055FFA8BFB10EB4B00C07A0002DFF8E4155FFA8BFB11EB4B01897AD8
:202CE00050FA81F05FFA8BFB25F81B001BF1010BE2E7DFF8E405408880B2000ADFF8DC1595
:202D00004880DFF8D4058078C0B2DFF8D0158880DFF8C405808880B2000ADFF8C015C88035
:202D2000DFF8B4050079C0B2DFF8B0150881DFF8880580782228C0F29580DFF87C05807836
:202D4000262880F28F80DFF870050079332808D034280AD036280CD037281DD038281FD0A1
:202D60007EE0DFF87C0506007CE0DFF87805060078E04FF48870DFF87015088041F20B40EC
:202D8000DFF8641548804FF48070DFF85C158880DFF85405060065E0DFF85005060061E0AA
:202DA000DFF84C050490DFF84C050390DFF848050290DFF848050088732807DADFF83C05A6
:202DC0000088401CDFF83415088003E07020DFF82C15088000200400E4B2062C3CDADFF87B
:202DE0001C050088702805DBDFF8100500887038ADF80200BDF802000621484350FA84F0C8
:202E0000062101FB007000880499E4B2062202FB04110880BDF802000621484350FA84F07B
:202E2000062101FB008000880399E4B2062202FB04110880BDF802000621484350FA84F04C
:202E4000062101FB009000880299E4B2062202FB04110880641CBFE7DFF8A004060001E0BC
:202E600000200600002E42D05420DFF8941408705020DFF88C144870DFF83C040079DFF87B
:202E8000801488703220DFF87814C870DFF874040590002083465FFA8BFBBBF1280F0BDA45
:202EA0005FFA8BFB1BF8060005995FFA8BFB0BF801001BF1010BEEE7DFF84414302000F03D
:202EC000CAF9ADF80000BDF80000DFF8341481F83000BDF800004FF4807190FBF1F0DFF8E1
:202EE000201481F831003220DFF8DC130870DFF8B003006830F40070DFF8A413086009B02F
:202F0000BDE8F08F70B4DFF80004DFF80014DFF80024DFF80034DFF888532D69C5F3400558
:202F2000002D2BD0DFF8F0532D88002D07D1DFF8EC532D8855F00205DFF8E0633580DFF8D8
:202F4000D8532D886D1CDFF8D0633580DFF8D053ED8AC5F34005ADB2002D0FD0DFF8BC538A
:202F60002D8855F00805DFF8B4633580DFF830532D6935F00205DFF828633561DFF8385331
:202F8000AD79DFF8A06375700025DFF89C633570DFF888532D7815F00105002D03D0002525
:202FA000DFF888633580DFF874532D88C5F34005ADB2002D15D0DFF86853ED8A55F0010585
:202FC000DFF85C63F5820425DFF864633570DFF84C532D884FF6FD763540DFF840633580F1
:202FE00090E0DFF83C53ED8AC5F34005ADB2002D08D0DFF82C53ED8A55F48065DFF82063CE
:20300000F5827FE0DFF814532D88C5F38005ADB2002D6AD0AA25BA4EB5700125DFF80C637C
:20302000368865F30106DFF804532E80BD4D6D78012D06D066D3032D2DD017D3042D3FD014
:2030400060E04525B84E3570B64D6D78AC4EB57100252C00E4B23C2C07DAE4B2255CA84ED6
:20306000E4B2A619F571641CF4E74BE04525AE4E3570AC4D6D78A24EB57100252C00E4B229
:203080003C2C07DAE4B2655C9D4EE4B2A619F571641CF4E736E04525A34E3570A14D6D78A6
:2030A000974EB57100252C00E4B23C2C07DAE4B2A55C934EE4B2A619F571641CF4E721E046
:2030C0004525994E3570974D6D788D4EB57100252C00E4B23C2C07DAE4B2E55C884EE4B2BD
:2030E000A619F571641CF4E70CE08C4D2D88C5F30015ADB2002D05D0694D6D6855F400458F
:20310000674E7560664D6D68C5F3C035002D12D0634D6D6835F40045614E75605A25784E25
:20312000B5700225814E368865F301067F4D2E8008257D4E357070BC704780B57848C08A1E
:20314000C0F3400080B2002806D07848008850F004007649088006E0744800884FF6FB719E
:203160000840724908806E48C08AC0F3401080B2002806D06D48008850F008006B490880D0
:2031800006E06A4800884FF6F7710840674908806348C08AC0F3801080B2002806D06348CF
:2031A000008850F020006149088006E05F4800884FF6DF7108405D4908805B480078504921
:2031C000C8705A4800884E4908715848008880B2000A4B4948714A4953480078801E80B256
:2031E00000F015F85348007845494F4A1278511801F8020C5048007841494B4A127851187C
:2032000001F8010C484800782F49087001BD30B4FF24494D2C70FF24464D2C700024220021
:2032200092B280B2824214D2434C24780D786C402300491C3F4C2478404DDBB25D5D6C40E3
:203240003D4D2C703E4CDBB21C5D3A4D2C70521CE6E730BC704770B40200FF263000FF2617
:203260003500002633009BB292B293420ED20E7846403400491C314EE4B2A65D6E403000DF
:203280002F4EE4B2A65D35005B1CECE7C0B24FF48076EDB206FB005080B270BC70470000E9
:2032A000F00A0020500B00201C020020200200201E020020B70B0020D0070020920B002023
:2032C0000000002004000008B40B0020D80A0020100900203809002060090020040B00208F
:2032E00088090020B0090020D8090020000A00202A0A00202E0A00202C0A0020280A0020C5
:203300008807002090070020F4020020300300206C03002018080020A00B0020600B0020B9
:20332000C00A0020680B0020B50B0020640B0020C00B0020BF0B0020BE0B0020C8650008AE
:20334000C8660008B0480068C0F30220704710B440B2002808D50A01AC4B40B210F00F0489
:20336000E31803F8042C03E00A01A94B40B2C25410BC704770B4030013F00704D4F10706B3
:20338000052E01D3042001E0D4F10700261D072E01D2002500E0E51E012616FA00F0401E7D
:2033A0000840A8400121A940491E1140084370BC704710B50400601EB0F1807F01D3012010
:2033C0000EE0601E934908600F215FF0FF30FFF7BEFF0020904908600720904908600020F3
:2033E00010BD10B582B04FF420515FF0006000F090FA4FF4C06000F051FA0B208DF80000DE
:20340000874800788DF8010000208DF8020001208DF8030000A800F046FA8148007800284E
:2034200001D1012400E00024FFF78CFF0022E4B22100FFF79FFF01005FF0FF30FFF787FFA8
:2034400013BD00B583B001215FF4003000F0FBFD072209215FF0904000F0DAFE07220A2199
:203460005FF0904000F0D4FE4FF40070009002208DF8040000208DF8060003208DF8050025
:2034800000208DF8070000A95FF0904000F060FE4FF48060009002208DF8040000208DF867
:2034A000060003208DF8050000208DF8070000A95FF0904000F04CFE4FF4805000900120E7
:2034C0008DF8040000208DF8060003208DF8050002208DF8070000A95FF0904000F038FE6F
:2034E00001215FF4802000F0AEFD4FF4E240009001208DF8040000208DF8060003208DF82A
:20350000050000208DF8070000A9464800F020FEC020009000208DF8040000208DF80600F1
:2035200003208DF8050000208DF8070000A93D4800F00EFE07BD80B53B48006842F210716F
:20354000B0FBF1F0FFF735FF01BD00B58BB0002001900020029000200390002005900C2010
:20356000049000200690002007904FF400700890002009904FF49640009000A92B4800F091
:2035800085FE0121294800F003FF4FF49640009000A9274800F07AFE0121254800F0F8FE85
:2035A0000BB000BD00B58BB00121012000F04BFD204800F00FFF20480090204801900020B1
:2035C00002900B20ADF80C0000200490802005904FF4807006904FF4806007902020089039
:2035E0004FF40050099000200A9000A9114800F076FF012202210F4800F09EFF01210D48DD
:2036000000F08CFF0BB000BD0CED00E018ED00E000E400E014E000E018E000E010E000E0B9
:2036200038000020000400483400002000380140004400400800024040000050580800203B
:2036400000B58DB04FF4807000F0DFFC01215FF0805000F0F8FC00A800F0D6FF01215FF077
:20366000A04001F030F800215FF0A04001F023F85FF0A04001F01AF8002008900020099052
:2036800008A95FF0A04000F0D0FF00200090002001900020029000200390002004900020F1
:2036A0000590002006900B208DF81C0000A95FF0A04000F089FF0323012201215FF0A04009
:2036C00001F012F80323022202215FF0A04001F00BF80323032203215FF0A04001F004F8D4
:2036E0000323042204215FF0A04000F0FDFF0323052205215FF0A04000F0F6FF0323062269
:2037000006215FF0A04000F0EFFF0323072207215FF0A04000F0E8FF0323082208215FF030
:20372000A04000F0E1FF0323092209215FF0A04000F0DAFF03230A220A215FF0A04000F0CA
:20374000D3FF03230B2210215FF0A04000F0CCFF01215FF0A04000F09CFF01215FF0A040FC
:2037600001F076F80028F8D001215FF0A04001F05AF802215FF0A04001F062F80DB000BD4F
:2037800080B545F2555001F079F8032001F07AF840F63C7001F07AF801F07CF801F07FF81E
:2037A00001BD80B54FF420515FF0006000F0B1F84FF4407000F072F81C208DF800000120EB
:2037C0008DF8010000208DF8020000208DF8030000A800F068F801BD10B598B000F0AEF8BB
:2037E000012000F0EBF800F0F1F80400E4B2012C30D1002000F044F94FF4A06000F04CF96F
:20380000002000F055F9022001F054F85FF4E0115FF4803000F0FAF8002000F00EF901208A
:2038200000F006F9192000F02CFC0028FAD0022000F014F900F01EF90828FBD100A800F09C
:2038400044F9012000F005F901214FF4804000F009FC02E001F023F8FEE718B010BD80B565
:20386000FFF79FFF01BD80B500215FF07C4001F0EDF801BD80B5FFF7AFFFFFF7B2FDFFF78D
:20388000E0FD01BD80B5FFF78DFEFFF7D9FEFFF75CFEFFF750FEFFF773FF01BD20490143A3
:2038A000204A1160704770B4002400220F23C178002922D01B49096811F4E061D1F5E06164
:2038C000090A0C00D4F104010A0019000B00E340417891400C00817819400C4324011249F7
:2038E00005786C540121057815F01F05A9400F4D0678761145F8261009E00121057815F079
:203900001F05A9400A4D0678761145F8261070BC7047084A0A400243074B1A607047000084
:203920000000FA050CED00E000E400E000E100E080E100E080FFFF1F08ED00E0DFF8C007D9
:20394000006850F00100DFF8B8170860DFF8B4070068DFF8B4170840DFF8A8170860DFF8F7
:20396000A0070068DFF8A4170840DFF894170860DFF88C07006830F48020DFF88417086004
:20398000DFF88007006830F4FE00DFF878170860DFF87C070068800B8003DFF874170860D7
:2039A000DFF870070068DFF870170840DFF8641708600020DFF86417086070470021DFF868
:2039C00060271170DFF858170870704738B50020009000240025112000F053FB0500009878
:2039E000401C00900098B0F5A04F02D0EDB2002DF1D0112000F045FB002802D001200400D0
:203A000001E0002004002000C0B232BDDFF8F426126832F47412DFF8EC361A60DFF8E426B5
:203A2000126851EA00031A43DFF8D8361A607047C0B2DFF8F416086070470021DFF8D026FB
:203A400012681100090909010143DFF8C42611607047C0B2DFF8D416086070470021DFF848
:203A6000A42612681100890889000143DFF8942611607047DFF88C06006810F00C00704746
:203A80000021DFF880261268110031F0F0010143DFF87026116070470021DFF86826126812
:203AA000110031F4E0610143DFF85826116070470021DFF850261268110031F4605151EAC4
:203AC000C001DFF84026116070472DE9F04100210022002300240025002600275FF0000C22
:203AE000DFF820E6DEF800E01EF00C0E71468E46BEF1000F06D0BEF1040F08D0BEF1080F8C
:203B00000AD033E0DFF828E6C0F800E032E0DFF820E6C0F800E02DE0DFF8E8E5DEF800E04D
:203B20001EF4701E7246DFF8DCE5DEF800E01EF4803E7346920C921C002B05D1DFF8F4E559
:203B40000EFB02FE76460FE0DFF8C4E5DEF800E01EF00F0E1EF1010E7446DFF8D4E5BEFB2F
:203B6000F4FE02FB0EFE7646066003E0DFF8C0E5C0F800E0DFF88CE5DEF800E01EF0F00E27
:203B800071460909DFF8B0E511F80EE0F446D0F800E0F04638FA0CF8C0F80480DFF864E54F
:203BA000DEF800E01EF4E06E7146090ADFF888E511F80EE07546D0F804E0F04638FA05F81E
:203BC000C0F80880DFF83CE5DEF800E01EF4605E7146C90ADFF860E511F80EE07746D0F805
:203BE00004E0F04638FA07F8C0F80C80DFF820E5DEF800E01EF4F87E71460909DFF83CE55B
:203C000011F00F083EF818E075465FEAC16E06D5002D04D0B6FBF5FEC0F810E003E0D0F858
:203C200000E0C0F810E0DFF8E8E4DEF800E01EF4785E7146490ADFF804E511F00F083EF8A3
:203C400018E075465FEAC16E06D5002D04D0B6FBF5FEC0F814E003E0D0F800E0C0F814E0D6
:203C6000DFF8B0E4DEF800E05FEACE6E04D4DFF8C0E4C0F818E003E0D0F800E0C0F818E060
:203C8000DFF890E4DEF800E05FEA8E6E04D4DFF8A0E4C0F81CE003E0D0F800E0C0F81CE0B8
:203CA000DFF870E4DEF800E05FEA4E6E04D4DFF880E4C0F820E003E0D0F800E0C0F820E010
:203CC000DFF850E4DEF800E05FEACE5E0AD5D0F800E0B64506D1674504D15FEA460EC0F87F
:203CE00024E003E0D0F80CE0C0F824E0DFF824E4DEF800E05FEACE4E0AD5D0F800E0B645F1
:203D000006D1674504D15FEA460EC0F828E003E0D0F80CE0C0F828E0DFF8F8E3DEF800E02F
:203D20005FEA8E5E0AD5D0F800E0B64506D1674504D15FEA460EC0F82CE003E0D0F80CE07C
:203D4000C0F82CE0DFF8CCE3DEF800E05FEA4E5E0AD5D0F800E0B64506D1674504D15FEA4B
:203D6000460EC0F84CE003E0D0F80CE0C0F84CE0DFF8A0E3DEF800E05FEA0E5E0AD5D0F824
:203D800000E0B64506D1674504D15FEA460EC0F850E003E0D0F80CE0C0F850E0DFF874E3BE
:203DA000DEF800E05FEA8E4E0AD5D0F800E0B64506D1674504D15FEA460EC0F854E003E0E2
:203DC000D0F80CE0C0F850E0DFF848E3DEF800E05FEA0E4E0AD5D0F800E0B64506D16745E5
:203DE00004D15FEA460EC0F858E003E0D0F80CE0C0F858E0DFF81CE3DEF800E01EF0030F2E
:203E000004D1D0F808E0C0F838E028E0DFF804E3DEF800E01EF0030EBEF1010F04D1D0F856
:203E200000E0C0F838E01AE0DFF8E8E2DEF800E01EF0030EBEF1020F04D14FF4004EC0F884
:203E400038E00CE0DFF8CCE2DEF800E01EF0030EBEF1030F03D1DFF8D8E2C0F838E0DFF837
:203E6000B4E2DEF800E01EF4403F04D1D0F808E0C0F83CE028E0DFF89CE2DEF800E01EF4E7
:203E8000403EBEF5803F04D1D0F800E0C0F83CE01AE0DFF880E2DEF800E01EF4403EBEF5B5
:203EA000003F04D14FF4004EC0F83CE00CE0DFF864E2DEF800E01EF4403EBEF5403F03D134
:203EC000DFF86CE2C0F83CE0DFF848E2DEF800E01EF4402F04D1D0F808E0C0F840E028E04C
:203EE000DFF830E2DEF800E01EF4402EBEF5802F04D1D0F800E0C0F840E01AE0DFF814E225
:203F0000DEF800E01EF4402EBEF5002F04D14FF4004EC0F840E00CE0DFF8F8E1DEF800E0F9
:203F20001EF4402EBEF5402F03D1DFF804E2C0F840E0DFF8E0E1DEF800E01EF4401F04D1E2
:203F4000D0F808E0C0F844E028E0DFF8C8E1DEF800E01EF4401EBEF5801F04D1D0F800E058
:203F6000C0F844E01AE0DFF8ACE1DEF800E01EF4401EBEF5001F04D14FF4004EC0F844E0CD
:203F80000CE0DFF890E1DEF800E01EF4401EBEF5401F03D1DFF898E1C0F844E0DFF874E189
:203FA000DEF800E01EF4400F04D1D0F808E0C0F848E028E0DFF85CE1DEF800E01EF4400E53
:203FC000BEF5800F04D1D0F800E0C0F848E01AE0DFF840E1DEF800E01EF4400EBEF5000F78
:203FE00004D14FF4004EC0F848E00CE0DFF824E1DEF800E01EF4400EBEF5400F03D1DFF8F0
:2040000030E1C0F848E0BDE8F0810021020F1100002908D0DFF8F820126832F47852DFF825
:20402000F0301A6007E0DFF8E820126832F4F872DFF8DC301A60DFF8D82012680243DFF854
:20404000D0301A607047C9B2002905D03C4A126802433B4B1A6004E0394A12688243384B48
:204060001A607047C9B2002905D0364A12680243344B1A6004E0334A12688243314B1A60C8
:20408000704710B40100002200230020C9B24C09E4B22200002A03D1194C246823000EE0B7
:2040A000012A03D11F4C2468230008E0042A03D1144C2468230002E0234C24682300C9B273
:2040C00011F01F0422001C00D440E40702D50124200001E000242000C0B210BC7047010048
:2040E00000200E4A1268C9B20A4202D00122100001E000221000C0B270471449087070473A
:20410000001002400410024000C0FFF8FFFFF6FE2C10024030100240CCEC000F081002402D
:204120000210024020100240600042424C00424200127A0000093D002400002004000020CB
:204140001410024018100240241002400A100240F0B4002200230024002500263200102AF9
:2041600054D20126964033000E681E4034009C424AD10E79012E02D00E79022E1FD18668CB
:20418000032794465FFA8CFC5FEA4C0C17FA0CF7BE43866086684F7994465FFA8CFC5FEAE4
:2041A0004C0C17FA0CF73E438660868801279740BE43868086888F7997403E438680066836
:2041C000032794465FFA8CFC5FEA4C0C17FA0CF7BE43066006680F7994465FFA8CFC5FEAE4
:2041E0004C0C17FA0CF73E430660C668350003261700FFB27F00BE40B543CE791700FFB294
:204200007F00BE403543C560521CA8E7F0BC7047F0B400230024D2B211F00705EDB2AD005C
:2042200012FA05F52B0089B2CD1010EB850589B2CE1010EB8606366A0F2711F0070C5FFACD
:204240008CFC5FEA8C0C17FA0CF7BE432E6289B2CD1010EB85052D6A1D432C0089B2CD1078
:2042600010EB85052C62F0BC704750F8041B61B150F8042BD30744BFA9F101039A18002388
:20428000091F42F8043BFAD1EFE770472DE9F04198B004000D00002600275FF00008206859
:2042A0004008400020606068804638F44058A86850EA0808C4F8048020688046334810EA47
:2042C00008086868E96808432969084350EA0808C4F80080A068804638F44078686950EA42
:2042E0000808C4F8088000A8FFF7EFFB2348844202D10E98070013E02148844202D10F9895
:2043000007000DE01F48844202D11098070007E01D48844202D11198070001E012980700D3
:20432000206800040CD578002968B0FBF1F0060078002968B0FBF1F201FB1200804609E021
:204340002868B7FBF0F006002868B7FBF0F100FB117080462868B8EB500F00D3761C206851
:20436000000407D5C6F3420080464FF6F070304058EA0006A68118B0BDE8F08100380140C1
:204380000044004000480040004C0040F3E9FFFFC9B2002904D0026852F00102026003E03F
:2043A00002685208520002607047CA05D20D02857047808CC005C00D704702000020D3692F
:2043C0000B4202D00123180001E000231800C0B27047000001684FF6FE721140016000214C
:2043E000016000214160002181600021C1606649884206D16549096851F00F01634A116078
:204400006CE06349884206D16049096851F0F0015E4A116062E05F49884206D15B490968FE
:2044200051F47061594A116058E05B49884206D15649096851F47041544A11604EE05749F2
:20444000884206D15149096851F470214F4A116044E05349884206D14C49096851F47001B3
:204460004A4A11603AE04F49884206D14749096851F07061454A116030E04B49884206D18C
:204480004A49096851F00F01484A116026E04849884206D14549096851F0F001434A11605D
:2044A0001CE04449884206D14049096851F470613E4A116012E04049884206D13B490968B8
:2044C00051F47041394A116008E03C49884205D13649096851F47021344A1160704710B4B5
:2044E000002203681A006FF30E128B680C6A23430C6923434C6923438C692343CC692343D8
:204500004C6A23438C6A23431A4302608B8943600B6883604B68C36010BC7047C9B200295A
:2045200004D0026852F00102026004E002684FF6FE731A4002607047D2B2002A03D0036833
:204540000B43036002E003688B4303607047010000200022CB0003D5194B1B681A0002E0AC
:20456000184B1B681A000A4202D00123180001E000231800C0B27047C10002D50B49086048
:2045800001E002490860704708000240040002401C00024030000240440002405800024050
:2045A0006C0002408000024008040240040402401C040240300402404404024058040240F3
:2045C000000402400000024010B40022C3681A00DFF898321A400B684C6823438C68234346
:2045E000CC6823430C6923434C6923438C6923431A43C260036B1A00120912010B7F5B1E98
:204600001A43026310BC70470021016000214160002181600021C160002101610021416187
:204620000021816101210177704710B40022B0F1A04F03D0DFF83032984207D1DFF83032B9
:204640001B681A00DFF82C321A4006E0DFF828321B681A00DFF81C321A400B684C6823436E
:204660008C682343CC6853EA04330C7C53EA04231A43B0F1A04F03D0DFF8EC31984203D1EA
:20468000DFF8EC311A6002E0DFF8EC311A6010BC7047C9B2002904D0826852F00102826050
:2046A00003E0826852F0020282607047816851F0004181607047826832F0804282608268B1
:2046C0000A4382607047826832F040528260C9B2002904D0826852F08052826003E082684F
:2046E00052F0005282607047F0B400250024D2B2052A12DA066B35001F26062712FB07F7DE
:20470000BE403400A543C9B2062612FB06F611FA06F63400254305634AE0D2B20A2A15DAF3
:20472000466B35001F26571F5FF0060C17FB0CF7BE403400A543C9B2561F062716FB07F61D
:2047400011FA06F634002543456331E0D2B20F2A17DA866B35001F26B2F10A075FF0060CCF
:2047600017FB0CF7BE403400A543C9B2B2F10A06062716FB07F611FA06F634002543856316
:2047800016E0C66B35001F26B2F10F075FF0060C17FB0CF7BE403400A543C9B2B2F10F06FC
:2047A000062716FB07F611FA06F634002543C563C9B20A291ADB866935000726B1F10A074C
:2047C0005FF0030C17FB0CF7BE4034008669A64386618669DBB2B1F10A075FF0030C17FBD6
:2047E0000CF713FA07F73E43866115E04669350038264F1E5FF0030C17FB0CF7BE403400FA
:204800004669A64346614669DBB2032711FB07F713FA07F73E434661F0BC7047816851F029
:20482000040181607047C9B2002904D0C26852F00102C26003E0C26852085200C260704740
:20484000C26832F00202C260C2680A43C26070470200002013680B4202D00123180001E0BD
:2048600000231800C0B270470001005007C0FFFD08030050E010FCFF0807005080B20A4996
:2048800008607047C0B209490860704780B20849086070474AF6AA200349086070474CF6BD
:2048A000CC400149086070470030004004300040083000400021DFF84821126811008908AA
:2048C00089000143DFF8382111607047DFF834010068000609D5DFF83001DFF830110860D3
:2048E000DFF82C01DFF824110860704738B5040004255FF4302000F091F80500EDB2042D7E
:204900001FD1DFF80001006850F00200DFF8F4100860DFF800010460DFF8E800006850F03F
:204920004000DFF8E01008605FF4302000F076F80500DFF8D000006830F00200DFF8C41026
:2049400008602800C0B232BD70B582B004000D000426002000905FF4302000F05FF8060034
:20496000F6B2042E2BD1DFF89C00006850F00100DFF89010086025805FF4302000F04EF8E8
:204980000600F6B2042E12D1A01C0090280C009908805FF4302000F041F80600DFF86400A6
:2049A000006840084000DFF85C10086007E0DFF85400006840084000DFF848100860300093
:2049C000C0B276BD144908607047042012490968C90702D5012108000FE00F490968C9066E
:2049E00002D50221080008E00B490968490702D50321080001E004210800C0B2704700007E
:204A000000200240102002402301674504200240AB89EFCD142002400C20024038B50400C7
:204A20000425FFF7D2FF0500EDB2012D06D1002C04D0FFF7CAFF0500641EF5E7002C01D1BD
:204A4000052005002800C0B232BD0000C9B2002905D0064A12680243044B1A6004E0034A21
:204A600012688243014B1A607047000000000140F8B40500059C09B22DB2A94209DB2DB29F
:204A80009BB203FB05F000900098A4B26043009010E009B29BB203FB01F0009000982DB237
:204AA00009B26E1A92B202FB060000900098A4B260430090BDF902000A2690FBF6F706FB5A
:204AC0001700052804DBBDF802000A3000B201E0BDF90200F2BC70472DE9F04182B0DFF8C2
:204AE000D467DFF8D477DFF8D487DFF8D407DFF8D417086040F2EA60DFF8C8174988401AEE
:204B0000DFF8C4170880DFF8BC07408800F2EA60DFF8B8170880DFF8B80700880A2816D158
:204B2000DFF8B007DFF89C17086041F25400DFF894174988401ADFF890170880DFF8840759
:204B4000408800F580505430DFF880170880DFF888078078222805D0DFF87C078078232834
:204B600040F0578100200400E4B2262C1BDAE4B2132C0ADADFF86407E4B230F81400DFF888
:204B80006017E4B221F814000BE0DFF85807E4B210EB440030F8260CDFF84417E4B221F8AA
:204BA0001400641CE0E7DFF83807050001200400E4B2152C80F22D81E4B215EB440030F861
:204BC000020CB0F5C07F37DCE4B215EB440030F8020C002830D0DFF81007E4B230F91400D7
:204BE000012829DBDFF80007E4B230F914006430DFF8F816E4B221F81400E4B215EB4400C1
:204C000030F8020C4FF480514843DFF8DC16E4B231F91410B0FBF1F0DFF8D416E4B221F816
:204C200014000020E4B215EB440121F8020C1420DFF8C016088073E0E4B215EB440030F880
:204C4000020C00286CD0DFF8A406E4B230F9140000B2DFF89416E4B231F9141088425FDA74
:204C600010200090DFF88806E4B230F81430DFF88006E4B230F81420DFF87006E4B230F9B2
:204C8000141009B2DFF86406E4B230F9140000B2FFF7EEFEDFF86016E4B221F81400DFF8A6
:204CA0005806E4B230F814000A2190FBF1F201FB120005280ADBDFF84006E4B230F814001C
:204CC0000A38DFF83416E4B221F81400E4B215EB440030F8020CDFF82016E4B231F81410AE
:204CE000401A4FF480514843DFF8FC15E4B231F91410DFF8F825E4B232F81420891AB0FBB9
:204D0000F1F0DFF8F815E4B221F814000020E4B215EB440121F8020C1420DFF8D815088069
:204D2000DFF8A4050088DFF8D415E4B231F81410884215D2DFF8C405E4B230F81400DFF8CE
:204D40008C15098888420BD2DFF8B005E4B230F81400E4B2062101FB046121F8060C15E0DE
:204D6000DFF86C0500880A2808D141F25400E4B2062101FB046121F8060C07E040F2EA6025
:204D8000E4B2062101FB046121F8060CDFF838050088DFF85C15E4B231F81410884215D252
:204DA000DFF84C05E4B230F81400DFF82015098888420BD2DFF83805E4B230F81400E4B239
:204DC000062101FB047121F8060C15E0DFF8000500880A2808D141F25400E4B2062101FB6C
:204DE000047121F8060C07E040F2EA60E4B2062101FB047121F8060CDFF8F004E4B230F8CE
:204E00001400E4B2062101FB048121F8060C641CCEE6BDE8F38180B5DFF8E4040078C00795
:204E200025D500F056F8DFF8DC04007800281ED0DFF8D0040078401EDFF8C8140870DFF872
:204E4000C4040078002812D15A20DFF8BC1488700220DFF8B814098860F30101DFF8AC04BC
:204E600001800820DFF8A8140870FEF766F9DFF890040068C0F3400000280AD000F057F823
:204E8000DFF890040068142803D300F06BFA00F0D6FADFF86C040068C0F3800000280ED030
:204EA00000F04EF8DFF86C04006810F1010F06D0DFF860040068401CDFF858140860DFF8A5
:204EC00040040068C0F3C000002801D000F062F801BD38B5DFF82804006840084000DFF8FB
:204EE00020140860DFF83004008800281ED0DFF828040088401EDFF820140880DFF81804FE
:204F00000088002812D1FEF7AAFCFEF7ACFC45F2AA50DFF8081408800020DFF8FC1308808C
:204F2000DFF8FC03040020680500A84731BDDFF8D003006830F00200DFF8C413086070472C
:204F4000DFF8BC03006830F00400DFF8B4130860DFF8D0038088C0F3400080B2002818D141
:204F6000DFF890030088002813D0DFF888030088401EDFF880130880DFF8780300880128F7
:204F800007D1DFF87C03006950F00200DFF870130861704780B500F019F8DFF864030068E2
:204FA00030F00800DFF858130860DFF87C030088401CDFF874130880DFF86C0300880A28FF
:204FC00003DB0020DFF86013088001BD2DE9F04182B0B84EB84FDFF8E482DFF83803006806
:204FE000B0F5967FC0F0B78000200500ADB2262D18DAADB2132D09DADFF83003ADB230F834
:205000001500CB49ADB221F8150009E0C748ADB230F81500C749ADB211EB450121F8260C4A
:205020006D1CE3E7C14804000020C34908800020C149488001200500ADB2152D80F28B8026
:20504000BE48ADB250F82500BD49B1F9001009B290FBF1F0A449ADB221F81500A248ADB2D4
:2050600030F91500002825D510200090ADB2062000FB057030F8063CADB2062000FB0560CC
:2050800030F8062CADB2062000FB058030F9061C09B29548ADB230F91500404200B2FFF707
:2050A000E7FC5FF0FF3110FB01F0A649ADB221F815001EE010200090ADB2062000FB057063
:2050C00030F8063CADB2062000FB056030F8062CADB2062000FB058030F9061C09B2824852
:2050E000ADB230F91500FFF7C3FC9649ADB221F815007D48ADB230F9150040F6E44188426B
:2051000009DA9048ADB230F81500ADB214EB450121F8020C1DE08C48ADB214EB450121F8DF
:20512000020CADB2112D08DA8348008801212A00521E9140084380490880ADB2112D08DBE6
:205140007D48408801212A00113A914008437A4948806D1C70E7BDE8F38110B45549564A89
:20516000674B1B69C3F38003002B40F0A080694B1B68022B1AD20023744C2380734B1B880E
:20518000734C23800023734C2380724B1B88724C238014234E4C23800023704CE380584B0E
:2051A0001B6933F00403564C236180E0594B1B68042B36D26A4B1B881B060BD5654B1B88B1
:2051C0004FF6FF74A34210D0624B1B885B1C614C23800AE0604B1B884FF6FF74A34204D092
:2051E0005D4B1B885B1C5C4C23805D4B1B885B060BD5564B1B884FF6FF74A34257D0534B70
:205200001B885B1C514C238051E0514B1B884FF6FF74A3424BD04E4B1B885B1C4C4C23801E
:2052200045E04C4B1B884C4C2488A34220D2484B1B88464C2488A3421AD20A23244C23806F
:205240000123464CE38000231800C0B2142828DA41F25403C0B2062404FB0014238041F23B
:205260005403C0B2062404FB00242380401CECE7384B1B88384C2488A3420CD2334B1B880C
:20528000334C2488A34206D21423114C23800023324CE38005E014230D4C238000232F4C35
:2052A000E380174B1B6953F00403154C236110BC704700001C020020200200201E02002033
:2052C000000075035C0B0020A40B0020A60B0020A80B002000002A08D007002010090020FA
:2052E000F006002038090020100500200006002060050020A20B002050060020B00500203F
:20530000F00A0020C00B002088070020640B0020B50B00206C0B0020920B002000000020F6
:2053200004000008D80A0020940B00203C07002088090020B0090020000A002098040020CD
:205340009E0B0020A00600200080FFFFAC0B0020AA0B0020B00B0020AE0B0020D8090020DF
:205360001004004880B5DFF8F803C08AC0F3801080B2002862D1DFF8E803C08AC0F30020D1
:2053800080B2002810D0DFF8D803C08A4FF6FF610840DFF8CC13C8826C22DFF8C813DFF8D3
:2053A000C80300F0C5F949E0DFF8B403C08AC0F3402080B2002810D0DFF8A403C08A4FF619
:2053C000FF510840DFF89813C8821E22DFF89C13DFF89C0300F0ACF930E0DFF88403C08AE0
:2053E000C0F3802080B2002810D0DFF87403C08A4FF6FF310840DFF86813C8823622DFF800
:205400006413DFF8640300F058F917E0DFF85003C08AC0F3C02080B200280FD0DFF8400345
:20542000C08A4FF2FF710840DFF83413C8820F22DFF83813DFF8380300F03FF901BD38B589
:20544000DFF81C03807D10F0010000281FD0DFF81003C08A4FF6FE710840DFF80413C882D9
:205460004FF4005000F08AF90400BD48C08A4FF6FD710840BA49C882E4B2042C40F0FD8018
:20548000B748C08A50F00200B549C882F5E0B448C08AC0F3C00080B2002829D0B048C08A16
:2054A0004FF6F7710840AE49C882AD48C08A4FF6FD710840AA49C88200200500EDB2A8488B
:2054C000407B401C85420CDAAA48EDB250F82510A3480068EDB210EB850000F062F96D1CB4
:2054E000ECE79F48C08A50F080009D49C882C4E09B48C08AC0F3C01080B2002829D0984831
:20550000C08A4FF67F7108409549C88200F0B6F8002816D09248407D052880F2AE809048B4
:20552000407D401C8E4948758D48C08A50F001008B49C8828A48C08A50F008008849C882C1
:205540009BE08748C08A4FF6DF7108408449C88293E08348C08AC0F3800080B2002800F0BE
:205560008C807F48C08A4FF6FB7108407C49C88200200500EDB27A48807B801CB5EB400FFA
:2055800008DA77480069EDB2285C7B49EDB268546D1CEFE700200500EDB271484560704886
:2055A000807B022190FBF1F0EDB285420ADA6C4840687149EDB251F825100818684948606B
:2055C0006D1CECE76648C08A4FF6EF7108406449C88269486249897B30F8110060494968A0
:2055E00089B2884229D164485D49897B10EB410040884AF2A55188421FD15948C08A50F03B
:2056000010005749C882002005005548807BEDB285420AD25848EDB230F81500504989688B
:20562000EDB221F815006D1CEFE74D48C08A4FF6BF7108404A49C8821FE04948007D401C5C
:20564000474908754648007D052806DA4448C08A50F004004249C8820FE0FF204049087522
:205660003F48C08A50F020003D49C8823C48C08A4FF6BF7108403A49C88231BD10B438489F
:205680000168002003001A003548407BD2B282420BD2D2B251F82200364CD2B254F8224064
:2056A000A04200D05B1C521CEEE7DBB2002B01D0012000E0002010BC704730B4284C216078
:2056C000274C627300242300DBB2D2B2934208D2DBB250F82340274DDBB245F823405B1C2B
:2056E000F2E700242300DBB21D4C6360DBB2D2B293420AD21A4C64681E4DDBB255F8235025
:205700002C19174D6C605B1CF0E7154C6468CAF2A554184DD2B245F82240114CE48A54F04D
:2057200008040F4DEC8200240D4D6C7530BC704710B40B4B98600A4B1961094B9A7300232C
:20574000074C2375064BDB8A53F00403044CE382034BDB8A53F04003014CE38210BC70473B
:20576000C00A0020002000081C02002000210008180800203C0000202C01002010B582B0D0
:20578000040004208DF80000FFF7A0F83420FFF719F92000FFF7AAF88DF800009DF80000A0
:2057A00016BD70B504000D000426FFF78FF83420FFF708F929002000FFF7C6F8060070BDBE
:2057C000DFF81408407810F0FE00DFF80C184870DFF80408007810F0FD00DFF8FC170870B3
:2057E000DFF8F407007810F0FB00DFF8EC170870DFF8E407407810F0FD00DFF8DC17487019
:20580000704780B5DFF8D8070088DFF8D81709880843DFF8CC170880DFF8C007406830F410
:205820000000DFF8B817486000F001F801BDF8B5DFF8B8070088401CDFF8B0170880DFF84F
:20584000B0070088401CDFF8A8170880DFF8A4070088401CDFF89C170880DFF89C07008815
:20586000401CDFF894170880DFF890070088401CDFF888170880DFF8700700680B280BD3AB
:20588000DFF864070068D22806D2DFF874070088401CDFF86C170880DFF868070088401C4A
:2058A000DFF860170880DFF860070088401CDFF858170880DFF854070088DFF84C1709889D
:2058C000884203D20020DFF840170880DFF81C07008832280BDB0020DFF810170880DFF814
:2058E000FC06006850F00100DFF8F0160860DFF80807008864280BDB0020DFF8FC16088047
:20590000DFF8D806006850F00200DFF8D0160860DFF8DC060088B0F5FA7F0BDB0020DFF8C7
:20592000D0160880DFF8B406006850F00400DFF8AC160860DFF8BC06008841F288318842E4
:205940000BDB0020DFF8AC160880DFF89006006850F00800DFF884160860DFF8B406050094
:20596000DFF8B0060600DFF8B006070001200400E4B2152C80F2A280E4B2002C0DD0E4B23B
:20598000092C0ADAE4B215EB440030F8020CDFF88C16E4B221F814001AE0E4B2092C0DDBF5
:2059A000E4B2112C0ADAE4B216EB440030F8120CDFF86816E4B221F8140009E0E4B217EB76
:2059C000440030F8220CDFF85416E4B221F81400DFF82C060088002832D0DFF84406E4B2B7
:2059E00050F82400DFF83416E4B231F8141010FA81F0DFF82C16E4B241F82400DFF80006D3
:205A000000884FF6FF7188421AD1DFF81406E4B250F824004FF6FF71B0FBF1F0DFF804166F
:205A2000E4B221F814000020DFF8F415E4B241F82400E4B2142C03D10020DFF8C4150880AE
:205A4000DFF8E405E4B250F82400DFF8D015E4B231F9141000FA81F0DFF8C815E4B231F905
:205A6000141009B2401ADFF8C015E4B241F82400DFF868050068C0F3C00000281CD0DFF844
:205A8000A805E4B250F82400DFF8A015E4B241F824000020DFF89015E4B241F82400DFF872
:205AA0005C050088DFF888150880E4B2142C03D10020DFF848150880641C59E70120DFF8C3
:205AC000741508705FF0A040FEF7A8FE00F001F8F1BD10B5DFF86005008847F23051884257
:205AE00006DADFF8540500886430DFF84C150880DFF84805008847F23051884206DADFF8D3
:205B00003C0500886430DFF834150880DFF8300500884EF66021884207DADFF824050088F4
:205B2000401CDFF81C15088037E00020DFF810150880DFF81005807810F0FE00DFF80415EC
:205B40008870DFF80005807810F0FD00DFF8F4148870DFF8F004807810F0FB00DFF8E41418
:205B60008870DFF8E004807810F0DF00DFF8D41488704CF25030DFF8D014088049F6404024
:205B8000DFF8C8140880DFF85404406830F40020DFF848144860FFF713FEDFF8B4040078C6
:205BA000002800F07F80DFF834048068C0F38000002830D14FF48050DFF898140880DFF886
:205BC00098040088400507D540F23F31DFF88C04FEF7F3FB00280FD00020DFF85C1408809E
:205BE00040F23F31DFF874040162C046DFF86C04FEF7DFFB040050E0DFF83C040088B0F5BD
:205C0000FA6F4ADDDFF8D403806850F00400DFF8CC13886041E04FF48050DFF844140860B1
:205C20000020DFF8141408804021DFF83004FEF7C4FB002804D1DFF82C04007800282CD1FC
:205C4000DFF820040078DFF808140978884215D2DFF810040078462810DADFF80804007896
:205C6000411CDFF800241170DFF8FC13C0B2415C89B2DFF8E803FEF798FB0EE04FF48050D0
:205C8000DFF8D01308800020DFF8C4130870DFF8C0030078DFF8CC1308700020DFF8CC1366
:205CA0000880D6E02021DFF8B403FEF786FB002863D0DFF828030068C0F3402000285CD134
:205CC0000020DFF874130880DFF81003806830F00400DFF808138860DFF88003FEF769FB3B
:205CE0000400DFF88C030078462841DADFF88403DFF87C1309780C54DFF874030078401C72
:205D0000DFF86C130870DFF868030078012809D1DFF86003007850282AD00020DFF850137A
:205D2000087025E0DFF848030078042820D1DFF844034078FF281BD0DFF838034078542801
:205D400016D0DFF830038078222804DBDFF82403807826280CDBDFF81C03C078322807D0A8
:205D60000020DFF80C1308700020DFF8081308700020DFF8F81208806BE0AF48008842F284
:205D80001171884265DBDFF8E8020078042841DBDFF8DC02007832280CD1DFF8D8028078E9
:205DA000222807DBB3488078262803DAB148C078322825D0AF48007850282BD1AD48407889
:205DC000542827D1AB488078A52823D1A948C0780C281FD1A748807957281BD1A548C079DD
:205DE000132817D1A348007A682813D1A148407A24280FD19E4800789E49C978884209D1AE
:205E00009B4800789C4908707448006850F40070724908600020884908807048806850F076
:205E200004006E4988600020914908704FF48050884908808D480088401C8C4908808B48F8
:205E40000088B0F57A7F04DBFDF77FFB0020874908808A480078002857D060488068C0F37B
:205E60004000002824D17C480088000706D540F23F318348FEF7A1FA00280CD000206F49BE
:205E8000088040F23F317E480162C0467C48FEF790FA04009EE069480088B0F5FA6F40F36A
:205EA00099804E48806850F002004C49886091E000206249088040217148FEF77EFA002819
:205EC00004D170480078002840F084806D4800786A490978884210D26A48007828280CDAF4
:205EE00068480078411C674A11706749C0B2415C89B26348FEF759FA6CE000205F49087072
:205F00005E4800785F49087064E020215C48FEF754FA00282FD031480068C0F38020002854
:205F200029D10020454908802C48806830F002002A4988605248FEF73CFA0400534800787C
:205F4000282847DA5248514909780C544F480078401C4E4908704E480078512807D14B484F
:205F60000078022836D14A484078202832D00020464908702EE040F23F314148FEF71DFA78
:205F800000280CD000202D49088040F23F313C480162C0463A48FEF70CFA04001AE0274866
:205FA0000088B0F5FA6F15DD38480078202805DB0A48006850F48060084908600020334906
:205FC000087000201D4908800448806850F002000249886010BD0000500B0020F00A002030
:205FE000580B0020540B00206C0B0020740B0020760B0020780B00207A0B00209C0B0020B9
:206000009A0B0020900B00207C0B00207E0B0020180B0020280B0020380B0020D4080020BB
:20602000A80300209808002020040020980400209E0B0020B20B0020880B00208C0B0020C5
:206040008E0B0020A00A0020980B0020960B0020B40B002028000048100000480038014019
:2060600018000048B30B0020880700208A0B0020B60B0020D0070020B70B0020B90B0020E0
:2060800000440040B80B0020500A0020BA0B0020780A00206849080003210180704780B54E
:2060A000FFF7F8FF00206549086000F044F800F007F9FDF7DFFBFDF7E5FB00F046F8604829
:2060C0000078604908706048008860490870604800886049087060484068400840005E4906
:2060E00048605D480079C00709D45C480088B0F57A7F04DB002059490880FEF7CBFBFFF792
:206100002CF8FEF788FE54480068C0F340200028E7D0FCF789FC52488088C0F3400080B2AB
:20612000002801D0FEF7D8FC4B48006830F4007049490860D5E74B4908004B49814203D38F
:2061400000210180801CF8E7704710B44748484900231A00D2B2142A0FDA40F2EA63D2B29C
:20616000062404FB0204238040F2EA63D2B2062404FB02142380521CECE7374B5B685B0087
:206180005B08354C636000233A4CA38301233A4C23800023394C2380394C2380394C2380A1
:2061A0002D4B1B6853F400332B4C23600223364C23800423354C23800623354C2380082363
:2061C000344C2380344BDB8A53F48073324CE382284BDB7813F0FB03264CE37064232F4C0D
:2061E000238064232D4C6380D2232C4CA38000232B4C237000232B4C238000232A4C2380E3
:2062000000232A4C23800023294C6380284B5B88274C23806F23274C23800F4B1B6933F0B2
:2062200004030D4C23611423234C23800023234CE38010BC70470000052004E00000002090
:20624000F4290008BB0B0020EC290008BC0B0020202A0008BD0B0020F00A0020900B002020
:20626000D80A002000010020C10B00201C02002020020020A00A0020860B0020820B002067
:20628000840B0020800B0020740B0020760B0020780B00207A0B0020C00A0020480B0020BF
:2062A000B20B0020A00B0020A20B00209A0B0020000A0020280A0020A80B0020D809002054
:2062C00080B54E48006850F470004C4908604C48006850F001004A4908604A4800684A4915
:2062E0000840484908604648006848490840444908604348006830F4802041490860414867
:20630000006830F4FE003F49086041480068000900013F4908603F4800683F4908403D49D3
:20632000086000203D49086000F005F85FF000603B49086001BD82B000200190002000900E
:206340002F48006850F480302D4908602C48006810F4003000900198401C019000980028A6
:2063600003D10198B0F5A04FF0D125480068800302D50120009001E0002000900098012829
:2063800038D11220274908601E4800681D4908601C4800681B4908601A48006850F48060C8
:2063A000184908601748006830F47C10154908601448006850F4E810124908601048006854
:2063C00050F080700E4908600D4800688001FBD50C480068800880000A4908600948006888
:2063E00050F00200074908600648006810F00C000828F9D102B070470000000088ED00E029
:2064000000100240041002400CC07FF8FFFFF6FE2C10024030100240CCFC00FF081002407E
:2064200008ED00E00020024080B58020FDF757FE002804D0FFF7C4F9FEF731FAFEE701BD95
:20644000FEE7FEE7FEE7FEE770477047704780B5FFF7D7F901BD80B50820FDF740FE002813
:206460000AD00820FDF749FE1120FDF70AFE002802D00120FDF7DCFA1020FDF730FE002853
:206480000AD01020FDF739FE1920FDF7FAFD002802D00220FDF7E2FA01BD70B50220FEF7BD
:2064A00056F800287AD00120FEF766F83C4804003C4805003C4806003C480088C00403D565
:2064C00001203B49088002E000203949088037480088800405D53648008850F00200344959
:2064E000088032480088400405D53148008850F004002F4908802E480088082811DA2D4821
:2065000000882B49098824F811002A4840882849098825F81100274880882549098826F8C3
:20652000110025480088401C234908802248007810F00700204908801F480078C00704D4AD
:206540004FF480501D49088003E04FF480501C49086019480078800704D44FF4005017494C
:20656000088003E04FF400501549086012480078400704D44FF480401049088003E04FF45C
:2065800080400F4908600F480078002806D05FF0A040FEF743F900200A49087070BD000036
:2065A000180B0020280B0020380B002010040048720B002058080020700B0020280400485A
:2065C00018040048B20B002000C1814001C0804101C0804100C1814001C0804100C181406E
:2065E00000C1814001C0804101C0804100C1814000C1814001C0804100C1814001C080418B
:2066000001C0804100C1814001C0804100C1814000C1814001C0804100C1814001C080416A
:2066200001C0804100C1814000C1814001C0804101C0804100C1814001C0804100C181404A
:2066400000C1814001C0804101C0804100C1814000C1814001C0804100C1814001C080412A
:2066600001C0804100C1814000C1814001C0804101C0804100C1814001C0804100C181400A
:2066800000C1814001C0804100C1814001C0804101C0804100C1814001C0804100C18140EA
:2066A00000C1814001C0804101C0804100C1814000C1814001C0804100C1814001C08041CA
:2066C00001C0804100C1814000C0C101C30302C2C60607C705C5C404CC0C0DCD0FCFCE0E12
:2066E0000ACACB0BC90908C8D81819D91BDBDA1A1EDEDF1FDD1D1CDC14D4D515D71716D6EA
:20670000D21213D311D1D010F03031F133F3F23236F6F737F53534F43CFCFD3DFF3F3EFEC9
:20672000FA3A3BFB39F9F83828E8E929EB2B2AEAEE2E2FEF2DEDEC2CE42425E527E7E626A9
:2067400022E2E323E12120E0A06061A163A3A26266A6A767A56564A46CACAD6DAF6F6EAE89
:20676000AA6A6BAB69A9A86878B8B979BB7B7ABABE7E7FBF7DBDBC7CB47475B577B7B67669
:2067800072B2B373B17170B0509091519353529296565797559594549C5C5D9D5F9F9E5E49
:2067A0005A9A9B5B99595898884849894B8B8A4A4E8E8F4F8D4D4C8C448485458747468629
:2067C000824243834181804010B450F8041B79B10268436812180830DC0744BFA9F101045C
:2067E000E31852F8044B43F8044B091FF9D1ECE710BC704710B5074979441831064C7C4406
:20680000163404E00A68081D511888470146A142F8D110BD2C000000540000004EF688511E
:20682000CEF20001086840F470000860BFF34F8FBFF36F8F4FF00070E1EE100A704700008C
:206840002BDAFFFF0400000000000020880B00003C0000200000000071FFFFFF380000007C
:2068600028C1FFFF04000020000000000120C046002801D0FFF7BEFF0020C046C046FFF718
:206880000EFC00F000F800F001B800000746384600F002F8FBE700002021090326311820EA
:2068A000ABBEF9E70148804701480047C1620008B5680008C046C046FFF7B0FFFFF7D6FF23
:2068C000FFF7FEBFFFF7FEBFFFF7FEBFFFF7FEBFFFF7FEBFFFF7FEBFFFF7FEBFFFF7FEBF20
:2068E000FFF7FEBFFFF7FEBFFFF7FEBFFFF7FEBFFFF7FEBFFFF7FEBFFFF7FEBFFFF7FEBF00
:20690000FFF7FEBFFFF7FEBFFFF7FEBFFFF7FEBFFFF7FEBFFFF7FEBFFFF7FEBFFFF7FEBFDF
:20692000FFF7FEBFFFF7FEBFFFF7FEBFFFF7FEBFFFF7FEBFFFF7FEBFFFF7FEBFFFF7FEBFBF
:00000001FF
